:100000000C942A000C9447000C9447000C94470071
:100010000C9461020C9488020C94B9010C94E001D8
:100020000C9407020C940D020C9413020C943A02E7
:100030000C9447000C9447000C9447000C94470024
:100040000C9447000C9447000C9447000C94470014
:100050000C94470011241FBECFE5D8E0DEBFCDBF12
:1000600010E0A0E6B0E0E4E7F6E002C005900D92F3
:10007000AA36B107D9F720E0AAE6B0E001C01D9288
:10008000A438B207E1F70E9485000C9438030C9461
:100090000000DC01FB018181813099F4808111969F
:1000A0009C911197892B11968C93119782818130A5
:1000B00081F4808112969C911297892B12968C93D1
:1000C00008959081909511968C911197982311968F
:1000D0009C930895442329F0FC012281622B6283C2
:1000E00008956095FC01228162236283089541E0B6
:1000F00060E886E390E00E946A00089540E060E8CE
:1001000086E390E00E946A000895CF93DF9300D0C9
:100110001F92CDB7DEB719821A821B8281E08983D4
:100120008A83BE016F5F7F4F86E390E00E944900A3
:10013000789427E730E041E06CE271E080E690E0FF
:100140000E94DB028111F5CF2EE730E041E064EF41
:1001500071E080E690E00E94DB028111F5CFE9CFEB
:10016000FC01892B09F464C0808581110BC083B721
:10017000877883BF93B78481892B886083BF85810B
:100180008CBF50C0823059F485B5877885BD95B550
:100190008481892B886085BD858183BD43C0823081
:1001A00009F048C01FBC86818F3FE9F4848190E04C
:1001B0009C0100243695279507943695279507943A
:1001C000322F202D82959295907F9827807F9827B7
:1001D000822B8FBD858190E09BBD8ABD858190E09B
:1001E00099BD88BD1FC0863071F4248130E0A9011B
:1001F00002C0440F551F8A95E2F74FBD858190E0FC
:100200009BBD8ABD0FC08430B9F4248130E0A901C0
:1002100002C0440F551F8A95E2F74FBD858190E0DB
:1002200099BD88BD99B78185892B89BF80E00895E4
:1002300081E0089582E0089582E00895811108C068
:1002400013BE12BE1CBE89B78C7F89BF80E00895A3
:10025000823041F415BC14BC13BC89B78F7389BFBD
:1002600080E00895813059F41FBC1EBC1DBC1CBC2D
:1002700017BC16BC89B7837C89BF80E0089582E0F3
:100280000895009729F1FC012085211109C023B7A9
:10029000287F23BF23B78781822B83BF80E0089507
:1002A000223051F425B5287F25BD25B5FC01878175
:1002B000822B85BD80E00895213061F42EB5287F22
:1002C0002EBD2EB5FC018781822B8EBD80E0089566
:1002D00081E0089582E008956115710509F445C033
:1002E0008830E9F138F4823081F0843061F1813076
:1002F000F1F511C0803209F118F4803151F137C0A5
:100300008034A9F0803869F032C07093790060932E
:10031000780080E00895709377006093760080E025
:100320000895709375006093740080E00895709351
:1003300073006093720080E0089570937100609381
:10034000700080E0089570936B0060936A0080E015
:10035000089570936F0060936E0080E0089570932D
:100360006D0060936C0080E0089581E0089582E064
:1003700008951F920F920FB60F9211242F933F935F
:100380004F935F936F937F938F939F93AF93BF939D
:10039000EF93FF93E0917000F09171000995FF9148
:1003A000EF91BF91AF919F918F917F916F915F91ED
:1003B0004F913F912F910F900FBE0F901F90189566
:1003C0001F920F920FB60F9211242F933F934F93CA
:1003D0005F936F937F938F939F93AF93BF93EF93AD
:1003E000FF93E0916E00F0916F000995FF91EF91FE
:1003F000BF91AF919F918F917F916F915F914F913D
:100400003F912F910F900FBE0F901F901895E09184
:100410006C00F0916D0009950895E0916A00F091EB
:100420006B00099508951F920F920FB60F92112439
:100430002F933F934F935F936F937F938F939F93EC
:10044000AF93BF93EF93FF93E0917800F091790021
:100450000995FF91EF91BF91AF919F918F917F91FE
:100460006F915F914F913F912F910F900FBE0F9021
:100470001F9018951F920F920FB60F9211242F9371
:100480003F934F935F936F937F938F939F93AF931C
:10049000BF93EF93FF93E0917600F0917700099579
:1004A000FF91EF91BF91AF919F918F917F916F914C
:1004B0005F914F913F912F910F900FBE0F901F9022
:1004C00018951F920F920FB60F9211242F933F93FE
:1004D0004F935F936F937F938F939F93AF93BF934C
:1004E000EF93FF93E0917400F09175000995FF91EF
:1004F000EF91BF91AF919F918F917F916F915F919C
:100500004F913F912F910F900FBE0F901F90189514
:100510001F920F920FB60F9211242F933F934F9378
:100520005F936F937F938F939F93AF93BF93EF935B
:10053000FF93E0917200F09173000995FF91EF91A4
:10054000BF91AF919F918F917F916F915F914F91EB
:100550003F912F910F900FBE0F901F901895CF9342
:10056000DF938091820090918300019790938300A4
:10057000809382000197C9F410927A00CDE7D0E011
:10058000E881F98109958A819B819093830080930A
:1005900082008C81813049F499B7E0917B00F09121
:1005A0007C0081858095892389BF88B7806888BF52
:1005B000DF91CF910895EF92FF921F93CF93DF9336
:1005C00050917A00513009F440C0009709F43FC0BF
:1005D00021153105F1F1E901142F7B01FC01909304
:1005E0007C0080937B0022E0208782E00E941E0135
:1005F000811131C080917B0090917C000E94B000FD
:1006000081112BC0E0917B00F0917C006FEA72E0D9
:1006100081850E946C01811122C0EDE7F0E0D18359
:10062000C083F382E282F0928300E092820014831E
:1006300080917B0090917C000E944101811111C04A
:1006400081E080937A0080E00DC081E00BC081E002
:1006500009C081E007C082E005C082E003C082E0FB
:1006600001C082E0DF91CF911F91FF90EF9008953C
:04067000F894FFCF2C
:0A0674000000080000FA00040280F4
:00000001FF
