:100000000C942A000C9447000C9447000C94470071
:100010000C94B1020C94D8020C9409020C94300296
:100020000C9457020C945D020C9463020C948A02A7
:100030000C9447000C9447000C9447000C94470024
:100040000C9447000C9447000C9447000C94470014
:100050000C94470011241FBECFE5D8E0DEBFCDBF12
:1000600010E0A0E6B0E0E4E1F7E002C005900D92F8
:10007000AE36B107D9F720E0AEE6B0E001C01D9280
:10008000A838B207E1F70E94D1000C9488030C94C1
:100090000000EF92FF921F93CF93DF9300D01F9247
:1000A000CDB7DEB70097E1F07C0181E08A8310E0F4
:1000B00013C0E12FF0E0CF01880F991FE80FF91F5F
:1000C000EE0DFF1D82818983BE016F5F7F4F8081AE
:1000D00091810E9495001F5F112359F380E001C0B8
:1000E00081E00F900F900F90DF91CF911F91FF90C3
:1000F000EF90089541155105A1F08230A0F49A01C6
:10010000462F90E0FC01EE0FFF1F8E0F9F1FF9019D
:10011000E80FF91F6281808191810E94B60080E022
:10012000089581E0089581E00895DC01FB0181815B
:10013000813099F4808111969C911197892B1196A9
:100140008C9311978281813081F4808112969C91E9
:100150001297892B12968C93089590819095119601
:100160008C911197982311969C930895442329F01C
:10017000FC012281622B628308956095FC0122813B
:1001800062236283089540E650E061E080E00E94CF
:100190007A00089540E650E060E080E00E947A0036
:1001A0000895CF93DF9300D01F92CDB7DEB71982A9
:1001B0001A821B8281E089838A83BE016F5F7F4F31
:1001C00086E390E00E94950080E690E00E9449005E
:1001D000789423EC30E041E06CE271E083E690E05B
:1001E0000E942B038111F5CF2AEC30E041E064EF4F
:1001F00071E083E690E00E942B038111F5CFE9CFF7
:10020000FC01892B09F464C0808581110BC083B780
:10021000877883BF93B78481892B886083BF85816A
:100220008CBF50C0823059F485B5877885BD95B5AF
:100230008481892B886085BD858183BD43C08230E0
:1002400009F048C01FBC86818F3FE9F4848190E0AB
:100250009C01002436952795079436952795079499
:10026000322F202D82959295907F9827807F982716
:10027000822B8FBD858190E09BBD8ABD858190E0FA
:1002800099BD88BD1FC0863071F4248130E0A9017A
:1002900002C0440F551F8A95E2F74FBD858190E05B
:1002A0009BBD8ABD0FC08430B9F4248130E0A90120
:1002B00002C0440F551F8A95E2F74FBD858190E03B
:1002C00099BD88BD99B78185892B89BF80E0089544
:1002D00081E0089582E0089582E00895811108C0C8
:1002E00013BE12BE1CBE89B78C7F89BF80E0089503
:1002F000823041F415BC14BC13BC89B78F7389BF1D
:1003000080E00895813059F41FBC1EBC1DBC1CBC8C
:1003100017BC16BC89B7837C89BF80E0089582E052
:100320000895009729F1FC012085211109C023B708
:10033000287F23BF23B78781822B83BF80E0089566
:10034000223051F425B5287F25BD25B5FC018781D4
:10035000822B85BD80E00895213061F42EB5287F81
:100360002EBD2EB5FC018781822B8EBD80E00895C5
:1003700081E0089582E008956115710509F445C092
:100380008830E9F138F4823081F0843061F18130D5
:10039000F1F511C0803209F118F4803151F137C004
:1003A0008034A9F0803869F032C070937D0060938A
:1003B0007C0080E0089570937B0060937A0080E079
:1003C0000895709379006093780080E008957093A9
:1003D00077006093760080E00895709375006093D5
:1003E000740080E0089570936F0060936E0080E069
:1003F0000895709373006093720080E00895709385
:1004000071006093700080E0089581E0089582E0BB
:1004100008951F920F920FB60F9211242F933F93BE
:100420004F935F936F937F938F939F93AF93BF93FC
:10043000EF93FF93E0917400F09175000995FF919F
:10044000EF91BF91AF919F918F917F916F915F914C
:100450004F913F912F910F900FBE0F901F901895C5
:100460001F920F920FB60F9211242F933F934F9329
:100470005F936F937F938F939F93AF93BF93EF930C
:10048000FF93E0917200F09173000995FF91EF9155
:10049000BF91AF919F918F917F916F915F914F919C
:1004A0003F912F910F900FBE0F901F901895E091E4
:1004B0007000F091710009950895E0916E00F0913F
:1004C0006F00099508951F920F920FB60F92112495
:1004D0002F933F934F935F936F937F938F939F934C
:1004E000AF93BF93EF93FF93E0917C00F0917D0079
:1004F0000995FF91EF91BF91AF919F918F917F915E
:100500006F915F914F913F912F910F900FBE0F9080
:100510001F9018951F920F920FB60F9211242F93D0
:100520003F934F935F936F937F938F939F93AF937B
:10053000BF93EF93FF93E0917A00F0917B000995D0
:10054000FF91EF91BF91AF919F918F917F916F91AB
:100550005F914F913F912F910F900FBE0F901F9081
:1005600018951F920F920FB60F9211242F933F935D
:100570004F935F936F937F938F939F93AF93BF93AB
:10058000EF93FF93E0917800F09179000995FF9146
:10059000EF91BF91AF919F918F917F916F915F91FB
:1005A0004F913F912F910F900FBE0F901F90189574
:1005B0001F920F920FB60F9211242F933F934F93D8
:1005C0005F936F937F938F939F93AF93BF93EF93BB
:1005D000FF93E0917600F09177000995FF91EF91FC
:1005E000BF91AF919F918F917F916F915F914F914B
:1005F0003F912F910F900FBE0F901F901895CF93A2
:10060000DF938091860090918700019790938700F7
:10061000809386000197C9F410927E00C1E8D0E073
:10062000E881F98109958A819B8190938700809365
:1006300086008C81813049F499B7E0917F00F09178
:10064000800081858095892389BF88B7806888BFAD
:10065000DF91CF910895EF92FF921F93CF93DF9395
:1006600050917E00513009F440C0009709F43FC01A
:1006700021153105F1F1E901142F7B01FC01909363
:10068000800080937F0022E0208782E00E946E013C
:10069000811131C080917F00909180000E94000103
:1006A00081112BC0E0917F00F09180006FEF72E02C
:1006B00081850E94BC01811122C0E1E8F0E0D18374
:1006C000C083F382E282F0928700E0928600148376
:1006D00080917F00909180000E949101811111C052
:1006E00081E080937E0080E00DC081E00BC081E05E
:1006F00009C081E007C082E005C082E003C082E05B
:1007000001C082E0DF91CF911F91FF90EF9008959B
:04071000F894FFCF8B
:0E0714003600100000080000FA000402800009
:00000001FF
