S0140000536F6674776172655F50574D2E7372656372
S11300000C942A000C9447000C9447000C9447006D
S11300100C9413030C943A030C946B020C94920208
S11300200C94B9020C94BF020C94C5020C94EC021B
S11300300C9447000C9447000C9447000C94470020
S11300400C9447000C9447000C9447000C94470010
S11300500C94470011241FBECFE5D8E0DEBFCDBF0E
S113006010E0A0E6B0E0EAEAFDE002C005900D92DF
S1130070AA36B107D9F720E0AAE6B0E001C01D9284
S1130080A039B207E1F70E9477000C94D3060C94D0
S11300900000DC01FB018181813099F4808111969B
S11300A09C911197892B11968C93119782818130A1
S11300B081F4808112969C911297892B12968C93CD
S11300C008959081909511968C911197982311968B
S11300D09C930895FC019281292F262329F0622FF5
S11300E06095692362830895692B6283089580E48F
S11300F087BB8FEF81BB40E650E060E280E390E095
S11301000E94C60380E690E00E94360460E670E038
S113011085E00E943E04789488E084BB85BBFFCFD1
S1130120CF92DF92EF92FF920F931F93CF93DF93BF
S11301308C01C62F009709F48BC0FC0180858111C6
S113014008C0962F64E670E00E946F066CBF80E0E2
S113015082C0823049F4962F80E064E670E00E9409
S11301606F0663BD80E077C0813009F073C08FEF04
S11301709FE097BD86BDF80186818F3FB9F58081E8
S11301809181A281B381BC01CD017F708827992719
S11301900F2EF4E6CF2ED12CE12CF12CF02DA7015B
S11301A096010E948306D0E0C29FC001C39F900DB8
S11301B0D29F900D11249BBD8ABDF801808191814D
S11301C0A281B381BC01CD017F7088279927A70143
S11301D096010E948306C29FC001C39F900DD29FC7
S11301E0900D112499BD88BD80E035C08430C1F4E0
S11301F0F80180819181A281B3819C01AD013F709E
S113020044275527A62FB0E00E94A50624E630E037
S113021040E050E00E94830639BD28BD80E01BC049
S1130220F80180819181A281B3819C01AD013F706D
S113023044275527A62FB0E00E94A50624E630E007
S113024040E050E00E9483063BBD2ABD80E003C02D
S113025081E001C080E0DF91CF911F910F91FF9069
S1130260EF90DF90CF900895009729F1FC0120854D
S1130270211109C023B7287F23BF23B78781822B8D
S113028083BF80E00895223051F425B5287F25BD31
S113029025B5FC018781822B85BD80E0089521303E
S11302A061F42EB5287F2EBD2EB5FC018781822BEB
S11302B08EBD80E0089581E0089582E00895811163
S11302C007C083B7887F83BF83B783BF80E0089567
S11302D0823039F485B5887F85BD85B585BD80E0DC
S11302E00895813039F48EB5887F8EBD8EB58EBD6C
S11302F080E0089582E00895FC01892B09F498C0F8
S11303008085813009F06DC080819181A281B381A3
S113031094FF33C0AA27BB278F3F20E19207A10592
S1130320B10529F481E08FBD88E08EBD1FC08F3FE9
S113033021E19207A105B10529F482E08FBD88E08F
S11303408EBD14C08F3F23E19207A105B10529F4A6
S113035083E08FBD88E08EBD09C08F3F9F41A1051A
S1130360B10521F482E08FBD88E18EBD81858823AB
S113037089F099B7892B89BF0DC095FF05C082E02C
S11303808FBD80E18EBD06C096FF04C081E08FBDA5
S113039080E18EBD26812F3FC1F42FB59481892F32
S11303A090E0AC01002456954795079456954795DF
S11303B00794542F402D82959295907F9827807FA3
S11303C09827842B822B8FBD2BC03FB59481892F16
S11303D090E002C0880F991F2A95E2F7832B8FBD06
S11303E01FC0882311F0823029F581110CC083B716
S11303F0877883BF93B724818281822B892B83BF23
S113040085818CBF0DC0823059F485B5877885BD50
S113041095B524818281822B892B85BD858183BDFD
S11304208185882349F099B7892B89BF80E0089595
S113043081E0089582E0089580E0089561157105D2
S113044009F445C08830E9F138F4823081F0843011
S113045061F18130F1F511C0803209F118F4803175
S113046051F137C08034A9F0803869F032C07093FC
S113047079006093780080E008957093770060932A
S1130480760080E00895709375006093740080E0B6
S11304900895709373006093720080E008957093E0
S11304A071006093700080E0089570936B00609316
S11304B06A0080E0089570936F0060936E0080E09E
S11304C0089570936D0060936C0080E0089581E05E
S11304D0089582E008951F920F920FB60F9211248F
S11304E02F933F934F935F936F937F938F939F9338
S11304F0AF93BF93EF93FF93E0917000F09171007D
S11305000995FF91EF91BF91AF919F918F917F9149
S11305106F915F914F913F912F910F900FBE0F906C
S11305201F9018951F920F920FB60F9211242F93BC
S11305303F934F935F936F937F938F939F93AF9367
S1130540BF93EF93FF93E0916E00F0916F000995D4
S1130550FF91EF91BF91AF919F918F917F916F9197
S11305605F914F913F912F910F900FBE0F901F906D
S11305701895E0916C00F0916D0009950895E09153
S11305806A00F0916B00099508951F920F920FB6BF
S11305900F9211242F933F934F935F936F937F9305
S11305A08F939F93AF93BF93EF93FF93E091780062
S11305B0F09179000995FF91EF91BF91AF919F91CF
S11305C08F917F916F915F914F913F912F910F90F8
S11305D00FBE0F901F9018951F920F920FB60F9297
S11305E011242F933F934F935F936F937F938F9334
S11305F09F93AF93BF93EF93FF93E0917600F091B5
S113060077000995FF91EF91BF91AF919F918F91E1
S11306107F916F915F914F913F912F910F900FBEFA
S11306200F901F9018951F920F920FB60F921124DE
S11306302F933F934F935F936F937F938F939F93E6
S1130640AF93BF93EF93FF93E0917400F091750023
S11306500995FF91EF91BF91AF919F918F917F91F8
S11306606F915F914F913F912F910F900FBE0F901B
S11306701F9018951F920F920FB60F9211242F936B
S11306803F934F935F936F937F938F939F93AF9316
S1130690BF93EF93FF93E0917200F091730009957B
S11306A0FF91EF91BF91AF919F918F917F916F9146
S11306B05F914F913F912F910F900FBE0F901F901C
S11306C0189580917C00811107C080917F0083BDC3
S11306D081E080937C0006C080917F00809583BD7B
S11306E010927C0080917F00882341F06091870004
S11306F080918100909182000E946A000895809107
S11307007B0081110EC020917D0030917E008FEF1F
S11307109FE0821B930B9BBD8ABD81E080937B008D
S113072008C080917D0090917E009BBD8ABD10928F
S11307307B0080917D0090917E00892B41F0609137
S11307408A0080918300909184000E946A00089539
S113075080917A00811107C0809180008CBF81E074
S113076080937A0006C08091800080958CBF10929F
S11307707A0080918000882341F060918D008091FF
S11307808500909186000E946A000895FF920F935D
S11307901F93CF93DF934115510509F45EC0EA011D
S11307A0F62E8C018FEF9FE0A8E0B0E08883998358
S11307B0AA83BB83CA010E947C01988591111AC047
S11307C0EDE8F0E081E08183F0821282BF01C8018C
S11307D00E944900109386000093850068EA73E044
S11307E081E00E941E0268EA73E089850E941E026D
S11307F080E036C09130A9F4EAE8F0E081E081833A
S1130800F0821282BF01C8010E9449001093840043
S1130810009383006FE773E089850E941E0280E0E5
S11308201FC09230E1F4E7E8F0E081E08183F082D8
S11308301282BF01C8010E944900109382000093F4
S1130840810061E673E080E40E941E0261E673E0C9
S113085089850E941E0280E003C081E001C082E01D
S1130860DF91CF911F910F91FF900895009721F090
S11308700E94340180E0089581E008958F929F9250
S1130880AF92BF92CF92DF92EF92FF921F93CF93DA
S1130890DF936115710509F471C0EB01182F888588
S11308A00E945F0181116CC0612FCE010E949000F3
S11308B0811168C0CE010E943401811165C0888510
S11308C0813041F588819981AA81BB814C015D0108
S11308D02FE09222AA24BB24612F70E080E090E0F4
S11308E00E94760520E030E048EC52E40E940206C3
S11308F06B017C01C501B4010E947405A701960136
S11309000E94D3040E94450570937E0060937D008D
S113091080E03DC0811118C0612F70E080E090E05C
S11309200E94760520E030E048EC52E40E94D304B3
S113093020E030E040E853E40E9402060E944505AE
S11309406093800080E023C0823001F5612F70E065
S113095080E090E00E94760520E030E048EC52E42C
S11309600E94D30420E030E040E853E40E940206F1
S11309700E94450560937F0080E009C081E007C0C4
S113098082E005C082E003C082E001C082E0DF9122
S1130990CF911F91FF90EF90DF90CF90BF90AF90D9
S11309A09F908F9008950E94E7040C94C8050E94BC
S11309B0C10558F00E94BA0540F029F45F3F29F0C0
S11309C00C94B10551110C94FC050C94B7050E94CC
S11309D0D90568F39923B1F3552391F3951B550B6E
S11309E0BB27AA2762177307840738F09F5F5F4FFE
S11309F0220F331F441FAA1FA9F335D00E2E3AF03D
S1130A00E0E832D091505040E695001CCAF72BD054
S1130A10FE2F29D0660F771F881FBB1F26173707A5
S1130A204807AB07B0E809F0BB0B802DBF01FF27D7
S1130A3093585F4F3AF09E3F510578F00C94B105FE
S1130A400C94FC055F3FE4F3983ED4F386957795C8
S1130A506795B795F7959F5FC9F7880F911D969590
S1130A60879597F90895E1E0660F771F881FBB1FEC
S1130A70621773078407BA0720F0621B730B840B99
S1130A80BA0BEE1F88F7E09508950E94E10588F0FF
S1130A909F5798F0B92F9927B751B0F0E1F0660F3E
S1130AA0771F881F991F1AF0BA95C9F714C0B1307F
S1130AB091F00E94FB05B1E008950C94FB05672FAB
S1130AC0782F8827B85F39F0B93FCCF386957795AE
S1130AD06795B395D9F73EF4909580957095619597
S1130AE07F4F8F4F9F4F0895E89409C097FB3EF4C2
S1130AF090958095709561957F4F8F4F9F4F992367
S1130B00A9F0F92F96E9BB279395F69587957795E4
S1130B106795B795F111F8CFFAF4BB0F11F460FFA4
S1130B201BC06F5F7F4F8F4F9F4F16C0882311F0FC
S1130B3096E911C0772321F09EE8872F762F05C010
S1130B40662371F096E8862F70E060E02AF09A95AB
S1130B50660F771F881FDAF7880F9695879597F9A0
S1130B60089597F99F6780E870E060E008959FEF2B
S1130B7080EC089500240A94161617061806090630
S1130B80089500240A9412161306140605060895FF
S1130B90092E0394000C11F4882352F0BB0F40F487
S1130BA0BF2B11F460FF04C06F5F7F4F8F4F9F4FC7
S1130BB0089557FD9058440F551F59F05F3F71F049
S1130BC04795880F97FB991F61F09F3F79F08795B0
S1130BD00895121613061406551FF2CF4695F1DF39
S1130BE008C0161617061806991FF1CF86957105C9
S1130BF0610508940895E894BB2766277727CB01FD
S1130C0097F908950E9415060C94C8050E94BA0528
S1130C1038F00E94C10520F0952311F00C94B10521
S1130C200C94B70511240C94FC050E94D90570F3AB
S1130C30959FC1F3950F50E0551F629FF001729F7D
S1130C40BB27F00DB11D639FAA27F00DB11DAA1F8C
S1130C50649F6627B00DA11D661F829F2227B00DD9
S1130C60A11D621F739FB00DA11D621F839FA00D64
S1130C70611D221F749F3327A00D611D231F849FB4
S1130C80600D211D822F762F6A2F11249F5750400B
S1130C909AF0F1F088234AF0EE0FFF1FBB1F661F86
S1130CA0771F881F91505040A9F79E3F510580F04F
S1130CB00C94B1050C94FC055F3FE4F3983ED4F327
S1130CC0869577956795B795F795E7959F5FC1F7F3
S1130CD0FE2B880F911D9695879597F9089597FB9C
S1130CE0072E16F4009407D077FD09D00E94B006B1
S1130CF007FC05D03EF4909581959F4F089570951B
S1130D0061957F4F0895A1E21A2EAA1BBB1BFD011A
S1130D100DC0AA1FBB1FEE1FFF1FA217B307E407D6
S1130D20F50720F0A21BB30BE40BF50B661F771F2E
S1130D30881F991F1A9469F760957095809590950E
S1130D409B01AC01BD01CF0108950E94C406A59F7B
S1130D50900DB49F900DA49F800D911D11240895B2
S1130D60AA1BBB1B51E107C0AA1FBB1FA617B707CD
S1130D7010F0A61BB70B881F991F5A95A9F78095E9
S1130D809095BC01CD010895A29FB001B39FC0010D
S1130D90A39F700D811D1124911DB29F700D811DA3
S10D0DA01124911D0895F894FFCF6B
S10D0DAAFF0F08000000000702809C
S9030000FC
