:100000000C942A000C9405030C942C030C945303B9
:100010000C94F1040C9418050C9449040C9470048D
:100020000C9497040C949D040C94A3040C94CA049F
:100030000C9447000C9447000C9447000C94470024
:100040000C94CF030C9447000C9447000C94470089
:100050000C94470011241FBECFE5D8E0DEBFCDBF12
:1000600010E0A0E6B0E0E4E1FFE002C005900D92F0
:10007000A23BB107D9F720E0A2EBB0E001C01D928E
:10008000A43DB207E1F70E94C7020C9488070C94C4
:100090000000FF920F931F93CF93DF938C0181E0B9
:1000A0008093B300F12C19C0CF2DD0E0CE01880F82
:1000B000991FC80FD91FC00FD11F8B858093B20025
:1000C00062EB70E089859A850E94210441E06B858E
:1000D00089859A850E943C04F39482E08F1520F76D
:1000E000E2EBF0E0118281E08283C0E013C0EC2FEC
:1000F000F0E0CF01880F991FE80FF91FE00FF11F03
:1001000082818093B20062EB70E0808191810E94D5
:100110002104CF5FC33058F3DF91CF911F910F912E
:10012000FF900895CF92DF92EF92FF920F931F936B
:10013000CF93DF938C01C12C4BC0CC2DD0E0FE01BE
:10014000EE0FFF1FEC0FFD1FE00FF11F40E0638576
:10015000818592850E943C04D12C29C0ED2CF12C84
:10016000F701EE0FFF1FEE0DFF1DE00FF11F628183
:10017000808191810E943404811118C0FE01EE0F2C
:10018000FF1FEC0FFD1FE00FF11F41E0638581852C
:1001900092850E943C04C701880F991F8E0D9F1DF8
:1001A0008E589F4FC80FD91F888117C0D39482E003
:1001B0008D15A0F6CE01880F991FC80FD91FC00F4B
:1001C000D11F41E06B8589859A850E943C04C394C8
:1001D00082E08C1508F0B1CF80E2DF91CF911F91C2
:1001E0000F91FF90EF90DF90CF900895CF93DF9322
:1001F000CBE7D0E041E068858E819F810E943C047E
:1002000085E08A95F1F7000040E068858E819F8146
:100210000E943C048FE39FE10197F1F700C00000CA
:10022000DF91CF9108950F931F93CF93C82F83E051
:1002300090E023C08C010F5F1F4F41E050E0002E83
:1002400002C0440F551F0A94E2F72C2F30E04223DE
:100250005323002E02C0559547950A94E2F7FC01FE
:10026000EE0FFF1F8E0F9F1FFC01E558FF4F6281AD
:10027000808191810E943C04C80187309105D4F2AD
:100280000E94F60003E010E021C0C801039741E09E
:1002900050E0082E02C0440F551F0A94E2F72C2F9D
:1002A00030E04223532302C0559547958A95E2F7E3
:1002B000F801EE0FFF1FE00FF11FE558FF4F6281BD
:1002C000808191810E943C040F5F1F4F0730110510
:1002D000E4F20E94F600CF911F910F9108951F93B1
:1002E000CF93DF93182FCBE7D0E041E06A8188817C
:1002F00099810E943C0440E06D818B819C810E9429
:100300003C04812F0E94130180E0DF91CF911F9167
:1003100008951F93CF93DF93182FCBE7D0E040E0F1
:100320006A81888199810E943C0440E06D818B81C3
:100330009C810E943C04812F0E94130180E0DF9188
:10034000CF911F910895CF93DF93EC0103C02196C5
:100350000E946F0188818111FACFDF91CF910895BA
:10036000E82FF0E0E956FF4F8081860F81500E9410
:10037000890180E008951F93CF93DF93142F0E948B
:10038000B001CBE7D0E041E06A81888199810E9489
:100390003C0440E06D818B819C810E943C04812F54
:1003A0000E94130180E0DF91CF911F9108950F9378
:1003B0001F93CF93DF9300D01F92CDB7DEB72FEFFF
:1003C00089EF90E0215080409040E1F700C00000AC
:1003D00081E08A831B8200E010E012C0F801EE0F7A
:1003E000FF1FE00FF11FE558FF4F82818983BE0197
:1003F0006F5F7F4F808191810E9421040F5F1F4FAB
:10040000073011055CF383E30E94890182E30E94B7
:10041000890188E20E9489018CE00E94890181E0C3
:100420000E94890180E00F900F900F90DF91CF9193
:100430001F910F910895CF93DF93EA010E94B001BD
:1004400003C021960E946F0188818111FACFDF914C
:10045000CF910895EF92FF920F931F93CF93DF9365
:10046000CDB7DEB7EDB6FEB62DB73EB7261B3109C8
:100470000FB6F8943EBF0FBE2DBF0DB71EB70F5F6E
:100480001F4F4AE050E0B8010E944807C8010E948F
:10049000A30180E00FB6F894FEBE0FBEEDBEDF9163
:1004A000CF911F910F91FF90EF9008958F929F929F
:1004B000AF92BF92CF92DF92EF92FF9249015A0121
:1004C0000E94B001C501B4010E941E066B017C01AF
:1004D00080E090E00E944D069B01AC01C501B40193
:1004E0000E943F0520E030E048EC52E40E94DB0629
:1004F0000E941E064B015C0165E0C6010E942A02B3
:100500008EE20E946F0165E0C4010E942A0280E031
:10051000FF90EF90DF90CF90BF90AF909F908F9023
:100520000895CF93DF9300D01F92CDB7DEB79B0124
:10053000898381E08A831B82BE016F5F7F4FC9017F
:100540000E94210480E990E00E947E0380E00F90E9
:100550000F900F90DF91CF91089560E080E990E0D7
:100560000E949603609195007091960080E090E063
:100570000E944D0625EE3FEF4FE95BE30E94DB064C
:100580002AE037ED43E25CE30E94AC0508950E9447
:10059000D70180E690E00E94490066E370E081E0C8
:1005A0000E9491024AE950E061E081E00E941B0252
:1005B0002FEF87EA91E6215080409040E1F700C09C
:1005C000000081E00E94890180E690E00E94920094
:1005D0008093970042EA50E061E081E00E941B02B4
:1005E0004091970067E081E00E94BB0149EA50E03A
:1005F00062E082E00E941B020E94AD029B01AC01FE
:1006000068E082E00E945602DFCF1F920F920FB681
:100610000F9211242F933F934F935F936F937F9388
:100620008F939F93AF93BF93EF93FF93E091CE008F
:10063000F091CF000995FF91EF91BF91AF919F91FC
:100640008F917F916F915F914F913F912F910F907B
:100650000FBE0F901F9018951F920F920FB60F921A
:1006600011242F933F934F935F936F937F938F93B7
:100670009F93AF93BF93EF93FF93E091D200F091DC
:10068000D3000995FF91EF91BF91AF919F918F9109
:100690007F916F915F914F913F912F910F900FBE7E
:1006A0000F901F9018951F920F920FB60F92112462
:1006B0002F933F934F935F936F937F938F939F936A
:1006C000AF93BF93EF93FF93E091D000F091D100EF
:1006D0000995FF91EF91BF91AF919F918F917F917C
:1006E0006F915F914F913F912F910F900FBE0F909F
:1006F0001F90189586B1806486B90895FC0180B773
:100700008F7180BF90B78081892B80BF16B893818D
:100710008181892B806886B917B894818281892B61
:1007200087B98381882309F0789408951F93CF9324
:10073000DF93EC01162FE7EBF0E0118281E001C0BE
:10074000880F6A95EAF780831282BF0189E390E0FF
:100750000E94210487B1807E87B967B1612B67B998
:100760000E947A03349BFECF86B1806186B98A816C
:10077000882349F084B195B18295869586958370DA
:10078000892B90E006C024B185B190E0982F88278E
:10079000822B9E838D83DF91CF911F9108951F92AD
:1007A0000F920FB60F9211242F933F934F935F93A5
:1007B0006F937F938F939F93AF93BF93EF93FF9329
:1007C000E091B500F091B60009953D9B15C064B16C
:1007D00085B16295669566956370682B70E080E0E0
:1007E00090E00E944F066093BA007093BB00809324
:1007F000BC009093BD0014C084B165B170E0762F49
:100800006627682B072E000C880B990B0E944F0659
:100810006093BA007093BB008093BC009093BD00BE
:10082000FF91EF91BF91AF919F918F917F916F91C8
:100830005F914F913F912F910F900FBE0F901F909E
:100840001895FC01DB0111968C911197813029F4E8
:100850008C919181892B81830895DB019C919095E6
:100860008181982391830895FC018081682311F090
:1008700081E0089580E00895442329F0FC0122815D
:10088000622B628308956095FC012281622362835A
:1008900008951F920F920FB60F9211242F933F933A
:1008A0004F935F936F937F938F939F93AF93BF9378
:1008B000EF93FF93E091C400F091C5000995FF917B
:1008C000EF91BF91AF919F918F917F916F915F91C8
:1008D0004F913F912F910F900FBE0F901F90189541
:1008E0001F920F920FB60F9211242F933F934F93A5
:1008F0005F936F937F938F939F93AF93BF93EF9388
:10090000FF93E091C200F091C3000995FF91EF9130
:10091000BF91AF919F918F917F916F915F914F9117
:100920003F912F910F900FBE0F901F901895E0915F
:10093000C000F091C10009950895E091BE00F091CA
:10094000BF00099508951F920F920FB60F921124C0
:100950002F933F934F935F936F937F938F939F93C7
:10096000AF93BF93EF93FF93E091CC00F091CD0054
:100970000995FF91EF91BF91AF919F918F917F91D9
:100980006F915F914F913F912F910F900FBE0F90FC
:100990001F9018951F920F920FB60F9211242F934C
:1009A0003F934F935F936F937F938F939F93AF93F7
:1009B000BF93EF93FF93E091CA00F091CB000995AC
:1009C000FF91EF91BF91AF919F918F917F916F9127
:1009D0005F914F913F912F910F900FBE0F901F90FD
:1009E00018951F920F920FB60F9211242F933F93D9
:1009F0004F935F936F937F938F939F93AF93BF9327
:100A0000EF93FF93E091C800F091C9000995FF9121
:100A1000EF91BF91AF919F918F917F916F915F9176
:100A20004F913F912F910F900FBE0F901F901895EF
:100A30001F920F920FB60F9211242F933F934F9353
:100A40005F936F937F938F939F93AF93BF93EF9336
:100A5000FF93E091C600F091C7000995FF91EF91D7
:100A6000BF91AF919F918F917F916F915F914F91C6
:100A70003F912F910F900FBE0F901F9018955058D7
:100A8000BB27AA270E9457050C94A1060E94930633
:100A900038F00E949A0620F039F49F3F19F426F4AA
:100AA0000C9490060EF4E095E7FB0C948A06E92F6F
:100AB0000E94B20658F3BA176207730784079507B6
:100AC00020F079F4A6F50C94D4060EF4E0950B2EE4
:100AD000BA2FA02D0B01B90190010C01CA01A00190
:100AE0001124FF27591B99F0593F50F4503E68F1EB
:100AF0001A16F040A22F232F342F4427585FF3CF2C
:100B0000469537952795A795F0405395C9F77EF4FC
:100B10001F16BA0B620B730B840BBAF09150A1F045
:100B2000FF0FBB1F661F771F881FC2F70EC0BA0FCB
:100B3000621F731F841F48F4879577956795B79553
:100B4000F7959E3F08F0B0CF9395880F08F099274E
:100B5000EE0F9795879508950E94C0050C94A10605
:100B60000E949A0658F00E94930640F029F45F3FD5
:100B700029F00C948A0651110C94D5060C94900619
:100B80000E94B20668F39923B1F3552391F3951BA4
:100B9000550BBB27AA2762177307840738F09F5F9E
:100BA0005F4F220F331F441FAA1FA9F335D00E2E0B
:100BB0003AF0E0E832D091505040E695001CCAF778
:100BC0002BD0FE2F29D0660F771F881FBB1F26173B
:100BD00037074807AB07B0E809F0BB0B802DBF0112
:100BE000FF2793585F4F3AF09E3F510578F00C94E1
:100BF0008A060C94D5065F3FE4F3983ED4F38695BD
:100C000077956795B795F7959F5FC9F7880F911D01
:100C10009695879597F90895E1E0660F771F881FED
:100C2000BB1F621773078407BA0720F0621B730BA0
:100C3000840BBA0BEE1F88F7E09508950E94BA0660
:100C400088F09F5798F0B92F9927B751B0F0E1F08D
:100C5000660F771F881F991F1AF0BA95C9F714C03D
:100C6000B13091F00E94D406B1E008950C94D406FE
:100C7000672F782F8827B85F39F0B93FCCF3869576
:100C800077956795B395D9F73EF4909580957095D3
:100C900061957F4F8F4F9F4F0895E89409C097FB50
:100CA0003EF490958095709561957F4F8F4F9F4F43
:100CB0009923A9F0F92F96E9BB279395F695879587
:100CC00077956795B795F111F8CFFAF4BB0F11F44A
:100CD00060FF1BC06F5F7F4F8F4F9F4F16C08823F1
:100CE00011F096E911C0772321F09EE8872F762F27
:100CF00005C0662371F096E8862F70E060E02AF068
:100D00009A95660F771F881FDAF7880F9695879553
:100D100097F9089597F99F6780E870E060E008957B
:100D20009FEF80EC089500240A9416161706180603
:100D30000906089500240A941216130614060506DF
:100D40000895092E0394000C11F4882352F0BB0F70
:100D500040F4BF2B11F460FF04C06F5F7F4F8F4FD3
:100D60009F4F089557FD9058440F551F59F05F3F0E
:100D700071F04795880F97FB991F61F09F3F79F0BD
:100D800087950895121613061406551FF2CF46953F
:100D9000F1DF08C0161617061806991FF1CF8695C1
:100DA0007105610508940895E894BB2766277727A5
:100DB000CB0197F908950E94EE060C94A1060E94BB
:100DC000930638F00E949A0620F0952311F00C94B7
:100DD0008A060C94900611240C94D5060E94B20643
:100DE00070F3959FC1F3950F50E0551F629FF0017E
:100DF000729FBB27F00DB11D639FAA27F00DB11D97
:100E0000AA1F649F6627B00DA11D661F829F22271F
:100E1000B00DA11D621F739FB00DA11D621F839FA6
:100E2000A00D611D221F749F3327A00D611D231F7C
:100E3000849F600D211D822F762F6A2F11249F57CA
:100E400050409AF0F1F088234AF0EE0FFF1FBB1FCD
:100E5000661F771F881F91505040A9F79E3F51058C
:100E600080F00C948A060C94D5065F3FE4F3983E1C
:100E7000D4F3869577956795B795F795E7959F5F36
:100E8000C1F7FE2B880F911D9695879597F90895C8
:100E90004532510520F4423010F00C945307FB0109
:100EA0001082CB010895BB274A3031F4992322F4F4
:100EB000BDE2909581959F4F0C945F07BB27FB0186
:100EC0005527AA27880F991FAA1FA41710F0A41B43
:100ED00083955051B9F7A05DAA3308F0A95DA1939D
:100EE000009779F7B111B1931192CB010C94780767
:100EF000DC01FC01672F71917723E1F7329704C081
:100F00007C916D9370836291AE17BF07C8F308950B
:040F1000F894FFCF83
:100F14003300013300023300043300103300203364
:100F2400004031323334353637383939000239002C
:100F34000439000839001039002039004039008094
:100F4400000000004000002080C077656C636F6D76
:100F540065004B6579203D200054656D70203D206F
:020F640000008B
:00000001FF
