:100000000C9432000C9411050C9438050C945F0587
:100010000C944F000C944F000C944F000C944F0024
:100020000C944F000C944F000C944F000C944F0014
:100030000C944F000C944F000C944F000C944F0004
:100040000C944F000C944F000C944F000C944F00F4
:100050000C944F00D201D501D801DB01DE01E10192
:10006000E401E70111241FBECFE5D8E0DEBFCDBF1C
:1000700010E0A0E6B0E0E4E7F1E102C005900D92E7
:10008000A43FB107D9F721E0A4EFB0E001C01D9271
:10009000A032B207E1F70E94D8040C94B8080C947F
:1000A000000080E00EC04FE050E066EA70E080E6BD
:1000B00090E00E945D071092170185EB90E00E948E
:1000C0003A02882381F32FEF81EE94E021508040A3
:1000D0009040E1F700C0000008954FE050E068E074
:1000E00071E080E690E00E947A074FE050E068E01F
:1000F00071E080E690E00E945D0780E004C085EB3F
:1001000090E00E943A028823D1F3109217012FEF5A
:1001100081EE94E0215080409040E1F700C0000063
:1001200008954FE050E069EF70E080E690E00E94B3
:100130007A074FE050E069EF70E081E790E00E94BD
:10014000F506109217012FEF81EE94E021508040C8
:100150009040E1F700C000000895EF920F931F93C5
:1001600080E014C00F2EFFE0EF2EF02D08E810E025
:1001700022E040E050E060EA8FE790E00E94EF0567
:100180001092170185EB90E00E943A02882351F308
:100190002FEF81EE94E0215080409040E1F700C0C5
:1001A00000001F910F91EF900895EF920F931F930E
:1001B0004FE050E066EA70E080E690E00E945D0764
:1001C0004FE050E067E970E081E790E00E94F506BB
:1001D0000F2EFFE0EF2EF02D08E810E021E045E0C3
:1001E00050E06AEA8FE790E00E94EF0580E004C0EB
:1001F00085EB90E00E943A028823D1F31092170118
:100200002FEF81EE94E0215080409040E1F700C054
:1002100000001F910F91EF900895CF93DF93CDB71A
:10022000DEB72C970FB6F894DEBF0FBECDBFFE0130
:1002300031968CE0DF011D928A95E9F780E00CC0D1
:100240004CE0BE016F5F7F4F8AE090E00E94140493
:1002500085EB90E00E943A02882391F381E00E94AE
:100260003103AE014F5F5F4F61E081E00E94B60352
:1002700010921701BFEF23ED80E3B1502040804082
:10028000E1F700C000002C960FB6F894DEBF0FBE59
:10029000CDBFDF91CF910895CF93DF93CDB7DEB778
:1002A0002C970FB6F894DEBF0FBECDBF8CE0E5EE05
:1002B000F0E0DE01119601900D928A95E1F780E061
:1002C0000CC04CE0BE016F5F7F4F8AE090E00E945F
:1002D000760485EB90E00E943A02882391F3109215
:1002E00017012FEF81EE94E0215080409040E1F71C
:1002F00000C000002C960FB6F894DEBF0FBECDBF35
:10030000DF91CF91089585EB90E00E94F1010E946A
:10031000720384EF90E00E94DD040E940E0481E7E6
:1003200090E00E94930680E690E00E942407789473
:1003300008951092180106C085EB90E00E943A02E1
:1003400080931801809118018823B1F381E00E9405
:1003500031034091180161E081E00E9456032FEFC4
:1003600081EE94E0215080409040E1F700C0000011
:1003700088E191E00E94520880931701482F50E0D5
:1003800024E061E081E00E94C503E09117018E2F17
:1003900090E0FC013197E830F10510F5E65DFF4F84
:1003A0000C9422080E94510008950E949100089523
:1003B0000E94AD0008950E94D50008950E946D002E
:1003C00008950E940D0108950E944C0108952FEF99
:1003D00081EE94E0215080409040E1F700C00000A1
:1003E0000895FF920F931F93CF93DF938C0181E0C9
:1003F0008093F700F12C19C0CF2DD0E0CE01880FEB
:10040000991FC80FD91FC00FD11F8B858093F6008D
:1004100066EF70E089859A850E94860541E06B85CC
:1004200089859A850E94A105F39482E08F1520F7B3
:10043000E6EFF0E0118281E08283C0E013C0EC2F90
:10044000F0E0CF01880F991FE80FF91FE00FF11FAF
:1004500082818093F60066EF70E0808191810E9436
:100460008605CF5FC33058F3DF91CF911F910F9175
:10047000FF900895CF92DF92EF92FF920F931F9318
:10048000CF93DF938C01C12C4BC0CC2DD0E0FE016B
:10049000EE0FFF1FEC0FFD1FE00FF11F40E0638523
:1004A000818592850E94A105D12C29C0ED2CF12CCB
:1004B000F701EE0FFF1FEE0DFF1DE00FF11F628130
:1004C000808191810E949905811118C0FE01EE0F73
:1004D000FF1FEC0FFD1FE00FF11F41E063858185D9
:1004E00092850E94A105C701880F991F8E0D9F1D3F
:1004F00089539F4FC80FD91F888117C0D39482E0BA
:100500008D15A0F6CE01880F991FC80FD91FC00FF7
:10051000D11F41E06B8589859A850E94A105C3940E
:1005200082E08C1508F0B1CF80E0DF91CF911F9170
:100530000F91FF90EF90DF90CF900895CF93DF93CE
:10054000C0EDD0E041E068858E819F810E94A105C9
:1005500085E08A95F1F7000040E068858E819F81F3
:100560000E94A1058FE39FE10197F1F700C0000011
:10057000DF91CF9108950F931F93CF93C82F83E0FE
:1005800090E023C08C010F5F1F4F41E050E0002E30
:1005900002C0440F551F0A94E2F72C2F30E042238B
:1005A0005323002E02C0559547950A94E2F7FC01AB
:1005B000EE0FFF1F8E0F9F1FFC01E053FF4F628164
:1005C000808191810E94A105C80187309105D4F2F4
:1005D0000E949E0203E010E021C0C801039741E0A1
:1005E00050E0082E02C0440F551F0A94E2F72C2F4A
:1005F00030E04223532302C0559547958A95E2F790
:10060000F801EE0FFF1FE00FF11FE053FF4F628173
:10061000808191810E94A1050F5F1F4F0730110556
:10062000E4F20E949E02CF911F910F9108951F93B3
:10063000CF93DF93182FC0EDD0E041E06A8188812D
:1006400099810E94A10540E06D818B819C810E946F
:10065000A105812F0E94BB0280E0DF91CF911F9105
:1006600008951F93CF93DF93182FC0EDD0E040E0A3
:100670006A81888199810E94A10540E06D818B810A
:100680009C810E94A105812F0E94BB0280E0DF9126
:10069000CF911F910895E82FF0E0E051FF4F808146
:1006A000860F81500E94310380E008951F93CF93FD
:1006B000DF93142F0E944B03C0EDD0E041E06A812C
:1006C000888199810E94A10540E06D818B819C8188
:1006D0000E94A105812F0E94BB0280E0DF91CF9193
:1006E0001F9108950F931F93CF93DF9300D01F9214
:1006F000CDB7DEB72FEF89EF90E0215080409040DA
:10070000E1F700C0000081E08A831B8200E010E076
:1007100012C0F801EE0FFF1FE00FF11FE053FF4F73
:1007200082818983BE016F5F7F4F808191810E94AA
:1007300086050F5F1F4F073011055CF383E30E94AE
:10074000310382E30E94310388E20E9431038CE08E
:100750000E94310381E00E94310380E00F900F90EE
:100760000F90DF91CF911F910F910895CF93DF9359
:10077000EA010E944B0303C021960E94170388815F
:100780008111FACFDF91CF9108958F929F92AF920E
:10079000BF92CF92DF92EF92FF920F931F93CF936E
:1007A000DF93CDB7DEB7982E862ECA01ADB6BEB6A2
:1007B000E22EF12C2DB73EB72E193F090FB6F89453
:1007C0003EBF0FBE2DBF2F5F3F4F69014AE050E093
:1007D000B9010E94700800E010E005C080E20E94AC
:1007E00017030F5F1F4F0E151F05C0F3A601682DDD
:1007F000892D0E94B60380E00FB6F894BEBE0FBEEE
:10080000ADBEDF91CF911F910F91FF90EF90DF90E0
:10081000CF90BF90AF909F908F9008958FE790E01A
:100820000E94AE0580E008958F929F92AF92BF9292
:10083000CF92DF92EF920F931F93CF9361157105C3
:1008400009F446C0442309F445C0C42F6B01AC0130
:100850005C01AA0CAB2CAA1CBB08B1944C01E89417
:1008600087F89924C4018C0F911D8138910530F1CE
:1008700080E8E82EE8188B0122E060EA8FE790E03C
:100880000E94320600E810E0081919098C2F880D23
:100890006894EE24E7F8E80E0C0D1D1DA5014F5FCE
:1008A0005F4F5695542F44275795479522E060EAAD
:1008B0008FE790E00E94320680E00DC0EC2E8B01A5
:1008C00022E060EA8FE790E00E94320680E003C0F9
:1008D00081E001C081E0CF911F910F91EF90DF90F7
:1008E000CF90BF90AF909F908F9008958F929F92DE
:1008F000AF92BF92CF92DF92EF920F931F93CF935D
:100900006115710509F446C0442309F445C0C42F9C
:100910006B01AC015C01AA0CAB2CAA1CBB08B19406
:100920004C01E89487F89924C4018C0F911D8138FB
:10093000910530F180E8E82EE8188B0122E060EAAA
:100940008FE790E00E94EF0500E810E00819190910
:100950008C2F880D6894EE24E7F8E80E0C0D1D1D11
:10096000A5014F5F5F4F5695542F442757954795E4
:1009700022E060EA8FE790E00E94EF0580E00DC082
:10098000EC2E8B0122E060EA8FE790E00E94EF05F9
:1009900080E003C081E001C081E0CF911F910F9101
:1009A000EF90DF90CF90BF90AF909F908F90089581
:1009B0000E9483010E949901FDCFFC018081823059
:1009C00071F48181823021F484B78F7B84BF03C0AE
:1009D00084B7806484BF8BB780628BBF20C085B72B
:1009E000807F85BF8081811108C095B78181892B67
:1009F00085BF8BB780648BBF12C045B7218190E063
:100A0000880F991F30E0B90102C0660F771F8A95E1
:100A1000E2F7CB01842B85BF8BB780688BBF7894BE
:100A200008951F920F920FB60F9211242F933F93A8
:100A30004F935F936F937F938F939F93AF93BF93E6
:100A4000EF93FF93E0911A01F0911B010995FF913B
:100A5000EF91BF91AF919F918F917F916F915F9136
:100A60004F913F912F910F900FBE0F901F901895AF
:100A70001F920F920FB60F9211242F933F934F9313
:100A80005F936F937F938F939F93AF93BF93EF93F6
:100A9000FF93E0911E01F0911F010995FF91EF91E5
:100AA000BF91AF919F918F917F916F915F914F9186
:100AB0003F912F910F900FBE0F901F9018951F928E
:100AC0000F920FB60F9211242F933F934F935F9382
:100AD0006F937F938F939F93AF93BF93EF93FF9306
:100AE000E0911C01F0911D010995FF91EF91BF91DB
:100AF000AF919F918F917F916F915F914F913F91B6
:100B00002F910F900FBE0F901F901895FC01DB01E5
:100B100011968C911197813029F48C919181892BB8
:100B200081830895DB019C91909581819823918325
:100B30000895FC018081682311F081E0089580E030
:100B40000895442329F0FC012281622B62830895D9
:100B50006095FC0122816223628308958F929F92A7
:100B6000AF92BF92CF92DF92EF92FF920F93CF930B
:100B7000DF93EC01288139814A815B8160E074E276
:100B800084EF90E00E94000849015A01392D4A2D56
:100B90005B2D60E070E080E090E0A0EF0E944608EE
:100BA00001E00E942A0820B98C8182B916BE11B8D2
:100BB0008D81813029F4789486B7816086BF03C027
:100BC00086B78E7F86BFDF91CF910F91FF90EF9018
:100BD000DF90CF90BF90AF909F908F900895EF924D
:100BE0000F931F93DC0117961C930E93169718967C
:100BF000EC92189784EA86BF06B607FEFDCF63B96C
:100C000084E886BF06B607FEFDCF223031F453B923
:100C100084E886BF06B607FEFDCF43B984E886BFE9
:100C200006B607FEFDCF13C01696ED91FC911797FF
:100C30009F012F5F3F4F17963C932E9316979081FD
:100C400093B994E896BF06B607FEFDCFE82E8FEF66
:100C50008E0DE110E9CF84E986BF80E01F910F91EE
:100C6000EF900895EF920F931F93DC019E2D17963E
:100C70001C930E9316971896EC92189784EA86BFE9
:100C800006B607FEFDCF63B984E886BF06B607FE49
:100C9000FDCF223031F453B984E886BF06B607FE93
:100CA000FDCF43B984E886BF06B607FEFDCF84EAD0
:100CB00086BF06B607FEFDCF616063B984E886BFD4
:100CC00006B607FEFDCF13C094EC96BF06B607FE2E
:100CD000FDCF1696ED91FC9117979F012F5F3F4F27
:100CE00017963C932E93169793B19083982F8FEF7E
:100CF000890F923048F784E886BF06B607FEFDCF1D
:100D00001696ED91FC911797CF01019617969C933B
:100D10008E93169783B1808384E986BF80E01F910C
:100D20000F91EF9008950F931F93CF93DF9300D00F
:100D30001F92CDB7DEB78C01FC018381882344F478
:100D40009DB18370892B8DB98EB181608EB904C03D
:100D50009DB18370892B8DB9F801808184FF16C005
:100D600081E08A8380EB8983BE016F5F7F4F86E3DA
:100D700090E00E9486051A8280E48983BE016F5F3D
:100D80007F4F86E390E00E94860515C01A8280EBB3
:100D90008983BE016F5F7F4F86E390E00E948605E6
:100DA00081E08A8380E48983BE016F5F7F4F86E3A1
:100DB00090E00E948605F80142818181348125817D
:100DC0009081842B832B822B892B8DB98DB18064EC
:100DD0008DB98581803809F478940F900F900F9029
:100DE000DF91CF911F910F910895CF93DF93EC0185
:100DF000198618861D861C867F836E835B874A87CB
:100E000040E060E186E390E00E94A1050BC0EE8126
:100E1000FF8180818FB9779BFECF8E819F81019664
:100E20009F838E838A859B859C01215031093B8756
:100E30002A87892B61F741E060E186E390E00E9418
:100E4000A105DF91CF910895FC011AB880E880BD1B
:100E50009AB18781892B8AB920B594818581967052
:100E6000982B922B906890BD80819181A281B38153
:100E7000880F991FAA1FBB1F880F991FAA1FBB1F8E
:100E80009C01AD01220F331F441F551F220F331F3A
:100E9000441F551F60E074E284EF90E00E94000858
:100EA0002150310929B9832F8F7080BD81B38260B1
:100EB00081BB81B38E7F81BB0895FC017187608700
:100EC0005587448720E030E00FC05D9BFECF8481D2
:100ED000863119F48AB181608AB9DB01A20FB31F90
:100EE0008C918CB92F5F3F4F8485958528173907E2
:100EF00060F30895CF93DF93FC0111861086158669
:100F00001486738762875787468720E030E05F9BAF
:100F1000FECF9CB1668577856217730708F455C0CC
:100F200084818631B1F5A285B385E901CC0FDD1F3F
:100F3000AC0FBD1F6AB1627070E07695762F6627A0
:100F4000779567956D937C93A285B385AC0FBD1F94
:100F50006D917C911197692B6D937C939D3019F065
:100F60009A3009F047C0868597852817390738F4E5
:100F700082859385C80FD91F198218823EC00284CA
:100F8000F385E02D440F551FE40FF51F11821082E9
:100F900034C0A285B385A20FB31F9C939D3011F07E
:100FA0009A3041F5868597852817390738F4828568
:100FB0009385FC01E20FF31F10821FC08285938589
:100FC000FC01E40FF51F108218C09D3011F09A301B
:100FD00089F42617370738F482859385FC01E20FE0
:100FE000F31F10820AC082859385FC01E40FF51F70
:100FF000108203C02F5F3F4F8ACFDF91CF910895BA
:10100000A1E21A2EAA1BBB1BFD010DC0AA1FBB1F0C
:10101000EE1FFF1FA217B307E407F50720F0A21B7E
:10102000B30BE40BF50B661F771F881F991F1A94EB
:1010300069F760957095809590959B01AC01BD0115
:10104000CF010895EE0FFF1F0590F491E02D099454
:1010500097FB10F8169400080F93083098F008508A
:10106000232F342F452F562F672F782F892F902D20
:10107000F4CF0594979587957795679557954795FC
:10108000379527950A95AAF70F9108950024A7FD93
:1010900000942A0F301D401D501D601D701D801DC5
:1010A000901D0895FC0188279927E894219120320A
:1010B000E9F3293010F02E30C8F32B3241F02D32F5
:1010C00039F4689404C00E948608820F911D219112
:1010D00020532A30C0F31EF4909581959F4F0895B8
:1010E0004532510520F4423010F00C947B08FB018E
:1010F0001082CB010895BB274A3031F4992322F4A2
:10110000BDE2909581959F4F0C948F087AE0979F50
:10111000902D879F802D910D11240895BB27FB01F1
:101120005527AA27880F991FAA1FA41710F0A41BE0
:1011300083955051B9F7A05DAA3308F0A95DA1933A
:10114000009779F7B111B1931192CB010C94A808D3
:10115000DC01FC01672F71917723E1F7329704C01E
:101160007C916D9370836291AE17BF07C8F30895A9
:04117000F894FFCF21
:101174008025000006000018A60008010F000F00DB
:10118400001000000300009700F9000F000F00A0FA
:10119400860100AA0288000F77656C636F6D654D48
:1011A4004355310A00000077656C636F6D654D43EC
:1011B40055310A00000077656C636F6D654D4355CA
:1011C400310A0000003300043300083300103300F8
:1011D40020330040330080313233343536373839E8
:1011E4003900023900043900083900103900203967
:1011F40000403900804849202C2054484945522059
:041204000080C000A6
:00000001FF
