:100000000C9432000C94A3040C94CA040C94F104D4
:100010000C944F000C944F000C944F000C944F0024
:100020000C944F000C944F000C944F000C944F0014
:100030000C944F000C944F000C944F000C944F0004
:100040000C944F000C944F000C944F000C944F00F4
:100050000C944F00AA01AD01B001B301B601B90182
:10006000BC01BF0111241FBECFE5D8E0DEBFCDBF6C
:1000700010E0A0E6B0E0E2EEFFE002C005900D92D5
:10008000A03FB107D9F721E0A0EFB0E001C01D9279
:10009000AC31B207E1F70E946A040C94EF070C94AC
:1000A000000080E00EC04FE050E066EA70E080E6BD
:1000B00090E00E94DA061092130185EB90E00E9416
:1000C0001602882381F32FEF81EE94E021508040C7
:1000D0009040E1F700C00000089580E014C04FE0B8
:1000E00050E064E071E080E690E00E94FB064FE0A3
:1000F00050E064E071E080E690E00E94DA0685EB73
:1001000090E00E941602882351F3109213012FEF02
:1001100081EE94E0215080409040E1F700C0000063
:1001200008954FE050E065EF70E080E690E00E94B7
:10013000FB064FE050E065EF70E081E790E00E9441
:100140007206109213012FEF81EE94E0215080404F
:100150009040E1F700C000000895EF920F931F93C5
:1001600080E014C00F2EFFE0EF2EF02D08E810E025
:1001700021E045E050E06AEA8FE790E00E948105C7
:100180001092130185EB90E00E941602882351F330
:100190002FEF81EE94E0215080409040E1F700C0C5
:1001A00000001F910F91EF900895EF920F931F930E
:1001B00080E022C04FE050E066EA70E080E690E028
:1001C0000E94DA064FE050E067E970E081E790E0D6
:1001D0000E9472060F2EFFE0EF2EF02D08E810E0CF
:1001E00021E045E050E06AEA8FE790E00E94810557
:1001F00085EB90E00E9416028823E1F21092130131
:100200002FEF81EE94E0215080409040E1F700C054
:1002100000001F910F91EF900895CF93DF9300D0CE
:10022000CDB7DEB71A82198280E00CC022E0AE01A1
:100230004F5F5F4F6AE08AE00E94F00385EB90E039
:100240000E941602882391F3109213012FEF81EE82
:1002500094E0215080409040E1F700C000000F90F2
:100260000F90DF91CF910895CF93DF9300D01F922D
:10027000CDB7DEB781E498E49A8389831B8280E05E
:100280000CC022E0AE014F5F5F4F6AE08AE00E943F
:10029000150485EB90E00E941602882391F31092DA
:1002A00013012FEF81EE94E0215080409040E1F760
:1002B00000C000000F900F900F90DF91CF91089534
:1002C00085EB90E00E94CD010E944E0380EF90E00C
:1002D0000E946F040E94EA0381E790E00E941006EA
:1002E00080E690E00E94A10678940895109214018F
:1002F00006C085EB90E00E941602809314014091A5
:1003000014014423B1F361E081E00E9432032FEF36
:1003100081EE94E0215080409040E1F700C0000061
:1003200084E191E00E94890780931301482F50E0F7
:1003300024E061E081E00E94A103E09113018E2F8F
:1003400090E0FC013197E830F10530F5E65DFF4FB4
:100350000C9459070E94510008950E94910008953D
:100360000E94AD0008950E94D50008950E946D007E
:1003700008950E940D0108950E94340108950E947D
:100380003A04109213012FEF81EE94E02150804047
:100390009040E1F700C000000895FF920F931F9373
:1003A000CF93DF938C0181E08093F300F12C19C08F
:1003B000CF2DD0E0CE01880F991FC80FD91FC00FD5
:1003C000D11F8B858093F20062EF70E089859A855A
:1003D0000E94180541E06B8589859A850E94330546
:1003E000F39482E08F1520F7E2EFF0E0118281E0D4
:1003F0008283C0E013C0EC2FF0E0CF01880F991F7B
:10040000E80FF91FE00FF11F82818093F20062EF85
:1004100070E0808191810E941805CF5FC33058F34E
:10042000DF91CF911F910F91FF900895CF92DF92AE
:10043000EF92FF920F931F93CF93DF938C01C12C08
:100440004BC0CC2DD0E0FE01EE0FFF1FEC0FFD1FC7
:10045000E00FF11F40E06385818592850E9433059E
:10046000D12C29C0ED2CF12CF701EE0FFF1FEE0D62
:10047000FF1DE00FF11F6281808191810E942B0599
:10048000811118C0FE01EE0FFF1FEC0FFD1FE00FE2
:10049000F11F41E06385818592850E943305C70184
:1004A000880F991F8E0D9F1D89539F4FC80FD91F0D
:1004B000888117C0D39482E08D15A0F6CE01880FF5
:1004C000991FC80FD91FC00FD11F41E06B858985C7
:1004D0009A850E943305C39482E08C1508F0B1CF51
:1004E00080E0DF91CF911F910F91FF90EF90DF900F
:1004F000CF900895CF93DF93C0EDD0E041E06885C1
:100500008E819F810E94330585E08A95F1F7000076
:1005100040E068858E819F810E9433058FE39FE1D3
:100520000197F1F700C00000DF91CF9108950F937C
:100530001F93CF93C82F83E090E023C08C010F5FFF
:100540001F4F41E050E0002E02C0440F551F0A9497
:10055000E2F72C2F30E042235323002E02C05595A2
:1005600047950A94E2F7FC01EE0FFF1F8E0F9F1FC5
:10057000FC01E053FF4F6281808191810E9433052D
:10058000C80187309105D4F20E947A0203E010E09E
:1005900021C0C801039741E050E0082E02C0440F7B
:1005A000551F0A94E2F72C2F30E04223532302C058
:1005B000559547958A95E2F7F801EE0FFF1FE00F7A
:1005C000F11FE053FF4F6281808191810E943305CA
:1005D0000F5F1F4F07301105E4F20E947A02CF919E
:1005E0001F910F9108951F93CF93DF93182FC0EDA4
:1005F000D0E041E06A81888199810E94330540E022
:100600006D818B819C810E943305812F0E9497020E
:1006100080E0DF91CF911F9108951F93CF93DF93D7
:10062000182FC0EDD0E040E06A81888199810E9456
:10063000330540E06D818B819C810E943305812FC1
:100640000E94970280E0DF91CF911F910895E82FDB
:10065000F0E0E351FF4F8081860F81500E940D032F
:1006600080E008951F93CF93DF93142F0E942703F8
:10067000C0EDD0E041E06A81888199810E94330514
:1006800040E06D818B819C810E943305812F0E9407
:10069000970280E0DF91CF911F9108950F931F93F0
:1006A000CF93DF9300D01F92CDB7DEB72FEF89EF46
:1006B00090E0215080409040E1F700C0000081E0D0
:1006C0008A831B8200E010E012C0F801EE0FFF1FCA
:1006D000E00FF11FE053FF4F82818983BE016F5FFE
:1006E0007F4F808191810E9418050F5F1F4F073057
:1006F00011055CF383E30E940D0382E30E940D0366
:1007000088E20E940D038CE00E940D0381E00E94AC
:100710000D0380E00F900F900F90DF91CF911F910C
:100720000F910895CF93DF93EA010E94270303C03E
:1007300021960E94F30288818111FACFDF91CF9137
:1007400008958F929F92AF92BF92CF92DF92EF92D5
:10075000FF920F931F93CF93DF93CDB7DEB7982E01
:10076000862ECA01ADB6BEB6E22EF12C2DB73EB72D
:100770002E193F090FB6F8943EBF0FBE2DBF2F5F55
:100780003F4F69014AE050E0B9010E94A70700E02D
:1007900010E005C080E20E94F3020F5F1F4F0E15AC
:1007A0001F05C0F3A601682D892D0E94920380E0E9
:1007B0000FB6F894BEBE0FBEADBEDF91CF911F91B4
:1007C0000F91FF90EF90DF90CF90BF90AF909F90F0
:1007D0008F90089585EE90E00E94400580E0089596
:1007E000EF920F931F9341155105C1F02223C1F0E1
:1007F000E22E8A0190E0019770E061507109869FB6
:10080000A001879F500D969F500D112422E060EAB1
:1008100085EE90E00E94BC0580E003C081E001C04D
:1008200081E01F910F91EF900895EF920F931F9326
:1008300041155105C1F02223C1F0E22E8A0190E05A
:10084000019770E061507109869FA001879F500D4C
:10085000969F500D112422E060EA85EE90E00E9400
:10086000810580E003C081E001C081E01F910F910C
:10087000EF900895CF9383E084BB41E062E083E38F
:1008800090E00E94330541E061E083E390E00E9444
:100890003305C0E015C041E061E083E390E00E94D1
:1008A00033058AE18A95F1F700C040E061E083E317
:1008B00090E00E9433058AE18A95F1F700C0CF5F8E
:1008C000C93048F384EA86BF14BA84E986BF80E061
:1008D000CF9108950E9460010E947601FDCFFC0136
:1008E0008081823071F48181823021F484B78F7BE2
:1008F00084BF03C084B7806484BF8BB780628BBF22
:1009000020C085B7807F85BF8081811108C095B7E1
:100910008181892B85BF8BB780648BBF12C045B79F
:10092000218190E0880F991F30E0B90102C0660F65
:10093000771F8A95E2F7CB01842B85BF8BB7806840
:100940008BBF789408951F920F920FB60F921124C7
:100950002F933F934F935F936F937F938F939F93C7
:10096000AF93BF93EF93FF93E0911601F0911701BE
:100970000995FF91EF91BF91AF919F918F917F91D9
:100980006F915F914F913F912F910F900FBE0F90FC
:100990001F9018951F920F920FB60F9211242F934C
:1009A0003F934F935F936F937F938F939F93AF93F7
:1009B000BF93EF93FF93E0911A01F0911B0109950A
:1009C000FF91EF91BF91AF919F918F917F916F9127
:1009D0005F914F913F912F910F900FBE0F901F90FD
:1009E00018951F920F920FB60F9211242F933F93D9
:1009F0004F935F936F937F938F939F93AF93BF9327
:100A0000EF93FF93E0911801F09119010995FF917F
:100A1000EF91BF91AF919F918F917F916F915F9176
:100A20004F913F912F910F900FBE0F901F901895EF
:100A3000FC01DB0111968C911197813029F48C9186
:100A40009181892B81830895DB019C91909581810F
:100A5000982391830895FC018081682311F081E03F
:100A6000089580E00895442329F0FC012281622B3F
:100A7000628308956095FC01228162236283089558
:100A80008F929F92AF92BF92CF92DF92EF92FF929E
:100A90000F93CF93DF93EC01288139814A815B81E9
:100AA00060E074E284EF90E00E94370749015A0148
:100AB000392D4A2D5B2D60E070E080E090E0A0EFE2
:100AC0000E947D0701E00E94610720B98C8182B9F4
:100AD00016BE11B88D81813029F4789486B7816073
:100AE00086BF03C086B78E7F86BFDF91CF910F91FF
:100AF000FF90EF90DF90CF90BF90AF909F908F903E
:100B00000895EF920F931F93FC0117830683E086ED
:100B100084EA86BF06B607FEFDCF63B984E886BFC8
:100B200006B607FEFDCF43B984E886BF06B607FECA
:100B3000FDCF2230A1F453B984E886BF06B607FE84
:100B4000FDCF0DC0A681B781CD0101969783868325
:100B50008C9183B984E886BF06B607FEFDCF8085F9
:100B60009FEF980F90878111EDCF84E986BF80E0D9
:100B70001F910F91EF900895EF920F931F93FC0137
:100B800017830683E08684EA86BF06B607FEFDCF9C
:100B900063B984E886BF06B607FEFDCF43B984E893
:100BA00086BF06B607FEFDCF223031F453B984E884
:100BB00086BF06B607FEFDCF84EA86BF06B607FEEF
:100BC000FDCF616063B984E886BF06B607FEFDCF3E
:100BD0000DC0A681B781CD0101969783868383B12D
:100BE0008C9384EC86BF06B607FEFDCF80859FEF11
:100BF000980F9087823068F7A681B781CD01019662
:100C00009783868383B18C9384E886BF06B607FEFC
:100C1000FDCF84E986BF80E01F910F91EF9008958A
:100C20000F931F93CF93DF9300D01F92CDB7DEB702
:100C30008C01FC018381882344F49DB18370892B4E
:100C40008DB98EB181608EB904C09DB18370892B3E
:100C50008DB9F801808184FF16C081E08A8380EB22
:100C60008983BE016F5F7F4F86E390E00E94180585
:100C70001A8280E48983BE016F5F7F4F86E390E034
:100C80000E94180515C01A8280EB8983BE016F5F30
:100C90007F4F86E390E00E94180581E08A8380E41C
:100CA0008983BE016F5F7F4F86E390E00E94180545
:100CB000F80142818181348125819081842B832BAD
:100CC000822B892B8DB98DB180648DB98581803857
:100CD00009F478940F900F900F90DF91CF911F91AE
:100CE0000F910895CF93DF93EC01198618861D8626
:100CF0001C867F836E835B874A8740E060E186E3E2
:100D000090E00E9433050BC0EE81FF8180818FB996
:100D1000779BFECF8E819F8101969F838E838A85EC
:100D20009B859C01215031093B872A87892B61F7DC
:100D300041E060E186E390E00E943305DF91CF91CE
:100D40000895FC011AB880E880BD9AB18781892B8B
:100D50008AB920B5948185819670982B922B9068E2
:100D600090BD80819181A281B381880F991FAA1FB4
:100D7000BB1F880F991FAA1FBB1F9C01AD01220F2B
:100D8000331F441F551F220F331F441F551F60E0A0
:100D900074E284EF90E00E9437072150310929B9AD
:100DA000832F8F7080BD81B3826081BB81B38E7FC2
:100DB00081BB0895FC0113861286178616867187FB
:100DC00060875587448720E030E00FC05D9BFECFF1
:100DD0008481863119F48AB181608AB9DB01A20F5E
:100DE000B31F8C918CB92F5F3F4F84859585281751
:100DF000390760F30895FC01118610861586148664
:100E0000738762875787468720E030E02AC05F9B60
:100E1000FECF84818631E9F4A285B385A901440F10
:100E2000551FA40FB51F8AB1827090E09695982F38
:100E30008827979587958D939C936CB1A285B385F0
:100E4000A40FB51F8D919C911197862B8D939C9328
:100E500006C0A285B385A20FB31F8CB18C932F5F00
:100E60003F4F868597852817390788F20895A1E2B4
:100E70001A2EAA1BBB1BFD010DC0AA1FBB1FEE1F14
:100E8000FF1FA217B307E407F50720F0A21BB30B5F
:100E9000E40BF50B661F771F881F991F1A9469F7DB
:100EA00060957095809590959B01AC01BD01CF0137
:100EB0000895EE0FFF1F0590F491E02D099497FB24
:100EC00010F8169400080F93083098F00850232F5C
:100ED000342F452F562F672F782F892F902DF4CF41
:100EE0000594979587957795679557954795379585
:100EF00027950A95AAF70F9108950024A7FD00945D
:100F00002A0F301D401D501D601D701D801D901D3D
:100F10000895FC0188279927E89421912032E9F36C
:100F2000293010F02E30C8F32B3241F02D3239F435
:100F3000689404C00E94BD07820F911D2191205327
:100F40002A30C0F31EF4909581959F4F0895453245
:100F5000510520F4423010F00C94B207FB011082CE
:100F6000CB010895BB274A3031F4992322F4BDE226
:100F7000909581959F4F0C94C6077AE0979F902D8E
:100F8000879F802D910D11240895BB27FB015527C4
:100F9000AA27880F991FAA1FA41710F0A41B8395D6
:100FA0005051B9F7A05DAA3308F0A95DA19300974D
:100FB00079F7B111B1931192CB010C94DF07DC01E9
:100FC000FC01672F71917723E1F7329704C07C9180
:100FD0006D9370836291AE17BF07C8F30895F894BC
:020FE000FFCF41
:100FE2008025000006000018A60004010F000F0073
:100FF200001000000300009700F5000F000F00A092
:10100200860100AA0288000F77656C636F6D654DDB
:101012004355310A00000077656C636F6D654D437F
:1010220055310A00000077656C636F6D654D43555D
:10103200310A00000033000433000833001033008B
:10104200203300403300803132333435363738397B
:1010520039000239000439000839001039002039FA
:101062000040390080A0860100AA0200000080C072
:00000001FF
