:100000000C944C190C94C72D0C94EE2D0C94152EB9
:100010000C9469190C9469190C9469190C94691958
:100020000C9469190C946D1B0C9444320C9469194E
:100030000C9469190C9469190C9469190C94691938
:100040000C94772E0C9469190C9469190C94691905
:100050000C94691960226322662269226C229D2217
:10006000E322E622200A002A2A2A2A2A2A2A2A2ADF
:100070002A2A2A2A2A2A2A2A2A2A2A2A2A2A2A2AE0
:100080002A2A2A2A2A2A2A2A2A2A2A2A2A2A2A2AD0
:100090002A2A2A2A2A2A2A2A2A2A2A0A002A2A2A0A
:1000A0002A2A2A2A2A2A2A2A2A2A2A2A2A2A2A2AB0
:1000B0002A2A2A2A2A2077656C636F6D65202A2AEE
:1000C0002A2A2A2A2A2A2A2A2A2A2A2A2A2A2A2A90
:1000D0002A0A002A2A2A2A2A2A2A2A2A2A2A2A2ACA
:1000E0002A2A2A2A2A2A2A2A2A2A2A2A2A2A2A2A70
:1000F0002A2A2A2A2A2A2A2A2A2A2A2A2A2A2A2A60
:100100002A2A2A2A2A2A2A0A00200A002A2A2A2AED
:100110002A2A2A2A2A2A2A2A2A2A2A2A2A2A2A2A3F
:100120002A2A2A2A2A2A2A2A2A2A2A2A2A2A2A2A2F
:100130002A2A2A2A2A2A2A2A2A2A2A2A2A2A2A2A1F
:100140000A00202A2A2A2A2A2A2A2A2A2A2A2A2A63
:100150002A2A2A0A002A2A2A2A2A2A2A2A2A2A2A49
:100160002A2A2A2A2A2A2A202000202A2A2A2A2A37
:100170002A2A2A2A2A2A2A2A2A2A2A2A2A0A002A29
:100180002A2A2A2A2A2A2A2A2A2A2A2A2A2A2A2ACF
:100190002020002A2A2A2A2A2A2A2A2A2A2A2A2AFD
:1001A0002A2A2A2A2A2A2A2A2A2A2A2A2A2A2A2AAF
:1001B0002A2A2A2A2A2A2A2A2A2A2A2A2A2A2A2A9F
:1001C0002A2A2A2A2A2A2A0A00200A002A2A2A2A2D
:1001D0002A2A2A2A2A2A2A2A2A2A2A2A2A2A2A2A7F
:1001E0002A2A2A2A2A2A2A2A2A2A2A2A2A2A2A2A6F
:1001F0002A2A2A2A2A2A2A2A2A2A2A2A2A2A2A2A5F
:100200000A002A2A2A2A2A2A2A2A2A2A20537769ED
:10021000746368696E6720746F204F504552415473
:10022000494F4E206D6F6465202A2A2A2A2A2A2ADD
:100230002A2A2A2A2A2A0A002A2A2A2A2A2A2A2A68
:100240002A2A2A2A2A2A2A2A2A2A2A2A2A2A2A2A0E
:100250002A2A2A2A2A2A2A2A2A2A2A2A2A2A2A2AFE
:100260002A2A2A2A2A2A2A2A2A2A2A2A0A00200A62
:10027000002A2A2A2A2A2A2A2A2A2A2A2A2A2A2A08
:100280002A2A2A2A2A2A2A2A2A2A2A2A2A2A2A2ACE
:100290002A2A2A2A2A2A2A2A2A2A2A2A2A2A2A2ABE
:1002A0002A2A2A2A2A0A002A2A2A2A2A2A2A2A2002
:1002B000537769746368696E6720746F2070726F1A
:1002C0006772616D6D696E67206D6F646520202AAD
:1002D0002A2A2A2A2A2A2A2A2A2A0A002A2A2A2AC8
:1002E0002A2A2A2A2A2A2A2A2A2A2A2A2A2A2A2A6E
:1002F0002A2A2A2A2A2A2A2A2A2A2A2A2A2A2A2A5E
:100300002A2A2A2A2A2A2A2A2A2A2A2A2A2A2A2A4D
:100310000A00200A002A2A2A2A2A2A2A2A2A2A2ADB
:100320002A2A2A2A2A2A2A2A2A2A2A2A2A2A2A2A2D
:100330002A2A2A2A2A2A2A2A2A2A2A2A2A2A2A2A1D
:100340002A2A2A2A2A2A2A2A2A0A002A2A2A2A2A57
:100350002A2A2A2A2A2A2A2A2A2A2A2A2057726F4D
:100360006E672050617373776F72642021212120A2
:100370002A2A2A2A2A2A2A2A2A2A2A2A2A2A2A0AFD
:10038000002A2A2A2A2A2A2A2A2A2A2A2A2A2A2AF7
:100390002A2A2A2A2A2A2A2A2A2A2A2A2A2A2A2ABD
:1003A0002A2A2A2A2A2A2A2A2A2A2A2A2A2A2A2AAD
:1003B0002A2A2A2A2A0A00200A002A2A2A2A2A2A3B
:1003C0002A2A2A2A2A2A2A2A2A2A2A2A2A2A2A2A8D
:1003D0002A2A2A2A2A2A2A2A2A2A2A2A2A2A2A2A7D
:1003E0002A2A2A2A2A2A2A2A2A2A2A2A2A2A0A00B7
:1003F0002A2A2A2A2A2A2A2A2A2A2A20456E746583
:100400007220596F75722050617373776F72642018
:100410003A20202A2A2A2A2A2A2A2A2A2A2A2A2A40
:100420002A2A2A2A0A002A2A2A2A2A2A2A2A2A2A76
:100430002A2A2A2A2A2A2A2A2A2A2A2A2A2A2A2A1C
:100440002A2A2A2A2A2A2A2A2A2A2A2A2A2A2A2A0C
:100450002A2A2A2A2A2A2A2A2A2A0A00200A002A9A
:100460002A2A2A2A2A2A2A2A2A2A2A2A2A2A2A2AEC
:100470002A2A2A2A2A2A2A2A2A2A2A2A2A2A2A2ADC
:100480002A2A2A2A2A2A2A2A2A2A2A2A2A2A2A2ACC
:100490002A2A2A0A002A2A2A2A2A2A2A2A2A2A2A06
:1004A0002A2A2A2A20506C656173652043616C6C8E
:1004B0002058585858202A2A2A2A2A2A2A2A2A2AF8
:1004C0002A2A2A2A2A2A2A2A2A0A002A2A2A2A2AD6
:1004D0002A2A2A2A2A2A2A2A2A2A20202020204C8C
:1004E0004F434B4544202020202020202A2A2A2A1E
:1004F0002A2A2A2A2A2A2A2A2A2A2A2A2A2A2A0A7C
:10050000002A2A2A2A2A2A2A2A2A2A2A2A2A2A2A75
:100510002A2A2A2A2A2A2A2A2A2A2A2A2A2A2A2A3B
:100520002A2A2A2A2A2A2A2A2A2A2A2A2A2A2A2A2B
:100530002A2A2A2A2A0A002A2A2A2A2A2A2A2A2A65
:100540002A2A2A2A2A2A2A2A2A2A2A2A2A2A2A2A0B
:100550002A2A2A2A2A2A2A2A2A2A2A2A2A2A2A2AFB
:100560002A2A2A2A2A2A2A2A2A2A2A0A00202A2A3F
:100570002A2A2A2A2A2A2A2A2A2A2A2A2A200A002F
:100580002A2A2A2A2A2A2A2A2A2A2A2A2A2A2A2ACB
:100590002A202000202A2A2A2A2A2A2A2A2A2A2A03
:1005A0002A2A2A2A0A002A2A2A2A2A2A2A2A2A2AF5
:1005B0002A2A2A2A2A2A2A2020002A2A2A2A2A2AD9
:1005C0002A2A2A2A2A2A2A2A2A2A2A2A2A2A2A2A8B
:1005D0002A2A2A2A2A2A2A2A2A2A2A2A2A2A2A2A7B
:1005E0002A2A2A2A2A2A2A2A2A2A2A2A2A2A0A00B5
:1005F000200A002A2A2A2A2A2A2A2A2A2A2A2A2AAF
:100600002A2A2A2A2A2A2A2A2A2A2A2A2A2A2A2A4A
:100610002A2A2A2A2A2A2A2A2A2A2A2A2A2A2A2A3A
:100620002A2A2A0A002A2A2A2A2A2A2A2A2A2A2A74
:100630002A2A2A2A2A2A2A20204E4F54205245416B
:100640004459202A2A2A2A2A2A2A2A2A2A2A2A2ACB
:100650002A2A2A2A2A0A002A2A2A2A2A2A2A2A2A44
:100660002A2A2A2A2A2A2A2A2A20202020434152BA
:1006700044202020202A2A2A2A2A2A2A2A2A2A2AE8
:100680002A2A2A2A2A2A2A0A002A2A2A2A2A2A2A14
:100690002A2A2A2A2A2A2A2A2A2A2A2A2A2A2A2ABA
:1006A0002A2A2A2A2A2A2A2A2A2A2A2A2A2A2A2AAA
:1006B0002A2A2A2A2A2A2A2A2A0A00200A002A2A38
:1006C0002A2A2A2A2A2A2A2A2A2A2A2A2A2A2A2A8A
:1006D0002A2A2A2A2A2A2A2A2A2A2A2A2A2A2A2A7A
:1006E0002A2A2A2A2A2A2A2A2A2A2A2A2A2A2A2A6A
:1006F0002A2A0A002A2A2A2A2A2A2A2A2A2A2A2AA4
:100700002A2A2A2A2A2A2A2A2A2A2A2A20546861B4
:100710006E6B20596F75202A2A2A2A2A2A2A2A2A09
:100720002A2A2A2A2A2A2A2A0A002A2A2A2A2A2A73
:100730002A2A2A2A2A2A2A2A2A2A2A2A2A2A2A2A19
:100740002A2A2A2A2A2A2A2A2A2A2A2A2A2A2A2A09
:100750002A2A2A2A2A2A2A2A2A2A2A2A2A2A0A0043
:100760002A2A2A2A2A2A2A2A2A2A2A2A2A2A2A2AE9
:100770002A2A2A2A2A2A2A2A2A2A2A2A2A2A2A2AD9
:100780002A2A2A2A2A2A2A2A2A2A2A2A2A2A2A2AC9
:100790002A2A2A2A2A2A2A2A2A2A2A2A2A2A2A2AB9
:1007A0002A2A2A2A2A2A2A2A2A2A2A2A2A2A2A2AA9
:1007B0002A2A2A2A2A2A2A2A2A2A2A0A002A2A2AE3
:1007C0002A2A2A2A2A2A2A2A2A2A2A2A2A2A2A2A89
:1007D0002A2A2A2A2A2A2A2A2A2A2A2A2A2A2A2A79
:1007E0002A2057726F6E6720436F6D6D616E6420B3
:1007F0002020202121212A2A2A2A2A2A2A2A2A2A92
:100800002A2A2A2A2A2A2A2A2A2A2A2A2A2A2A2A48
:100810002A2A2A2A2A2A2A2A0A002A2A2A2A2A2A82
:100820002A2A2A2A2A2A2A2A2A2A2A2A2A2A2A2A28
:100830002A2A2A2A2A2A2A2A2A2A2A2A2A2A2A2A18
:100840002A2A2A2A2A2A2A2A2A2A2A2A2A2A2A2A08
:100850002A2A2A2A2A2A2A2A2A2A2A2A2A2A2A2AF8
:100860002A2A2A2A2A2A2A2A2A2A2A2A2A2A2A2AE8
:100870002A2A2A2A2A0A000A002A2A2A2A2A2A2A6C
:100880002A2A2A2A2A2A2A2A2A2A2A2A2A2A2A2AC8
:100890002A2A2A2A2A2A2A2A2A2A2A2A2A2A2A2AB8
:1008A0002A2A2A2A2A2A2A2A2A2A2A2A2A2A2A2AA8
:1008B0002A2A2A2A2A2A2A2A2A2A2A2A2A2A2A2A98
:1008C0002A2A2A2A2A2A2A2A2A2A2A2A2A2A2A2A88
:1008D0002A2A2A2A0A002A2A2A2A2A2A2A2A2A2AC2
:1008E0002A2A2A2A2A2A2A2A2A2A2A2A2A2A2A2A68
:1008F0002A2A2A2A2A2A2A2A2A2A20454E44204FEE
:10090000462053454C454354494F4E202121212A2E
:100910002A2A2A2A2A2A2A2A2A2A2A2A2A2A2A2A37
:100920002A2A2A2A2A2A2A2A2A2A2A2A2A2A2A2A27
:100930002A0A002A2A2A2A2A2A2A2A2A2A2A2A2A61
:100940002A2A2A2A2A2A2A2A2A2A2A2A2A2A2A2A07
:100950002A2A2A2A2A2A2A2A2A2A2A2A2A2A2A2AF7
:100960002A2A2A2A2A2A2A2A2A2A2A2A2A2A2A2AE7
:100970002A2A2A2A2A2A2A2A2A2A2A2A2A2A2A2AD7
:100980002A2A2A2A2A2A2A2A2A2A2A2A2A2A0A0011
:100990002A2A2A2A2A2A2A2A2A2A2A2A2A2A2A2AB7
:1009A0002A2A2A2A2A2A2A2A20322D2045786974BE
:1009B000202A2A2A2A2A2A2A2A2A2A2A2A2A2A2AA1
:1009C0002A2A2A2A2A2A2A2A2A2A2A2A2A2A2A2A87
:1009D0002A2A2A2A2A2A2A2A2A2A2A2A2A2A2A2A77
:1009E0002A2A2A2A2A2A2A2A2A2A2A0A002A2A2AB1
:1009F0002A2A2A2A2A2A2A2A2A2A2A2A2A2A2A2A57
:100A00002A2A2A2A2A20312D2054727920616E6FD9
:100A100074686572205472616E73616374696F6E7D
:100A200020202A2A2A2A2A2A2A2A2A2A2A2A2A2A3A
:100A30002A2A2A2A2A2A2A2A2A2A2A2A2A2A2A2A16
:100A40002A2A2A2A2A2A2A2A0A002A2A2A2A2A2A50
:100A50002A2A2A2A2A2A2A2A2A2A2A2A2A2A2A2AF6
:100A60002A2A2A2A2A2A2A2A2A2A2A2A2A2A2A2AE6
:100A70002A2A2A2A2A2A2A2A2A2A2A2A2A2A2A2AD6
:100A80002A2A2A2A2A2A2A2A2A2A2A2A2A2A2A2AC6
:100A90002A2A2A2A2A2A2A2A2A2A2A2A2A2A2A2AB6
:100AA0002A2A2A2A2A0A002A2A2A2A2A2A2A2A2AF0
:100AB0002A2A2A2A2A2A2A2A2A2A2A2A2A2A20507A
:100AC0006C656173652043686F6F7365206F6E6539
:100AD000206F662074686520666F6C6C6F77696E36
:100AE0006720436F6D6D616E6473202A2A2A2A2A5B
:100AF0002A2A2A2A2A2A2A2A2A2A2A2A2A2A2A2A56
:100B00002A2A0A002A2A2A2A2A2A2A2A2A2A2A2A8F
:100B10002A2A2A2A2A2A2A2A2A2A2A2A2A2A2A2A35
:100B20002A2A2A2A2A2A2A2A2A2A2A2A2A2A2A2A25
:100B30002A2A2A2A2A2A2A2A2A2A2A2A2A2A2A2A15
:100B40002A2A2A2A2A2A2A2A2A2A2A2A2A2A2A2A05
:100B50002A2A2A2A2A2A2A2A2A2A2A2A2A2A2A0A15
:100B600000200A002A2A2A2A2A2A2A2A2A2A2A2A63
:100B70002A2A2A2A2A2A2A2A2A2A2A2A2A2A2A2AD5
:100B80002A2A2A2A2A2A2A2A2A2A2A2A2A2A2A2AC5
:100B90002A2A2A2A2A2A2A2A0A00202A2A2A2A2A09
:100BA0002A2A2A2A2A2A2A2A2A2A200A002A2A2AF9
:100BB0002A2A2A2A2A2A2A2A2A2A2A2A2A2A2020A9
:100BC00000202A2A2A2A2A2A2A2A2A2A2A2A2A2AB9
:100BD0002A0A002A2A2A2A2A2A2A2A2A2A2A2A2ABF
:100BE0002A2A2A2A2020002A2A2A2A2A2A2A2A2AA3
:100BF0002A2A2A2A2A2A2A2A2A2A2A2A2A2A2A2A55
:100C00002A2A2A2A2A2A2A2A2A2A2A2A2A2A2A2A44
:100C10002A2A2A2A2A2A2A2A2A2A2A0A00200A00D2
:100C20002A2A2A2A2A2A2A2A2A2A2A2A2A2A2A2A24
:100C30002A2A2A2A2A2A2A2A2A2A2A2A2A2A2A2A14
:100C40002A2A2A2A2A2A2A2A2A2A2A2A2A2A2A2A04
:100C50002A2A2A2A0A00202A2A2A2A2A2A2A2A2A48
:100C60002A2A2A2A2A2A2A0A002A2A2A2A2A2A2A2E
:100C70002A2A2A2A2A2A2A2A2A2A2020002A2A2A12
:100C80002A2A2A2A2A2A2A2A2A2A2A2A2A2A2A2AC4
:100C90002A2A2A2A2A2A2A2A2A2A2A2A2A2A2A2AB4
:100CA0002A2A2A2A2A2A2A2A2A2A2A2A2A2A2A2AA4
:100CB0002A0A00200A002A2A2A2A2A2A2A2A2A2A32
:100CC0002A2A2A2A2A2A2A2A2A2A2A2A2A2A2A2A84
:100CD0002A2A2A2A2A2A2A2A2A2A2A2A2A2A2A2A74
:100CE0002A2A2A2A2A2A2A2A2A2A0A00202A2A2AB8
:100CF0002A2A2A2A2A2A2A2A2A2A2A2A2A200A00A8
:100D00002A2A2A2A2A2A2A2A2A2A2A2A2A2A2A2A43
:100D10002A202000202A2A2A2A2A2A2A2A2A2A2A7B
:100D20002A2A2A2A2A0A002A2A2A2A2A2A2A2A2A6D
:100D30002A2A2A2A2A2A2A2A2020002A2A2A2A2A51
:100D40002A2A2A2A2A2A2A2A2A2A2A2A2A2A2A2A03
:100D50002A2A2A2A2A2A2A2A2A2A2A2A2A2A2A2AF3
:100D60002A2A2A2A2A2A2A2A2A2A2A2A2A2A2A0A03
:100D700000200A002A2A2A2A2A2A2A2A2A2A2A2A51
:100D80002A2A2A2A2A2A2A2A2A2A2A2A2A2A2A2AC3
:100D90002A2A2A2A2A2A2A2A2A2A2A2A2A2A2A2AB3
:100DA0002A2A2A2A0A002A2A2A2A2A2A2A2A2A2AED
:100DB0002A2A2A204E6F7420657869737420436153
:100DC0007264204461746120202A2A2A2A2A2A2A4D
:100DD0002A2A2A2A2A2A0A002A2A2A2A2A2A2A2ABD
:100DE0002A2A2A2A2A2A2A2A2A2A2A2A2A2A2A2A63
:100DF0002A2A2A2A2A2A2A2A2A2A2A2A2A2A2A2A53
:100E00002A2A2A2A2A2A2A2A0A00200A002A2A2AE0
:100E10002A2A2A2A2A2A2A2A2A2A2A2A2A2A2A2A32
:100E20002A2A2A2A2A2A2A2A2A2A2A2A2A2A2A2A22
:100E30002A2A2A2A2A2A2A2A2A2A2A0A002A2A2A5C
:100E40002A2A2A2A2A2A2A2A2A20546869732063ED
:100E5000617264204973204578697374202A2A2AB4
:100E60002A2A2A2A2A2A2A2A2A2A2A0A002A2A2A2C
:100E70002A2A2A2A2A2A2A2A2A2A2A2A2A2A2A2AD2
:100E80002A2A2A2A2A2A2A2A2A2A2A2A2A2A2A2AC2
:100E90002A2A2A2A2A2A2A2A2A2A2A0A00200A0050
:100EA0002A2A2A2A2A2A2A2A2A2A2A2A2A2A2A2AA2
:100EB0002A2A2A2A2A2A2A2A2A2A2A2A2A2A2A2A92
:100EC0002A2A2A2A2A2A2A2A2A2A2A2A2A2A2A2A82
:100ED0002A2A2A2A0A00202A2A2A2A2A2A2A2A2AC6
:100EE0002A2A2A2A2A2A2A0A002A2A2A2A2A2A2AAC
:100EF0002A2A2A2A2A2A2A2A2A2A202000202A2A9A
:100F00002A2A2A2A2A2A2A2A2A2A2A2A2A0A002A8B
:100F10002A2A2A2A2A2A2A2A2A2A2A2A2A2A2A2A31
:100F20002020002A2A2A2A2A2A2A2A2A2A2A2A2A5F
:100F30002A2A2A2A2A2A2A2A2A2A2A2A2A2A2A2A11
:100F40002A2A2A2A2A2A2A2A2A2A2A2A2A2A2A2A01
:100F50002A2A2A2A2A2A2A0A00200A002A2A2A2A8F
:100F60002A2A2A2A2A2A2A2A2A2A2A2A2A2A2A2AE1
:100F70002A2A2A2A2A2A2A2A2A2A2A2A2A2A2A2AD1
:100F80002A2A2A2A2A2A2A2A2A2A2A2A2A2A2A2AC1
:100F90000A00202A2A2A2A2A2A2A2A2A2A2A2A2A05
:100FA0002A2A0A002A2A2A2A2A2A2A2A2A2A2A2AEB
:100FB0002A2A2A2A2A202000202A2A2A2A2A2A2AD9
:100FC0002A2A2A2A2A2A2A2A2A0A002A2A2A2A2ACB
:100FD0002A2A2A2A2A2A2A2A2A2A2A2A2020002AAF
:100FE0002A2A2A2A2A2A2A2A2A2A2A2A2A2A2A2A61
:100FF0002A2A2A2A2A2A2A2A2A2A2A2A2A2A2A2A51
:101000002A2A2A2A2A2A2A2A2A2A2A2A2A2A2A2A40
:101010002A2A2A0A00200A002A2A2A2A2A2A2A2ACE
:101020002A2A2A2A2A2A2A2A2A2A2A2A2A2A2A2A20
:101030002A2A2A2A2A2A2A2A2A2A2A2A2A2A2A2A10
:101040002A2A2A2A2A2A2A2A0A002A2A2A2A2A2A4A
:101050002A2A2A2A2A2A2A204E6F74206578697340
:10106000742043617264204461746120202A2A2A1A
:101070002A2A2A2A2A2A2A2A2A2A0A002A2A2A2A1A
:101080002A2A2A2A2A2A2A2A2A2A2A2A2A2A2A2AC0
:101090002A2A2A2A2A2A2A2A2A2A2A2A2A2A2A2AB0
:1010A0002A2A2A2A2A2A2A2A2A2A2A2A0A00200A14
:1010B000002A2A2A2A2A2A2A2A2A2A2A2A2A2A2ABA
:1010C0002A2A2A2A2A2A2A2A2A2A2A2A2A2A2A2A80
:1010D0002A2A2A2A2A2A2A2A2A2A2A2A2A2A2A0A90
:1010E000002A2A2A2A2A2A2A2A2A2A2A2A2054682C
:1010F0006973206361726420497320457869737451
:10110000202A2A2A2A2A2A2A2A2A2A2A2A2A2A0A69
:10111000002A2A2A2A2A2A2A2A2A2A2A2A2A2A2A59
:101120002A2A2A2A2A2A2A2A2A2A2A2A2A2A2A2A1F
:101130002A2A2A2A2A2A2A2A2A2A2A2A2A2A2A0A2F
:1011400000200A002A2A2A2A2A2A2A2A2A2A2A2A7D
:101150002A2A2A2A2A2A2A2A2A2A2A2A2A2A2A2AEF
:101160002A2A2A2A2A2A2A2A2A2A2A2A2A2A2A2ADF
:101170002A2A2A2A2A0A002A2A2A2A2A2A2A2A2A19
:101180002A2A2A2A20506C6561736520656E746571
:101190007220436172642050414E202A2A2A2A2A52
:1011A0002A2A2A2A2A2A2A2A0A002A2A2A2A2A2AE9
:1011B0002A2A2A2A2A2A2A2A2A2A2A2A2A2A2A2A8F
:1011C0002A2A2A2A2A2A2A2A2A2A2A2A2A2A2A2A7F
:1011D0002A2A2A2A2A2A2A2A2A2A2A0A00200A000D
:1011E0002A2A2A2A2A2A2A2A2A2A2A2A2A2A2A2A5F
:1011F0002A2A2A2A2A2A2A2A2A2A2A2A2A2A2A2A4F
:101200002A2A2A2A2A2A2A2A2A2A2A2A2A2A2A2A3E
:101210002A0A002A2A2A2A2A2A2A2A2A2A2A2A2082
:101220004E6F742065786973742043617264204442
:10123000617461203A202A2A2A2A2A2A2A2A2A2A5A
:101240002A2A2A2A0A002A2A2A2A2A2A2A2A2A2A48
:101250002A2A2A2A2A2A2A2A2A2A2A2A2A2A2A2AEE
:101260002A2A2A2A2A2A2A2A2A2A2A2A2A2A2A2ADE
:101270002A2A2A2A2A2A2A0A00200A002A2A2A2A6C
:101280002A2A2A2A2A2A2A2A2A2A2A2A2A2A2A2ABE
:101290002A2A2A2A2A2A2A2A2A2A2A2A2A2A2A2AAE
:1012A0002A2A2A2A2A2A2A2A2A2A2A2A2A0A002AE8
:1012B0002A2A2A2A2A2A205761697420556E7469BD
:1012C0006C2072656D6F7665207468697320436168
:1012D00072642044617461203A202A2A2A2A2A2A28
:1012E0000A002A2A2A2A2A2A2A2A2A2A2A2A2A2AA8
:1012F0002A2A2A2A2A2A2A2A2A2A2A2A2A2A2A2A4E
:101300002A2A2A2A2A2A2A2A2A2A2A2A2A2A2A2A3D
:101310002A2A2A0A00200A002A2A2A2A2A2A2A2ACB
:101320002A2A2A2A2A2A2A2A2A2A2A2A2A2A2A2A1D
:101330002A2A2A2A2A2A2A2A2A2A2A2A2A2A2A2A0D
:101340002A2A2A2A2A2A2A2A2A0A002A2A2A2A2A47
:101350002A2A2A2A20506C6561736520656E74659F
:101360007220436172642050414E20203A202A2A84
:101370002A2A2A2A2A2A2A2A2A2A2A2A0A002A2A17
:101380002A2A2A2A2A2A2A2A2A2A2A2A2A2A2A2ABD
:101390002A2A2A2A2A2A2A2A2A2A2A2A2A2A2A2AAD
:1013A0002A2A2A2A2A2A2A2A2A2A2A2A2A2A2A0ABD
:1013B00000200A002A2A2A2A2A2A2A2A2A2A2A2A0B
:1013C0002A2A2A2A2A2A2A2A2A2A2A2A2A2A2A2A7D
:1013D0002A2A2A2A2A2A2A2A2A2A2A2A2A2A2A2A6D
:1013E0002A2A2A2A2A0A002A2A2A2A2A2A2A2A2AA7
:1013F0002074686973206361726420616C72656136
:10140000647920657869737420212121202A2A2A91
:101410002A2A2A2A2A2A2A2A0A002A2A2A2A2A2A76
:101420002A2A2A2A2A2A2A2A2A2A2A2A2A2A2A2A1C
:101430002A2A2A2A2A2A2A2A2A2A2A2A2A2A2A2A0C
:101440002A2A2A2A2A2A2A2A2A2A2A0A00200A009A
:101450002A2A2A2A2A2A2A2A2A2A2A2A2A2A2A2AEC
:101460002A2A2A2A2A2A2A2A2A2A2A2A2A2A2A2ADC
:101470002A2A2A2A2A2A2A2A2A2A2A2A2A2A2A2ACC
:101480002A0A002A2A2A2A2A2A2A2A205468657225
:1014900065206973206E6F20656E6F7567682073B5
:1014A0007061636520212121202A2A2A2A2A2A2ADA
:1014B0002A2A2A2A0A002A2A2A2A2A2A2A2A2A2AD6
:1014C0002A2A2A2A2A2A2A2A2A2A2A2A2A2A2A2A7C
:1014D0002A2A2A2A2A2A2A2A2A2A2A2A2A2A2A2A6C
:1014E0002A2A2A2A2A2A2A0A00200A002A2A2A2AFA
:1014F0002A2A2A2A2A2A2A2A2A2A2A2A2A2A2A2A4C
:101500002A2A2A2A2A2A2A2A2A2A2A2A2A2A2A2A3B
:101510002A2A2A2A2A2A2A2A2A2A2A2A2A0A002A75
:101520002A2A2A2A2A2047726561742061206E6562
:10153000772043617264206164646564207375631D
:101540006365737366756C6C79202A2A2A2A2A2AA5
:101550000A002A2A2A2A2A2A2A2A2A2A2A2A2A2A35
:101560002A2A2A2A2A2A2A2A2A2A2A2A2A2A2A2ADB
:101570002A2A2A2A2A2A2A2A2A2A2A2A2A2A2A2ACB
:101580002A2A2A0A000A002A2A2A2A2A2A2A2A2A4F
:101590002A2A2A2A2A2A2A2A2A2A2A2A2A2A2A2AAB
:1015A0002A2A2A2A2A2A2A2A2A2A2A2A2A2A2A2A9B
:1015B0002A2A2A2A2A2A2A2A0A002A2A2A2A2A2AD5
:1015C0002A20506C6561736520656E7465722043D6
:1015D00061726420546F74616C2042616C616E634F
:1015E000652A2A2A2A2A2A2A2A2A2A0A002A2A2A6A
:1015F0002A2A2A2A2A2A2A2A2A2A2A2A2A2A2A2A4B
:101600002A2A2A2A2A2A2A2A2A2A2A2A2A2A2A2A3A
:101610002A2A2A2A2A2A2A2A2A2A2A2A2A2A0A0074
:10162000200A002A2A2A2A2A2A2A2A2A2A2A2A2A6E
:101630002A2A2A2A2A2A2A2A2A2A2A2A2A2A2A2A0A
:101640002A2A2A2A2A2A2A2A2A2A2A2A2A2A2A2AFA
:101650002A2A2A2A0A002A2A2A2A2A2A2A2A2A2A34
:101660002A2A20506C6561736520656E746572204E
:10167000436172642050494E203A202A2A2A2A2A9D
:101680002A2A2A2A2A2A2A0A002A2A2A2A2A2A2A04
:101690002A2A2A2A2A2A2A2A2A2A2A2A2A2A2A2AAA
:1016A0002A2A2A2A2A2A2A2A2A2A2A2A2A2A2A2A9A
:1016B0002A2A2A2A2A2A2A2A2A2A0A00200A002A28
:1016C0002A2A2A2A2A2A2A2A2A2A2A2A2A2A2A2A7A
:1016D0002A2A2A2A2A2A2A2A2A2A2A2A2A2A2A2A6A
:1016E0002A2A2A2A2A2A2A2A2A2A2A2A2A2A2A2A5A
:1016F0000A002A2A2A2A2A2A2A2A2A2A2A20506C36
:101700006561736520656E74657220436172642043
:1017100050414E20203A202A2A2A2A2A2A2A2A2AD6
:101720002A2A2A0A002A2A2A2A2A2A2A2A2A2A2A63
:101730002A2A2A2A2A2A2A2A2A2A2A2A2A2A2A2A09
:101740002A2A2A2A2A2A2A2A2A2A2A2A2A2A2A2AF9
:101750002A2A2A2A2A2A0A00200A002A2A2A2A2A87
:101760002A2A2A2A2A2A2A2A2A2A2A2A2A2A2A2AD9
:101770002A2A2A2A2A2A2A2A2A2A2A2A2A2A2A2AC9
:101780002A2A2A2A2A2A2A2A2A2A2A2A0A002A2A03
:101790002A2A2A2A2A20506C6561736520656E7496
:1017A0006572204361726420486F6C646572204EDC
:1017B000616D65202A2A2A2A2A2A2A2A2A2A2A0AFE
:1017C000002A2A2A2A2A2A2A2A2A2A2A2A2A2A2AA3
:1017D0002A2A2A2A2A2A2A2A2A2A2A2A2A2A2A2A69
:1017E0002A2A2A2A2A2A2A2A2A2A2A2A2A2A2A2A59
:1017F0002A2A0A000A00200A002A2A2A2A2A2A2A31
:101800002A2A2A2A2A2A2A2A2A2A2A2A2A2A2A2A38
:101810002A2A2A2A2A2A2A2A2A2A2A2A2A2A2A2A28
:101820002A2A2A2A2A2A2A2A2A2A2A2A2A2A2A2A18
:101830002A2A2A2A2A2A2A2A2A2A2A2A2A2A2A2A08
:101840002A2A2A2A2A2A2A2A2A2A2A2A2A2A2A2AF8
:101850002A2A2A2A0A002A2A2A2A2A2A2A2A2A2A32
:101860002A2A2A2A2A2A2A2A2A2A2A2A2A2A2A2AD8
:101870002A2A2A2A2A2A2A2A2A2A2A2A20454E4479
:10188000204F462053454C454354494F4E2021217B
:10189000212A2A2A2A2A2A2A2A2A2A2A2A2A2A2AB1
:1018A0002A2A2A2A2A2A2A2A2A2A2A2A2A2A2A2A98
:1018B0002A0A002A2A2A2A2A2A2A2A2A2A2A2A2AD2
:1018C0002A2A2A2A2A2A2A2A2A2A2A2A2A2A2A2A78
:1018D0002A2A2A2A2A2A2A2A2A2A2A2A2A2A2A2A68
:1018E0002A2A2A2A2A2A2A2A2A2A2A2A2A2A2A2A58
:1018F0002A2A2A2A2A2A2A2A2A2A2A2A2A2A2A2A48
:101900002A2A2A2A2A2A2A2A2A2A2A2A2A2A0A0081
:101910002A2A2A2A2A2A2A2A2A2A2A2A2A2A2A2A27
:101920002A2A2A2A2A2A2A2A20382D204578697428
:101930002050726F6772616D6D696E67206D6F64A4
:1019400065202A2A2A2A2A2A2A2A2A2A2A2A2A2AC6
:101950002A2A2A2A2A2A2A2A2A2A2A2A2A2A2A2AE7
:101960002A2A2A2A2A2A2A2A2A2A2A0A002A2A2A21
:101970002A2A2A2A2A2A2A2A2A2A2A2A2A2A2A2AC7
:101980002A2A2A2A2A20372D2041646D696E204D8B
:101990006F646966792044617461202A2A2A2A2AA0
:1019A0002A2A2A2A2A2A2A2A2A2A2A2A2A2A2A2A97
:1019B0002A2A2A2A2A2A2A2A2A2A2A2A2A2A2A2A87
:1019C0002A2A2A2A2A2A2A2A0A002A2A2A2A2A2AC1
:1019D0002A2A2A2A2A2A2A2A2A2A2A2A2A2A2A2A67
:1019E0002A2A20362D205265736574204461746163
:1019F0002042617365202A2A2A2A2A2A2A2A2A2A88
:101A00002A2A2A2A2A2A2A2A2A2A2A2A2A2A2A2A36
:101A10002A2A2A2A2A2A2A2A2A2A2A2A2A2A2A2A26
:101A20002A2A2A2A2A0A002A2A2A2A2A2A2A2A2A60
:101A30002A2A2A2A2A2A2A2A2A2A2A2A2A2A2A2010
:101A4000352D20546F74616C204E554D206F6620EB
:101A500043757272656E74204341524473202A2A82
:101A60002A2A2A2A2A2A2A2A2A2A2A2A2A2A2A2AD6
:101A70002A2A2A2A2A2A2A2A2A2A2A2A2A2A2A2AC6
:101A80002A2A0A002A2A2A2A2A2A2A2A2A2A2A2A00
:101A90002A2A2A2A2A2A2A2A2A2A2A2A20342D20AD
:101AA000536561726368205769746820436172648A
:101AB00020486F6C646572204E616D65202A2A2A69
:101AC0002A2A2A2A2A2A2A2A2A2A2A2A2A2A2A2A76
:101AD0002A2A2A2A2A2A2A2A2A2A2A2A2A2A2A0A86
:101AE000002A2A2A2A2A2A2A2A2A2A2A2A2A2A2A80
:101AF0002A2A2A2A2A2A2A2A2A20332D20536561B3
:101B000072636820466F7220436172642057697463
:101B1000682050414E202A2A2A2A2A2A2A2A2A2A9A
:101B20002A2A2A2A2A2A2A2A2A2A2A2A2A2A2A2A15
:101B30002A2A2A2A2A2A2A2A2A2A2A2A0A002A2A4F
:101B40002A2A2A2A2A2A2A2A2A2A2A2A2A2A2A2AF5
:101B50002A2A2A2A2A2A20322D2052656D6F76657C
:101B600020436172642020202A2A2A2A2A2A2A2A2B
:101B70002A2A2A2A2A2A2A2A2A2A2A2A2A2A2A2AC5
:101B80002A2A2A2A2A2A2A2A2A2A2A2A2A2A2A2AB5
:101B90002A2A2A2A2A2A2A2A2A0A002A2A2A2A2AEF
:101BA0002A2A2A2A2A2A2A2A2A2A2A2A2A2A2A2A95
:101BB0002A2A2A20312D204164642043617264095D
:101BC000202A2A2A2A2A2A2A2A2A2A2A2A2A2A2A7F
:101BD0002A2A2A2A2A2A2A2A2A2A2A2A2A2A2A2A65
:101BE0002A2A2A2A2A2A2A2A2A2A2A2A2A2A2A2A55
:101BF0002A2A2A2A2A2A0A002A2A2A2A2A2A2A2A8F
:101C00002A2A2A2A2A2A2A2A2A2A2A2A2A2A2A2A34
:101C10002A2A2A2A2A2A2A2A2A2A2A2A2A2A2A2A24
:101C20002A2A2A2A2A2A2A2A2A2A2A2A2A2A2A2A14
:101C30002A2A2A2A2A2A2A2A2A2A2A2A2A2A2A2A04
:101C40002A2A2A2A2A2A2A2A2A2A2A2A2A2A2A2AF4
:101C50002A2A2A0A002A2A2A2A2A2A2A2A2A2A2A2E
:101C60002A2A2A2A2A2A2A2A2A2A2A2A20506C653B
:101C70006173652043686F6F7365206F6E65206FB9
:101C8000662074686520666F6C6C6F77696E67207C
:101C9000436F6D6D616E6473202A2A2A2A2A2A2ACC
:101CA0002A2A2A2A2A2A2A2A2A2A2A2A2A2A2A2A94
:101CB0000A002A2A2A2A2A2A2A2A2A2A2A2A2A2ACE
:101CC0002A2A2A2A2A2A2A2A2A2A2A2A2A2A2A2A74
:101CD0002A2A2A2A2A2A2A2A2A2A2A2A2A2A2A2A64
:101CE0002A2A2A2A2A2A2A2A2A2A2A2A2A2A2A2A54
:101CF0002A2A2A2A2A2A2A2A2A2A2A2A2A2A2A2A44
:101D00002A2A2A2A2A2A2A2A2A2A2A2A2A0A002087
:101D10000A002A2A2A2A2A2A2A2A2A2A2A2A2A2A6D
:101D20002A2A2A2A2A2A2A2A2A2A2A2A2A2A2A2A13
:101D30002A2A2A2A2A2A2A2A2A2A2A2A2A2A2A2A03
:101D40002A2A2A2A2A2A0A002A2A2A2A2A2A2A2A3D
:101D50002057726F6E672063686F736520506C65E3
:101D60006173652054727920616761696E202A2A47
:101D70002A2A2A2A2A2A2A2A2A2A2A2A0A002A2A0D
:101D80002A2A2A2A2A2A2A2A2A2A2A2A2A2A2A2AB3
:101D90002A2A2A2A2A2A2A2A2A2A2A2A2A2A2A2AA3
:101DA0002A2A2A2A2A2A2A2A2A2A2A2A2A2A2A2A93
:101DB0002A2A0A00200A002A2A2A2A2A2A2A2A2A21
:101DC0002A2A2A2A2A2A2A2A2A2A2A2A2A2A2A2A73
:101DD0002A2A2A2A2A2A2A2A2A2A2A2A2A2A2A2A63
:101DE0002A2A2A2A2A2A2A0A002A2A2A2A2A2A2A9D
:101DF0002A2A2A2A2A2A2A2A2A2A2A202077616994
:101E00007420212121202A2A2A2A2A2A2A2A2A2A17
:101E10002A2A2A2A2A2A2A2A2A0A002A2A2A2A2A6C
:101E20002A2A2A2A2A2A2A2A2A2A2A2A2A2A2A2A12
:101E30002A2A2A2A2A2A2A2A2A2A2A2A2A2A2A2A02
:101E40002A2A2A2A2A2A2A2A2A2A2A0A00200A0090
:101E50002A2A2A2A2A2A2A2A2A2A2A2A2A2A2A2AE2
:101E60002A2A2A2A2A2A2A2A2A2A2A2A2A2A2A2AD2
:101E70002A2A2A2A2A2A2A2A2A2A2A2A2A2A2A2AC2
:101E80002A2A2A2A2A2A0A002A2A2A2A2A20707278
:101E90006F626C656D2057697468204461746120BD
:101EA000426173652043616C6C205365727669638F
:101EB0006520537570706F7274202A2A2A2A0A00CE
:101EC0002A2A2A2A2A2A2A2A2A2A2A2A2A2A2A2A72
:101ED0002A2A2A2A2A2A2A2A2A2A2A2A2A2A2A2A62
:101EE0002A2A2A2A2A2A2A2A2A2A2A2A2A2A2A2A52
:101EF0002A2A2A2A2A2A0A00200A002A2A2A2A2AE0
:101F00002A2A2A2A2A2A2A2A2A2A2A2A2A2A2A2A31
:101F10002A2A2A2A2A2A2A2A2A2A2A2A2A2A2A2A21
:101F20002A2A2A2A2A2A2A2A2A2A2A2A2A2A2A0A31
:101F3000002A2A2A2A2A2A2A2A2A2A2A2A2A20203F
:101F400044656C657465642073756363657373665B
:101F5000756C6C7920202A2A2A2A2A2A2A2A2A2AD7
:101F60002A2A2A2A2A0A002A2A2A2A2A2A2A2A2A1B
:101F70002A2A2A2A2A2A2A2A2A2A2A2A2A2A2A2AC1
:101F80002A2A2A2A2A2A2A2A2A2A2A2A2A2A2A2AB1
:101F90002A2A2A2A2A2A2A2A2A2A2A0A00200A003F
:101FA0002A2A2A2A2A2A2A2A2A2A2A2A2A2A2A2A91
:101FB0002A2A2A2A2A2A2A2A2A2A2A2A2A2A2A2A81
:101FC0002A2A2A2A2A2A2A2A2A2A2A2A2A2A2A2A71
:101FD0002A2A2A2A0A002A2A2A2A2A2A2A2A2A2AAB
:101FE0002A200A002A2A2A2A2A20546865204E75A7
:101FF0006D626572206F6620496E7374616C6C65EA
:1020000064204361726473206973203A002A2A2A8B
:102010002A2A2A2A2A2A2A2A2A2A2A2A2A2A2A2A20
:102020002A2A2A2A2A2A2A2A2A2A2A2A2A2A2A2A10
:102030002A2A2A2A2A2A2A2A2A2A2A2A2A2A2A2A00
:102040002A0A00200A002A2A2A2A2A2A2A2A2A2A8E
:102050002A2A2A2A2A2A2A2A2A2A2A2A2A2A2A2AE0
:102060002A2A2A2A2A2A2A2A2A2A2A2A2A2A2A2AD0
:102070002A2A2A2A2A2A2A2A2A2A0A00202A2A2A14
:102080002A2A2A2A2A2A2A2A2A2A2A2A2A0A002AFA
:102090002A2A2A2A2A2A2A2A2A2A2A2A2A2A2A2AA0
:1020A0002020002A2A2A2A2A2A2A2A2A2A2A2A2ACE
:1020B0002A2A2A2A2A2A2A2A2A2A2A2A2A2A2A2A80
:1020C0002A2A2A2A2A2A2A2A2A2A2A2A2A2A2A2A70
:1020D0002A2A2A2A2A2A2A0A00200A002A2A2A2AFE
:1020E0002A2A2A2A2A2A2A2A2A2A2A2A2A2A2A2A50
:1020F0002A2A2A2A2A2A2A2A2A2A2A2A2A2A2A2A40
:102100002A2A2A2A2A2A2A2A2A2A2A2A2A2A2A2A2F
:102110000A00202A2A2A2A2A2A2A2A2A2A2A2A2A73
:102120002A2A0A002A2A2A2A2A2A2A2A2A2A2A2A59
:102130002A2A2A2A2000202A2A2A2A2A2A2A2A2A3D
:102140002A2A2A2A2A2A2A0A002A2A2A2A2A2A2A39
:102150002A2A2A2A2A2A2A2A2A2A2020002A2A2A1D
:102160002A2A2A2A2A2A2A2A2A2A2A2A2A2A2A2ACF
:102170002A2A2A2A2A2A2A2A2A2A2A2A2A2A2A2ABF
:102180002A2A2A2A2A2A2A2A2A2A2A2A2A2A2A2AAF
:102190002A0A00200A002A2A2A2A2A2A2A2A2A2A3D
:1021A0002A2A2A2A2A2A2A2A2A2A2A2A2A2A2A2A8F
:1021B0002A2A2A2A2A2A2A2A2A2A2A2A2A2A2A2A7F
:1021C0002A2A2A2A2A2A2A2A2A2A0A002A2A2A2AB9
:1021D0002A2020455849542041646D696E204D6F76
:1021E00064696679696E67206D6F646520737563D5
:1021F0006365737366756C6C79202A2A2A2A2A2AE9
:102200000A002A2A2A2A2A2A2A2A2A2A2A2A2A2A78
:102210002A2A2A2A2A2A2A2A2A2A2A2A2A2A2A2A1E
:102220002A2A2A2A2A2A2A2A2A2A2A2A2A2A2A2A0E
:102230002A2A2A2A2A2A0A00200A002A2A2A2A2A9C
:102240002A2A2A2A2A2A2A2A2A2A2A2A2A2A2A2AEE
:102250002A2A2A2A2A2A2A2A2A2A2A2A2A2A2A2ADE
:102260002A2A2A2A2A2A2A2A2A2A2A2A2A2A2A2ACE
:102270002A2A2A2A2A2A2A2A2A2A2A2A2A2A2A2ABE
:102280002A2A2A2A0A002A2A2A2A2A2A2A2A2A2002
:102290004D6178696D756D204461696C7920416D7F
:1022A0006F756E7420446F6573204E6F7420536594
:1022B00074205375636365737366756C6C79202144
:1022C000212121202A2A2A2A2A2A2A2A2A2A2A0AB3
:1022D000002A2A2A2A2A2A2A2A2A2A2A2A2A2A2A88
:1022E0002A2A2A2A2A2A2A2A2A2A2A2A2A2A2A2A4E
:1022F0002A2A2A2A2A2A2A2A2A2A2A2A2A2A2A2A3E
:102300002A2A2A2A2A2A2A2A2A2A2A2A2A2A2A2A2D
:102310002A2A2A2A2A2A2A2A2A2A0A00200A0020C5
:102320000A002A2A2A2A2A2A2A2A2A2A2A2A2A2A57
:102330002A2A2A2A2A2A2A2A2A2A2A2A2A2A2A2AFD
:102340002A2A2A2A2A2A2A2A2A2A2A2A2A2A2A2AED
:102350002A2A0A002A2A2A2A2A20204D6178696D11
:10236000756D204461696C7920416D6F756E7420C4
:102370005375636365737366756C6C7920202A2AC4
:102380002A2A2A2A0A002A2A2A2A2A2A2A2A2A2AF7
:102390002A2A2A2A2A2A2A2A2A2A2A2A2A2A2A2A9D
:1023A0002A2A2A2A2A2A2A2A2A2A2A2A2A2A2A2A8D
:1023B0002A2A2A2A2A2A0A00200A00200A002A2A6F
:1023C0002A2A2A2A2A2A2A2A2A2A2A2A2A2A2A2A6D
:1023D0002A2A2A2A2A2A2A2A2A2A2A2A2A2A2A2A5D
:1023E0002A2A2A2A2A2A2A2A2A2A2A2A2A2A0A0097
:1023F0002A2A2A2A2A2020506C6561736520456E9E
:1024000074657220746865204D4178204461696C60
:102410007920416D6F756E74202A2A2A2A2A2A2A69
:102420000A002A2A2A2A2A2A2A2A2A2A2A2A2A2A56
:102430002A2A2A2A2A2A2A2A2A2A2A2A2A2A2A2AFC
:102440002A2A2A2A2A2A2A2A2A2A2A2A2A2A2A2AEC
:102450002A2A0A00200A002A2A2A2A2A2A2A2A2A7A
:102460002A2A2A2A2A2A2A2A2A2A2A2A2A2A2A2ACC
:102470002A2A2A2A2A2A2A2A2A2A2A2A2A2A2A2ABC
:102480002A2A2A2A2A2A2A2A2A2A2A2A2A2A2A2AAC
:102490002A0A002A2A2A2A2A2A2A2A204572726F00
:1024A0007220446F6573204E6F7420436C656172B7
:1024B0006564205375636365737366756C6C79200E
:1024C0002121212120202A2A2A2A2A2A2A0A002AEE
:1024D0002A2A2A2A2A2A2A2A2A2A2A2A2A2A2A2A5C
:1024E0002A2A2A2A2A2A2A2A2A2A2A2A2A2A2A2A4C
:1024F0002A2A2A2A2A2A2A2A2A2A2A2A2A2A2A2A3C
:102500002A2A2A2A2A2A2A2A2A0A00200A002A2AC9
:102510002A2A2A2A2A2A2A2A2A2A2A2A2A2A2A2A1B
:102520002A2A2A2A2A2A2A2A2A2A2A2A2A2A2A2A0B
:102530002A2A2A2A2A2A2A2A2A2A2A2A2A2A0A0045
:102540002A2A2A2A2A2A2A2A2A2A20204572726F0F
:102550007220436C656172656420537563636573B3
:102560007366756C6C79202A2A2A2A2A2A2A2A2A32
:102570000A002A2A2A2A2A2A2A2A2A2A2A2A2A2A05
:102580002A2A2A2A2A2A2A2A2A2A2A2A2A2A2A2AAB
:102590002A2A2A2A2A2A2A2A2A2A2A2A2A2A2A2A9B
:1025A0002A2A0A00200A002A2A2A2A2A2A2A2A2A29
:1025B0002A2A2A2A2A2A2A2A2A2A2A2A2A2A2A2A7B
:1025C0002A2A2A2A2A2A2A2A2A2A2A2A2A2A2A2A6B
:1025D0002A2A2A2A2A2A2A0A002A2A2A2A2A2A2AA5
:1025E0002A2A2A2A2A2A2020506C656173652054E1
:1025F000727920416761696E20202A2A2A2A2A2AB4
:102600002A2A2A2A2A2A2A2A2A0A002A2A2A2A2A74
:102610002A2A2A2A2A2A2A2A2A2A2A2A2A2A2A2A1A
:102620002A2A2A2A2A2A2A2A2A2A2A2A2A2A2A2A0A
:102630002A2A2A2A2A2A2A2A2A2A2A0A00200A0098
:102640002A2A2A2A2A2A2A2A2A2A2A2A2A2A2A2AEA
:102650002A2A2A2A2A2A2A2A2A2A2A2A2A2A2A2ADA
:102660002A2A2A2A2A2A2A2A2A2A2A2A2A2A2A2ACA
:102670000A002A2A2A2A2A2041646D696E204461B0
:1026800074612053746F726564205375636365735E
:102690007366756C6C79202A2A2A2A2A2A2A2A2A01
:1026A0002A2A0A002A2A2A2A2A2A2A2A2A2A2A2AD4
:1026B0002A2A2A2A2A2A2A2A2A2A2A2A2A2A2A2A7A
:1026C0002A2A2A2A2A2A2A2A2A2A2A2A2A2A2A2A6A
:1026D0002A2A2A2A0A00200A002A2A2A2A2A2A2AF8
:1026E0002A2A2A2A2A2A2A2A2A2A2A2A2A2A2A2A4A
:1026F0002A2A2A2A2A2A2A2A2A2A2A2A2A2A2A2A3A
:102700002A2A2A2A2A2A2A2A2A0A002A2A2A2A2A73
:102710002A2A2A2A2A2A2A2A2A2A2A2A2A202077E0
:1027200061697420212121202A2A2A2A2A2A2A2A78
:102730002A2A2A2A2A2A2A2A2A2A2A0A002A2A2A43
:102740002A2A2A2A2A2A2A2A2A2A2A2A2A2A2A2AE9
:102750002A2A2A2A2A2A2A2A2A2A2A2A2A2A2A2AD9
:102760002A2A2A2A2A2A2A2A2A2A2A2A2A0A00201D
:102770000A002A2A2A2A2A2A2A2A2A2A2A2A2A2A03
:102780002A2A2A2A2A2A2A2A2A2A2A2A2A2A2A2AA9
:102790002A2A2A2A2A2A2A2A2A2A2A2A2A2A2A2A99
:1027A0002A2A0A002A2A2A2A2A2A20456E746572B1
:1027B0002061206E65772061646D696E204D4158FF
:1027C0002054656D702076616C75653A2A2A2A2A34
:1027D0002A2A2A2A0A002A2A2A2A2A2A2A2A2A2AA3
:1027E0002A2A2A2A2A2A2A2A2A2A2A2A2A2A2A2A49
:1027F0002A2A2A2A2A2A2A2A2A2A2A2A2A2A2A2A39
:102800002A2A2A2A2A2A0A00200A002A2A2A2A2AC6
:102810002A2A2A2A2A2A2A2A2A2A2A2A2A2A2A2A18
:102820002A2A2A2A2A2A2A2A2A2A2A2A2A2A2A2A08
:102830002A2A2A2A2A2A2A2A2A2A2A0A002A2A2A42
:102840002A2A2A2A2A2A2A2A2A2A2020506C656122
:1028500073652054727920416761696E20202A2AAD
:102860002A2A2A2A2A2A2A2A2A2A2A2A2A0A002A12
:102870002A2A2A2A2A2A2A2A2A2A2A2A2A2A2A2AB8
:102880002A2A2A2A2A2A2A2A2A2A2A2A2A2A2A2AA8
:102890002A2A2A2A2A2A2A2A2A2A2A2A2A2A2A0AB8
:1028A00000200A002A2A2A2A2A2A2A2A2A2A2A2A06
:1028B0002A2A2A2A2A2A2A2A2A2A2A2A2A2A2A2A78
:1028C0002A2A2A2A2A2A2A2A2A2A2A2A2A2A2A2A68
:1028D0002A2A2A2A0A002A2A2A2A2A2A2A2A204195
:1028E000646D696E20446174612053746F72656415
:1028F000205375636365737366756C6C7920202A49
:102900002A2A2A2A2A2A0A002A2A2A2A2A2A2A2A71
:102910002A2A2A2A2A2A2A2A2A2A2A2A2A2A2A2A17
:102920002A2A2A2A2A2A2A2A2A2A2A2A2A2A2A2A07
:102930002A2A2A2A2A2A2A2A0A00200A002A2A2A95
:102940002A2A2A2A2A2A2A2A2A2A2A2A2A2A2A2AE7
:102950002A2A2A2A2A2A2A2A2A2A2A2A2A2A2A2AD7
:102960002A2A2A2A2A2A2A2A2A2A2A2A2A0A002A11
:102970002A2A2A2A2A2A2A2A2A2A2A2A2A2A2A2AB7
:102980002A20207761697420212121202A2A2A2ADD
:102990002A2A2A2A2A2A2A2A2A2A2A2A2A2A2A0AB7
:1029A000002A2A2A2A2A2A2A2A2A2A2A2A2A2A2AB1
:1029B0002A2A2A2A2A2A2A2A2A2A2A2A2A2A2A2A77
:1029C0002A2A2A2A2A2A2A2A2A2A2A2A2A2A2A2A67
:1029D0002A0A00200A00200A002A2A2A2A2A2A2A49
:1029E0002A2A2A2A2A2A2A2A2A2A2A2A2A2A2A2A47
:1029F0002A2A2A2A2A2A2A2A2A2A2A2A2A2A2A2A37
:102A00002A2A2A2A2A2A2A2A2A0A002A2A2A2A2A70
:102A10002A2A2A20506C6561736520656E74657280
:102A20002061206E65772061646D696E207061732E
:102A300073203A202A2A2A2A2A2A2A0A002A2A2AFB
:102A40002A2A2A2A2A2A2A2A2A2A2A2A2A2A2A2AE6
:102A50002A2A2A2A2A2A2A2A2A2A2A2A2A2A2A2AD6
:102A60002A2A2A2A2A2A2A2A2A2A2A2A2A0A00201A
:102A70000A00200A002A2A2A2A2A2A2A2A2A2A2A54
:102A80002A2A2A2A2A2A2A2A2A2A2A2A2A2A2A2AA6
:102A90002A2A2A2A2A2A2A2A2A2A2A2A2A2A2A2A96
:102AA0002A2A2A2A2A0A002A2A2A2A2A2A2A2A20DA
:102AB000506C6561736520656E7465722061206E6F
:102AC00065772061646D696E206E616D65203A20C6
:102AD0002A2A2A2A2A2A2A0A002A2A2A2A2A2A2AA0
:102AE0002A2A2A2A2A2A2A2A2A2A2A2A2A2A2A2A46
:102AF0002A2A2A2A2A2A2A2A2A2A2A2A2A2A2A2A36
:102B00002A2A2A2A2A2A2A2A2A0A00200A000A000D
:102B10002A2A2A2A2A2A2A2A2A2A2A2A2A2A2A2A15
:102B20002A2A2A2A2A2A2A2A2A2A2A2A2A2A2A2A05
:102B30002A2A2A2A2A2A2A2A2A2A2A2A2A2A2A2AF5
:102B40002A2A2A2A2A2A2A2A2A2A2A2A2A2A2A2AE5
:102B50002A2A2A2A2A2A2A2A2A2A2A2A2A2A2A2AD5
:102B60002A2A2A2A2A2A2A2A2A2A2A0A002A2A2A0F
:102B70002A2A2A2A2A2A2A2A2A2A2A2A2A2A2A2AB5
:102B80002A2A2A2A2A2A2A2A2A2A2A2A2A2A2A2AA5
:102B90002A20454E44204F462053454C4543544936
:102BA0004F4E202121212A2A2A2A2A2A2A2A2A2A61
:102BB0002A2A2A2A2A2A2A2A2A2A2A2A2A2A2A2A75
:102BC0002A2A2A2A2A2A2A2A0A002A2A2A2A2A2AAF
:102BD0002A2A2A2A2A2A2A2A2A2A2A2A2A2A2A2A55
:102BE0002A2A2A2A2A2A2A2A2A2A2A2A2A2A2A2A45
:102BF0002A2A2A2A2A2A2A2A2A2A2A2A2A2A2A2A35
:102C00002A2A2A2A2A2A2A2A2A2A2A2A2A2A2A2A24
:102C10002A2A2A2A2A2A2A2A2A2A2A2A2A2A2A2A14
:102C20002A2A2A2A2A0A002A2A2A2A2A2A2A2A2A4E
:102C30002A2A2A2A2A2A2A2A2A2A2A2A2A2A2A20FE
:102C4000352D2045786974202A2A2A2A2A2A2A2AF8
:102C50002A2A2A2A2A2A2A2A2A2A2A2A2A2A2A2AD4
:102C60002A2A2A2A2A2A2A2A2A2A2A2A2A2A2A2AC4
:102C70002A2A2A2A2A2A2A2A2A2A2A2A2A2A2A2AB4
:102C80002A2A0A002A2A2A2A2A2A2A2A2A2A2A2AEE
:102C90002A2A2A2A2A2A2A2A2A2A2A2A20342D209B
:102CA000536574204D6178204461696C7920416DD1
:102CB0006F756E74202A2A2A2A2A2A2A2A2A2A2A60
:102CC0002A2A2A2A2A2A2A2A2A2A2A2A2A2A2A2A64
:102CD0002A2A2A2A2A2A2A2A2A2A2A2A2A2A2A0A74
:102CE000002A2A2A2A2A2A2A2A2A2A2A2A2A2A2A6E
:102CF0002A2A2A2A2A2A2A2A2A20332D20436C65A6
:102D00006172204572726F7220466C6167202A2AB8
:102D10002A2A2A2A2A2A2A2A2A2A2A2A2A2A2A2A13
:102D20002A2A2A2A2A2A2A2A2A2A2A2A2A2A2A2A03
:102D30002A2A2A2A2A2A2A2A2A2A2A2A0A002A2A3D
:102D40002A2A2A2A2A2A2A2A2A2A2A2A2A2A2A2AE3
:102D50002A2A2A2A2A2A20322D20536574204164E7
:102D60006D696E204D6178696D756D2054656D706B
:102D700065726174757265202A2A2A2A2A2A2A2AEB
:102D80002A2A2A2A2A2A2A2A2A2A2A2A2A2A2A2AA3
:102D90002A2A2A2A2A2A2A2A2A0A002A2A2A2A2ADD
:102DA0002A2A2A2A2A2A2A2A2A2A2A2A2A2A2A2A83
:102DB0002A2A2A20312D205365742041646D696EC2
:102DC0002050617373776F726420616E64204E616E
:102DD0006D65202A2A2A2A2A2A2A2A2A2A2A2A2ADF
:102DE0002A2A2A2A2A2A2A2A2A2A2A2A2A2A2A2A43
:102DF0002A2A2A2A2A2A0A002A2A2A2A2A2A2A2A7D
:102E00002A2A2A2A2A2A2A2A2A2A2A2A2A2A2A2A22
:102E10002A2A2A2A2A2A2A2A2A2A2A2A2A2A2A2A12
:102E20002A2A2A2A2A2A2A2A2A2A2A2A2A2A2A2A02
:102E30002A2A2A2A2A2A2A2A2A2A2A2A2A2A2A2AF2
:102E40002A2A2A2A2A2A2A2A2A2A2A2A2A2A2A2AE2
:102E50002A2A2A0A002A2A2A2A2A2A2A2A2A2A2A1C
:102E60002A2A2A2A2A2A2A2A2A2A2A2A20506C6529
:102E70006173652043686F6F7365206F6E65206FA7
:102E8000662074686520666F6C6C6F77696E67206A
:102E9000436F6D6D616E6473202A2A2A2A2A2A2ABA
:102EA0002A2A2A2A2A2A2A2A2A2A2A2A2A2A2A2A82
:102EB0000A002A2A2A2A2A2A2A2A2A2A2A2A2A2ABC
:102EC0002A2A2A2A2A2A2A2A2A2A2A2A2A2A2A2A62
:102ED0002A2A2A2A2A2A2A2A2A2A2A2A2A2A2A2A52
:102EE0002A2A2A2A2A2A2A2A2A2A2A2A2A2A2A2A42
:102EF0002A2A2A2A2A2A2A2A2A2A2A2A2A2A2A2A32
:102F00002A2A2A2A2A2A2A2A2A2A2A2A2A0A002075
:102F10000A002A2A2A2A2A2A2A2A2A2A2A2A2A2A5B
:102F20002A2A2A2A2A2A2A2A2A2A2A2A2A2A2A2A01
:102F30002A2A2A2A2A2A2A2A2A2A2A2A2A2A2A2AF1
:102F40002A2A0A002A2A2A2A2A2A2A2A2A2A2A2A2B
:102F50002A20546869732063617264204973206E6B
:102F60006F74204578697374202A2A2A2A2A2A2A0B
:102F70002A2A2A2A0A002A2A2A2A2A2A2A2A2A2AFB
:102F80002A2A2A2A2A2A2A2A2A2A2A2A2A2A2A2AA1
:102F90002A2A2A2A2A2A2A2A2A2A2A2A2A2A2A2A91
:102FA0002A2A2A2A2A2A0A00200A002A2A2A2A2A1F
:102FB0002A2A2A2A2A2A2A2A2A2A2A2A2A2A2A2A71
:102FC0002A2A2A2A2A2A2A2A2A2A2A2A2A2A2A2A61
:102FD0002A2A2A2A2A2A2A2A2A2A2A0A002A2A2A9B
:102FE0002A2A2A2A2A2A2A2A2A2A20546869732065
:102FF0006361726420204973204578697374202AC4
:103000002A2A2A2A2A2A2A2A2A2A2A2A2A0A002A6A
:103010002A2A2A2A2A2A2A2A2A2A2A2A2A2A2A2A10
:103020002A2A2A2A2A2A2A2A2A2A2A2A2A2A2A2A00
:103030002A2A2A2A2A2A2A2A2A2A2A2A2A2A2A0A10
:1030400000200A002A2A2A2A2A2A2A2A2A2A2A2A5E
:103050002A2A2A2A2A2A2A2A2A2A2A2A2A2A2A2AD0
:103060002A2A2A2A2A2A2A2A2A2A2A2A2A2A2A2AC0
:103070002A2A2A2A0A002A2A2A2A2A2A2A2A2A2AFA
:103080002A2A2A20506C6561736520656E7465720A
:103090002043617264204E616D653A202A2A2A2AF3
:1030A0002A2A2A2A2A2A0A002A2A2A2A2A2A2A2ACA
:1030B0002A2A2A2A2A2A2A2A2A2A2A2A2A2A2A2A70
:1030C0002A2A2A2A2A2A2A2A2A2A2A2A2A2A2A2A60
:1030D0002A2A2A2A2A2A2A2A0A0057454C434F4DCF
:1030E00045204F504552415445000000000020202B
:1030F0002020204D4F44452020202020200000008B
:1031000000002020504C4541534520454E54455227
:1031100020000000000020202020204341524420B5
:10312000202020202000000000002020454E544593
:103130005220544845202020200000000000545216
:10314000414E53414320414D4F554E542000000005
:1031500000005452414E53414354494F4E20203AAF
:10316000200000000000202020202057726F6E6792
:103170002020202020000000000020205472616EDA
:1031800073616374696F6E202000000000002020CE
:103190004552524F525F54656D7020202000000050
:1031A0000000202043414C4C5F5858585858582034
:1031B00020000000000009447261676F6E732020D8
:1031C00020202000000000000000202041544D205D
:1031D00053797374656D2020200000000000656E37
:1031E0007465722050726F6772616D20200000005C
:1031F000000020202020204D6F646520202020200A
:1032000020000000000050726F6772616D204D6FEA
:1032100064452020200000000000202020204341A1
:1032200052442020202020202000000000002020E8
:10323000204E4F5420524541445920202000000088
:1032400000002020205448414E4B202020202020E8
:1032500020000000000020202020594F5520202071
:103260002020202020000000000020202053756333
:10327000636573732020202020000000000048694F
:103280006E742121212120456D7074792044617470
:103290006142617365200A0011241FBECFE5D8E0AA
:1032A000DEBFCDBF11E0A0E6B0E0ECE3F5E702C081
:1032B00005900D92A438B107D9F722E0A4E8B1E057
:1032C00001C01D92A132B207E1F70E94BF2D0C94FC
:1032D0009C3A0C9400000895CF93DF9300D0CDB7B3
:1032E000DEB789839DE09A838A3049F441E050E05B
:1032F000BE016E5F7F4F87E790E00E94A43241E0FD
:1033000050E0BE016F5F7F4F87E790E00E94A432DC
:1033100080E090E00F900F90DF91CF9108950F9390
:103320001F93CF93DF93CDB7DEB76E970FB6F894A8
:10333000DEBF0FBECDBF8AE0FE013196DF01982FC0
:103340001D929A95E9F73A96DF01982F1D929A956A
:10335000E9F73A96DF011D928A95E9F761E081E786
:1033600090E00E94A82D811183C08E01055F1F4F40
:10337000BE016F5F7F4FC8010E94A0281F930F936B
:1033800086E091E09F938F930E94883786E294E0D5
:103390009F938F930E949E3780EF93E09F938F932C
:1033A0000E949E378AEB93E09F938F930E949E37F3
:1033B00087EB93E09F938F930E949E37CE014596B3
:1033C0002AE0FC0111922A95E9F76AE00E948C1C20
:1033D0000FB6F894DEBF0FBECDBF22C081E893E0E8
:1033E0009F938F930E949E378BE493E09F938F93DC
:1033F0000E949E3785E193E09F938F930E949E37B2
:1034000082E193E09F938F930E949E376AE0CE0102
:1034100045960E948C1C0FB6F894DEBF0FBECDBF40
:10342000BE016B5E7F4FCE0101960E944737892B0C
:10343000A9F68CED92E09F938F930E949E3787EAC6
:1034400092E09F938F930E949E3781E792E09F9333
:103450008F930E949E378EE692E09F938F930E94F7
:103460009E370FB6F894DEBF0FBECDBF81E01EC001
:1034700088E392E09F938F930E949E3782E092E0D0
:103480009F938F930E949E378CEC91E09F938F9334
:103490000E949E3789EC91E09F938F930E949E3704
:1034A0000FB6F894DEBF0FBECDBF80E06E960FB6AC
:1034B000F894DEBF0FBECDBFDF91CF911F910F916A
:1034C000089586EB91E30E947F1CAC0161E081E0EE
:1034D0000E944F2B8AEC91E30E947F1CAC0161E0BB
:1034E00082E00E944F2B83E991E09F938F930E948B
:1034F0009E378FE791E09F938F930E949E3786EBD4
:1035000091E39F938F930E949E378AE691E09F9369
:103510008F930E949E3785E591E09F938F930E9441
:103520009E378AEC91E39F938F930E949E3782E4AB
:1035300091E09F938F930E949E378CE091E09F9340
:103540008F930E949E3789E091E09F938F930E9412
:103550009E372FEF3DE389E4215030408040E1F772
:1035600000C0000081E00E94AB2A4CE151E065E020
:1035700081E00E944F2B83ED90E09F938F930E94F8
:103580009E378DE990E09F938F930E949E3787E648
:1035900090E09F938F930E949E3784E690E09F93E4
:1035A0008F930E949E379FEF2DE339E49150204086
:1035B0003040E1F700C0000081E00E94AB2A0E9489
:1035C0008F192DB73EB7265E3F4F0FB6F8943EBF1A
:1035D0000FBE2DBF813011F40E94BE21789487E682
:1035E00090E00E9437310E943229811103C00E946D
:1035F0003623F4CF0E940C27F1CFCF93DF9300D076
:103600001F92CDB7DEB780E8898381E08A838B8300
:10361000BE016F5F7F4F80E390E00E94EE2E88E056
:103620008983BE016F5F7F4F80E390E00E94EE2EA2
:1036300081E790E00E94782D0F900F900F90DF911E
:10364000CF9108950E94FF2B0E94362C8BEB90E0C7
:103650000E9469290E940B2B86E990E00E94162F98
:103660000E94AE2C88E890E00E94FB2F87E790E054
:103670000E946B320E94FD1A87E690E00E947C3027
:103680006BE679E184E00E94213280E690E00E94BE
:10369000402EF89489B7846089BF60E080E690E0AE
:1036A0000E945C2E8DEE91E00E94EC288DEE91E060
:1036B0000E941B379093850180938401019631F419
:1036C00082E390E090938501809384018FE990E0FC
:1036D00090931E0280931D0208951F920F920FB6C1
:1036E0000F9211240F900FBE0F901F901895CF933B
:1036F000DF931F92CDB7DEB7198282EB9CE19F93D7
:103700008F930E949E3785E59CE19F938F930E9443
:103710009E3788EF9BE19F938F930E949E378BE9A2
:103720009BE19F938F930E949E378EE39BE19F9333
:103730008F930E949E3781EE9AE19F938F930E9410
:103740009E3784E89AE19F938F930E949E3787E289
:103750009AE19F938F930E949E378AEC99E19F9301
:103760008F930E949E378DE699E19F938F930E94DD
:103770009E3780E199E19F938F930E949E3783EB60
:1037800098E19F938F930E949E3786E598E19F93DF
:103790008F930E949E3789EF97E19F938F930E94AA
:1037A0009E3786EF97E19F938F930E949E3741E06B
:1037B00050E0BE016F5F7F4F87E790E00E94C1320B
:1037C00084EF97E19F938F930E949E370FB6F894F2
:1037D000DEBF0FBECDBF89810F90DF91CF910895DD
:1037E0001F93CF93DF93009709F485C0EC0110E09D
:1037F0007FC041E068E080E390E00E94092F4DE146
:1038000050E0BE0188E890E00E945D3065E271E022
:10381000CE010E944737892B09F05AC089E896E00B
:103820009F938F930E949E3787E596E09F938F9397
:103830000E949E3785E296E09F938F930E949E3769
:1038400083EF95E09F938F930E949E3780EF95E0E2
:103850009F938F930E949E3781E00E94AB2A8AEB50
:1038600095E09F938F930E949E3786EA95E09F9301
:103870008F930E949E378AE192E39F938F930E94D9
:103880009E3784E995E09F938F930E949E3780E84E
:1038900095E09F938F930E949E378EE292E39F93D1
:1038A0008F930E949E378DE695E09F938F930E94A1
:1038B0009E3787E395E09F938F930E949E378DB745
:1038C0009EB74A960FB6F8949EBF0FBE8DBF01C03B
:1038D00011E040E068E080E390E00E94092F9FEF54
:1038E00027EA81E6915020408040E1F700C00000C7
:1038F000112309F47ECFDF91CF911F910895009796
:1039000041F0BC0186E891E00E94393786E891E0F9
:10391000089580E090E008950F931F93CF93DF9375
:10392000009791F0662391F0EC01062F10E0A801BA
:1039300060E070E00E944037A801BE0187E790E098
:103940000E94C13280E003C08FEF01C08FEFDF9192
:10395000CF911F910F9108950F931F93CF93DF93F2
:10396000CDB7DEB7A3970FB6F894DEBF0FBECDBFBD
:103970008E010F5F1F4F83E2F80111928A95E9F7DC
:1039800081EC97E19F938F930E949E378EE897E199
:103990009F938F930E949E378BE597E19F938F9320
:1039A0000E949E3788E597E19F938F930E949E37F0
:1039B0006BE0C8010E948C1C85E297E19F938F9376
:1039C0000E949E3782EF96E19F938F930E949E37CD
:1039D0008FEB96E19F938F930E949E378CEB96E13D
:1039E0009F938F930E949E376BE0CE010C960E94AE
:1039F0008C1C89E896E19F938F930E949E3786E501
:103A000096E19F938F930E949E3783E296E19F9366
:103A10008F930E949E3780E296E19F938F930E943E
:103A20009E3766E0CE0147960E948C1C8DEE95E194
:103A30009F938F930E949E378AEB95E19F938F937C
:103A40000E949E3787E895E19F938F930E949E374F
:103A500085E895E19F938F930E949E370FB6F89467
:103A6000DEBF0FBECDBF67E0CE014D960E948C1C1D
:103A7000C8010E94D42781111EC082E595E19F9361
:103A80008F930E949E378FE195E19F938F930E94C1
:103A90009E378CEE94E19F938F930E949E3789EE20
:103AA00094E19F938F930E949E370FB6F894DEBFE8
:103AB0000FBECDBF3DC08330F1F486EB94E19F9300
:103AC0008F930E949E3783E894E19F938F930E9487
:103AD0009E3780E594E19F938F930E949E378DE4FB
:103AE00094E19F938F930E949E370FB6F894DEBFA8
:103AF0000FBECDBF1DC08AE194E19F938F930E94BA
:103B00009E3787EE93E19F938F930E949E3784EBBD
:103B100093E19F938F930E949E3781EB93E19F9354
:103B20008F930E949E370FB6F894DEBF0FBECDBFB5
:103B3000A3960FB6F894DEBF0FBECDBFDF91CF9135
:103B40001F910F9108950F931F93CF93DF93CDB7DC
:103B5000DEB7A3970FB6F894DEBF0FBECDBF8E01C0
:103B60000F5F1F4F83E2F80111928A95E9F78EE704
:103B700093E19F938F930E949E378BE493E19F93F1
:103B80008F930E949E3788E193E19F938F930E94C9
:103B90009E3785E193E19F938F930E949E376BE060
:103BA000CE010C960E948C1CC8010E9428280FB6DA
:103BB000F894DEBF0FBECDBF81111EC082EE92E130
:103BC0009F938F930E949E378FEA92E19F938F93EA
:103BD0000E949E378CE792E19F938F930E949E37BD
:103BE00089E792E19F938F930E949E370FB6F894D6
:103BF000DEBF0FBECDBF1DC086E492E19F938F93C1
:103C00000E949E3783E192E19F938F930E949E379B
:103C100080EE91E19F938F930E949E378DED91E10D
:103C20009F938F930E949E370FB6F894DEBF0FBE0E
:103C3000CDBFA3960FB6F894DEBF0FBECDBFDF9108
:103C4000CF911F910F9108950F931F93CF93DF93FF
:103C5000CDB7DEB7A3970FB6F894DEBF0FBECDBFCA
:103C60008E010F5F1F4F83E2F80111928A95E9F7E9
:103C70008AEA91E19F938F930E949E3787E791E1B3
:103C80009F938F930E949E3784E491E19F938F933B
:103C90000E949E3781E491E19F938F930E949E370B
:103CA0006BE0CE010C960E948C1C60E0C8010E9463
:103CB00061270FB6F894DEBF0FBECDBF0196F9F0B5
:103CC00081E191E19F938F930E949E3781EE90E175
:103CD0009F938F930E949E3781EB90E19F938F93E8
:103CE0000E949E378EEA90E19F938F930E949E37A9
:103CF0000FB6F894DEBF0FBECDBF81E01EC08CE7CB
:103D000090E19F938F930E949E378AE490E19F9366
:103D10008F930E949E3788E190E19F938F930E943A
:103D20009E3785E190E19F938F930E949E370FB657
:103D3000F894DEBF0FBECDBF82E0A3960FB6F89415
:103D4000DEBF0FBECDBFDF91CF911F910F910895C0
:103D50000F931F93CF93DF93CDB7DEB7A3970FB623
:103D6000F894DEBF0FBECDBF8E010F5F1F4F83E201
:103D7000F80111928A95E9F788EA90E39F938F936F
:103D80000E949E3786E790E39F938F930E949E3711
:103D900084E490E39F938F930E949E3781E490E3A5
:103DA0009F938F930E949E376AE0C8010E948C1CEB
:103DB00061E0C8010E9461270FB6F894DEBF0FBE14
:103DC000CDBF0196F1F08FE090E39F938F930E9417
:103DD0009E378DED9FE29F938F930E949E378BEAD3
:103DE0009FE29F938F930E949E3788EA9FE29F9362
:103DF0008F930E949E370FB6F894DEBF0FBECDBFE3
:103E00001DC086E79FE29F938F930E949E3784E4B4
:103E10009FE29F938F930E949E3782E19FE29F9340
:103E20008F930E949E378FE09FE29F938F930E9413
:103E30009E370FB6F894DEBF0FBECDBFA3960FB668
:103E4000F894DEBF0FBECDBFDF91CF911F910F91D0
:103E500008951F93CF93DF93CDB7DEB7AE970FB61C
:103E6000F894DEBF0FBECDBF1982FE01329683E209
:103E7000DF011D928A95E9F710E073C282EB9EE2A2
:103E80009F938F930E949E3785E59EE29F938F9329
:103E90000E949E3788EF9DE29F938F930E949E37EA
:103EA0008BE99DE29F938F930E949E378EE39DE264
:103EB0009F938F930E949E3781EE9CE29F938F93F6
:103EC0000E949E3784E89CE29F938F930E949E37C6
:103ED00087E29CE29F938F930E949E378AEC9BE23D
:103EE0009F938F930E949E378DE69BE29F938F93C3
:103EF0000E949E3780E19BE29F938F930E949E37A2
:103F00008EE09BE29F938F930E949E3741E050E0AA
:103F1000BE016F5F7F4F87E790E00E94C1328BE068
:103F20009BE29F938F930E949E370FB6F894DEBF5B
:103F30000FBECDBF8981833309F444C130F481338E
:103F400059F0823309F4B9C00CC2843309F47BC13F
:103F5000853309F4E8C105C289ED9AE29F938F93F6
:103F60000E949E3787EA9AE29F938F930E949E3722
:103F700085E79AE29F938F930E949E3782E79AE2A9
:103F80009F938F930E949E376AE0CE0102960E9413
:103F90008C1C8FE69AE29F938F930E949E378DE34D
:103FA0009AE29F938F930E949E378BE09AE29F93B1
:103FB0008F930E949E3789ED99E29F938F930E9481
:103FC0009E3786ED99E29F938F930E949E376AE019
:103FD000CE010D960E948C1C83ED99E29F938F93E6
:103FE0000E949E3781EA99E29F938F930E949E37A9
:103FF0008FE699E29F938F930E949E378DE399E21B
:104000009F938F930E949E378AE399E29F938F93A9
:104010000E949E373FEF8DE399E4315080409040FD
:10402000E1F700C00000BE01635F7F4FCE01029642
:104030000E9476280FB6F894DEBF0FBECDBF811167
:104040001EC088E099E29F938F930E949E3786ED71
:1040500098E29F938F930E949E3784EA98E29F9301
:104060008F930E949E3781EA98E29F938F930E94DC
:104070009E370FB6F894DEBF0FBECDBF72C18FE67C
:1040800098E29F938F930E949E378DE398E29F93CF
:104090008F930E949E378BE098E29F938F930E94AC
:1040A0009E3788E098E29F938F930E949E370FB6C9
:1040B000F894DEBF0FBECDBF54C186ED97E29F934B
:1040C0008F930E949E3784EA97E29F938F930E947A
:1040D0009E3782E797E29F938F930E949E378FE6E9
:1040E00097E29F938F930E949E376AE0CE010296DB
:1040F0000E948C1C8DE397E29F938F930E949E37C2
:104100008BE097E29F938F930E949E3789ED96E212
:104110009F938F930E949E3786ED96E29F938F9395
:104120000E949E379FEFADE3B9E49150A040B040AC
:10413000E1F700C00000CE0102960E94CC280FB625
:10414000F894DEBF0FBECDBF81111EC084EA96E297
:104150009F938F930E949E3782E796E29F938F935F
:104160000E949E3780E496E29F938F930E949E3731
:104170008DE396E29F938F930E949E370FB6F8943B
:10418000DEBF0FBECDBFEDC08BE096E29F938F9355
:104190000E949E3789ED95E29F938F930E949E37F0
:1041A00087EA95E29F938F930E949E3784EA95E277
:1041B0009F938F930E949E370FB6F894DEBF0FBE79
:1041C000CDBFCFC081E00E94F42881111EC082E7DC
:1041D00095E29F938F930E949E3780E495E29F9390
:1041E0008F930E949E378EE095E29F938F930E945B
:1041F0009E378BE095E29F938F930E949E370FB678
:10420000F894DEBF0FBECDBFACC08FEC94E29F939D
:104210008F930E949E3783E994E29F938F930E942D
:104220009E3787E594E29F938F930E949E3784E5A3
:1042300094E29F938F930E949E370FB6F894DEBF4F
:104240000FBECDBF8EC082E294E29F938F930E94F7
:104250009E3780EF93E29F938F930E949E378EEB61
:1042600093E29F938F930E949E378BEB93E29F93F1
:104270008F930E949E376AE0CE0185960E948C1C27
:1042800088EB93E29F938F930E949E37CE01859691
:104290000E9461290FB6F894DEBF0FBECDBF811119
:1042A0001EC086E893E29F938F930E949E3784E519
:1042B00093E29F938F930E949E3782E293E29F93B3
:1042C0008F930E949E378FE193E29F938F930E947A
:1042D0009E370FB6F894DEBF0FBECDBF42C08CE153
:1042E00093E29F938F930E949E3781ED92E29F937A
:1042F0008F930E949E3786E892E29F938F930E944D
:104300009E378BE392E29F938F930E949E3788E3C0
:1043100092E29F938F930E949E370FB6F894DEBF70
:104320000FBECDBF1EC082E092E29F938F930E948A
:104330009E378CEC91E29F938F930E949E3786E983
:1043400091E29F938F930E949E3783E991E29F931E
:104350008F930E949E370FB6F894DEBF0FBECDBF7D
:1043600011E0112309F48ACDAE960FB6F894DEBFA2
:104370000FBECDBFDF91CF911F910895CF938EEDEA
:1043800091E30E947F1CAC0161E081E00E944F2B11
:1043900082EF91E30E947F1CAC0161E082E00E9409
:1043A0004F2B8DE591E29F938F930E949E3789E476
:1043B00091E29F938F930E949E378EED91E39F939E
:1043C0008F930E949E3786E391E29F938F930E9482
:1043D0009E3784E291E29F938F930E949E3782EFF3
:1043E00091E39F938F930E949E3782E191E29F9386
:1043F0008F930E949E378CED90E29F938F930E9443
:104400009E3789ED90E29F938F930E949E372FEF06
:104410008DE399E4215080409040E1F700C0000016
:1044200081E00E94AB2A83EA90E29F938F930E94DF
:104430009E378FE890E29F938F930E949E3786E08D
:1044400092E39F938F930E949E378CE790E29F9315
:104450008F930E949E3786E490E29F938F930E94F1
:104460009E3783E490E29F938F930E949E3786E06D
:1044700092E30E947F1CAC0161E081E00E944F2B1F
:104480002FEF8DE399E4215080409040E1F700C088
:1044900000008DB79EB74E960FB6F8949EBF0FBE24
:1044A0008DBFC0E0DEC00E94771B90E0FC01F19759
:1044B000E830F10508F0B5C0E65DFF4F0C94BD365D
:1044C0000E94AC1CCEC00E94A31DCBC00E94241E23
:1044D000C8C00E94A81EC5C08DE090E29F938F9334
:1044E0000E949E3784EE9FE19F938F930E949E3798
:1044F0000E9460289F938F938FE291E09F938F9308
:104500000E94883786ED9FE19F938F930E949E378C
:1045100080EA9FE19F938F930E949E378DE99FE1F0
:104520009F938F930E949E378DB79EB70E960FB6BE
:10453000F8949EBF0FBE8DBF94C00E944527811185
:1045400021C087E69FE19F938F930E949E3781E36E
:104550009FE19F938F930E949E378BEF9EE19F93E5
:104560008F930E949E3788EF9EE19F938F930E94C6
:104570009E378DB79EB708960FB6F8949EBF0FBEB4
:104580008DBF6FC080EC9EE19F938F930E949E37FA
:1045900088E89EE19F938F930E949E3780E59EE17D
:1045A0009F938F930E949E378DE49EE19F938F93FC
:1045B0000E949E378DB79EB708960FB6F8949EBF9F
:1045C0000FBE8DBF4EC00E94291F4BC08BE19EE1E4
:1045D0009F938F930E949E3789EE9DE19F938F93C7
:1045E0000E949E3787EB9DE19F938F930E949E3799
:1045F00084EB9DE19F938F930E949E379FEF2DE365
:1046000089E4915020408040E1F700C000008DB760
:104610009EB708960FB6F8949EBF0FBE8DBFC1E03F
:1046200020C08EE79DE19F938F930E949E3788E480
:104630009DE19F938F930E949E3782E19DE19F931E
:104640008F930E949E378FE09DE19F938F930E94EE
:104650009E378DB79EB708960FB6F8949EBF0FBED3
:104660008DBFCC2309F41FCFCF9108958AED90E33D
:104670000E947F1CAC0161E081E00E944F2B8EEE16
:1046800090E30E947F1CAC0161E082E00E944F2B0E
:104690008FED9FE09F938F930E949E378BEC9FE05E
:1046A0009F938F930E949E378AED90E39F938F9301
:1046B0000E949E3788EB9FE09F938F930E949E37C6
:1046C00084EA9FE09F938F930E949E378EEE90E343
:1046D0009F938F930E949E3782E99FE09F938F93D1
:1046E0000E949E378CE59FE09F938F930E949E3798
:1046F00089E59FE09F938F930E949E372FEF8DE374
:1047000099E4215080409040E1F700C00000ADB72F
:10471000BEB752960FB6F894BEBF0FBEADBF38C33A
:104720001092A20186E0E5EBF0E0DF011D928A9590
:10473000E9F781E00E94AB2A82E091E30E947F1CAE
:10474000AC0161E081E00E944F2B8AE192E30E947C
:104750007F1CAC0161E082E00E944F2B83E29FE06E
:104760009F938F930E949E378FE09FE09F938F933C
:104770000E949E3782E091E39F938F930E949E3721
:104780008DEF9EE09F938F930E949E3789EE9EE06F
:104790009F938F930E949E378AE192E39F938F931A
:1047A0000E949E3786ED9EE09F938F930E949E37D6
:1047B00080EA9EE09F938F930E949E378DE99EE052
:1047C0009F938F930E949E378DB79EB742960FB6E8
:1047D000F8949EBF0FBE8DBF60E081E790E00E941D
:1047E000A82D8130C9F360E081E790E00E94A82DF8
:1047F00081112BC282EF91E00E94F01B60E082EFFA
:1048000091E00E94612790939C0180939B018F3FD0
:10481000AFEF9A07C9F144E267EA71E00E94B42C55
:1048200083EC91E00E941B37092E000CAA0BBB0BF6
:104830008093B1009093B200A093B300B093B40002
:104840008DE69EE09F938F930E949E378DE39EE0BE
:104850009F938F930E949E378DE09EE09F938F934E
:104860000E949E378AE09EE09F938F930E949E371E
:1048700081E08093A1018DB79EB708960FB6F8949A
:104880009EBF0FBE8DBF22C088ED9DE09F938F938A
:104890000E949E3786EA9DE09F938F930E949E37E9
:1048A00084E79DE09F938F930E949E3781E79DE070
:1048B0009F938F930E949E371092A101ADB7BEB710
:1048C00018960FB6F894BEBF0FBEADBF8091A10180
:1048D000813009F0BAC10E94AB2A8AE291E30E94BA
:1048E0007F1CAC0161E081E00E944F2B8EE391E3DD
:1048F0000E947F1CAC0161E082E00E944F2B8BE3A1
:104900009DE09F938F930E949E3787E29DE09F9347
:104910008F930E949E378AE291E39F938F930E9428
:104920009E3784E19DE09F938F930E949E3780E0A5
:104930009DE09F938F930E949E378EE391E39F9318
:104940008F930E949E378CEE9CE09F938F930E94E2
:104950009E3786EB9CE09F938F930E949E3783EB5C
:104960009CE09F938F930E949E37BFEF2DE389E4D5
:10497000B15020408040E1F700C0000081E00E947B
:10498000AB2A82E591E30E947F1CAC0161E081E0EB
:104990000E944F2B61E082E00E94D22A8DE79CE0CA
:1049A0009F938F930E949E3789E69CE09F938F93FD
:1049B0000E949E3782E591E39F938F930E949E37DA
:1049C00086E59CE09F938F930E949E3780E29CE057
:1049D0009F938F930E949E378DE19CE09F938F93CE
:1049E0000E949E37ADB7BEB75E960FB6F894BEBFB5
:1049F0000FBEADBFC0E013C0BFEF23EC89E0B150E4
:104A000020408040E1F700C000008BEB90E00E9466
:104A1000B2298093A2018A3211F41092A2018091EE
:104A2000A201882349F3833271F08AE20E94912A1D
:104A3000EC2FF0E0EB54FF4F8091A20180831092A5
:104A4000A201CF5FECCF85EB90E00E941B37092ECF
:104A5000000CAA0BBB0B80939D0190939E01A09329
:104A60009F01B093A00181E00E94AB2A67E0809192
:104A70009D0190919E010E945E2B9FEFADE3B9E4F2
:104A80009150A040B040E1F700C0000040919D016E
:104A900050919E0160919F017091A0018091AD00A5
:104AA0009091AE00A091AF00B091B000841795072F
:104AB000A607B70770F08091B1009091B200A09165
:104AC000B300B091B40084179507A607B70708F0A4
:104AD0005DC081E00E94AB2A87EE9BE09F938F939D
:104AE0000E949E3783ED9BE09F938F930E949E3799
:104AF00086E691E39F938F930E949E3781EC9BE023
:104B00009F938F930E949E378DEA9BE09F938F9394
:104B10000E949E378AE791E39F938F930E949E376E
:104B20008AE99BE09F938F930E949E3784E69BE0E7
:104B30009F938F930E949E3781E69BE09F938F9374
:104B40000E949E3786E691E30E947F1CAC0161E0E3
:104B500081E00E944F2B8AE791E30E947F1CAC0109
:104B600061E082E00E944F2B2FEF8DE399E421500A
:104B700080409040E1F700C00000ADB7BEB752964C
:104B80000FB6F894BEBF0FBEADBF5FC0841B950BC0
:104B9000A60BB70B8093B1009093B200A093B30023
:104BA000B093B4004AE063EC71E00E945B3781E0AF
:104BB0000E94AB2A67E08091B1009091B2000E9400
:104BC0005E2B8091B4008F938091B3008F9380917E
:104BD000B2008F938091B1008F9382E391E09F9315
:104BE0008F930E94883744E267EA71E080919B01CD
:104BF00090919C010E94162D8AE692E30E947F1CF0
:104C0000AC0161E081E00E944F2B8AE791E30E94B2
:104C10007F1CAC0161E082E00E944F2B66E480E0E3
:104C20000E943F2CBFEF23ED80E3B1502040804035
:104C3000E1F700C0000060E080E00E943F2C0F9090
:104C40000F900F900F900F900F9084E09BE09F9338
:104C50008F930E949E3787EA9AE09F938F930E94DA
:104C60009E378AE49AE09F938F930E949E378DEE41
:104C700099E09F938F930E949E3780E999E09F93DC
:104C80008F930E949E3783E399E09F938F930E94B6
:104C90009E3786ED98E09F938F930E949E3789E719
:104CA00098E09F938F930E949E3787E798E09F93A9
:104CB0008F930E949E3781E00E94AB2A4DE451E021
:104CC00061E081E00E944F2B4CE551E061E082E021
:104CD0000E944F2BADB7BEB752960FB6F894BEBF29
:104CE0000FBEADBF81E052C01092A20113C0BFEF52
:104CF00023EC89E0B15020408040E1F700C0000083
:104D00008BEB90E00E94B2298093A2018A3211F4C9
:104D10001092A2018091A201882349F381E00E94B0
:104D2000AB2A4BE651E061E081E00E944F2B4091BD
:104D3000A20166E082E00E94EF2A8091A201813305
:104D400019F0823329F009C010929A0180E01EC048
:104D500081E080939A0180E019C08AE198E09F93F6
:104D60008F930E949E378DEB97E09F938F930E94C5
:104D70009E3780E697E09F938F930E949E370F9017
:104D80000F900F900F900F900F9081E08111ACCF9A
:104D900080919A01882309F4C3CC9FEFA7EAB1E67A
:104DA0009150A040B040E1F700C000008AE297E0D7
:104DB0009F938F930E949E3784EF96E09F938F93EB
:104DC0000E949E378EEB96E09F938F930E949E37B2
:104DD0008BEB96E09F938F930E949E3781E00E9419
:104DE000AB2A82E492E30E947F1CAC0161E081E087
:104DF0000E944F2B86E592E30E947F1CAC0161E08C
:104E000082E00E944F2B8DB79EB708960FB6F8949C
:104E10009EBF0FBE8DBFFFCF8EE891E30E947F1C27
:104E2000AC0161E081E00E944F2B82EA91E30E9495
:104E30007F1CAC0161E082E00E944F2B81E095E095
:104E40009F938F930E949E378BEC94E09F938F9358
:104E50000E949E3785E994E09F938F930E949E372E
:104E60008FE594E09F938F930E949E378CE594E0AA
:104E70009F938F930E949E378DB79EB70A960FB669
:104E8000F8949EBF0FBE8DBFFFCFCF93DF9300D0AE
:104E900000D0CDB7DEB71A8219828AEC9BE69C83DC
:104EA0008B8344E0BE016F5F7F4F80E090E00E9403
:104EB000162D80E00F900F900F900F90DF91CF9103
:104EC0000895FF920F931F93CF93DF938C01F62EDB
:104ED00042E063EA71E080E090E00E94B42C8091AF
:104EE000A3019091A401892B09F04CC08EE792E3B5
:104EF0009F938F930E949E370F900F908FEF9FEF9D
:104F00004DC042E065EA71E0CE010E94B42C809170
:104F1000A5019091A6018F3F2FEF920789F1209173
:104F2000A3013091A401215031093093A4012093B1
:104F3000A30144E267EA71E00E94B42CF1100EC0B4
:104F4000B801655F7F4F82EB91E00E944737892B64
:104F500089F48091A5019091A60120C0B80187EA4B
:104F600091E00E944737892B29F48091A501909107
:104F7000A60114C08091A3019091A401892B61F036
:104F8000229602C0C2E0D0E0CA3C8BE6D80708F403
:104F9000B8CF8FEF9FEF02C08FEF9FEFDF91CF91E0
:104FA0001F910F91FF9008950F931F93CF93DF935D
:104FB00000D000D0CDB7DEB78C011A8219821C82D6
:104FC0001B8242E0BE016D5F7F4F80E090E00E9457
:104FD000B42C8B819C81853E954370F560E0C801BF
:104FE0000E946127019651F52B813C81C9010196F0
:104FF0009C838B8344E2429FC001439F900D112408
:10500000865394499A838983B8010E94162D8B8117
:105010009C81019642E0BE016F5F7F4F880F991F10
:105020000E94162D42E0BE016D5F7F4F80E090E050
:105030000E94162D80E003C083E001C081E00F9044
:105040000F900F900F90DF91CF911F910F910895C6
:10505000CF93DF9300D000D0CDB7DEB760E00E94E1
:1050600061272FEF3FEF3A8329831C821B828F3FFA
:105070002FEF9207E9F042E0BE016F5F7F4F0E9481
:10508000162D42E0BE016D5F7F4F80E090E00E94F0
:10509000B42C8B819C8101979C838B8342E0BE0161
:1050A0006D5F7F4F80E090E00E94162D80E001C090
:1050B00082E00F900F900F900F90DF91CF910895A5
:1050C000CF93DF9300D0CDB7DEB71A82198242E0CA
:1050D000BE016F5F7F4F80E090E00E94B42C898119
:1050E0009A810F900F90DF91CF910895EF92FF92E8
:1050F0000F931F93CF93DF931F92CDB7DEB77C0141
:105100008B0183E5898341E0BE016F5F7F4F88EEAD
:105110009DEF0E94162D49E0B70182EF9DEF0E949E
:10512000162D49E0B8018CEF9DEF0E94162D80E00E
:105130000F90DF91CF911F910F91FF90EF90089505
:10514000EF92FF920F931F93CF93DF931F92CDB7F0
:10515000DEB77C018B01198241E0BE016F5F7F4F9A
:1051600088EE9DEF0E94B42C8981833561F44AE07A
:10517000B70182EF9DEF0E94B42C4AE0B8018CEF9A
:105180009DEF0E94B42C80E00F90DF91CF911F9192
:105190000F91FF90EF9008950F931F93CF93DF939C
:1051A00000D0CDB7DEB78C011A82198242E0BE0171
:1051B0006F5F7F4F88EE9DEF0E94162D45E0B8018E
:1051C00086E09EEF0E94162D80E00F900F90DF91F9
:1051D000CF911F910F9108954AE0BC0186E09EEFA8
:1051E0000E94B42C80E00895CF93DF93CDB7DEB753
:1051F0002A970FB6F894DEBF0FBECDBF96E0ECEF56
:10520000F0E0DE01119601900D929A95E1F7FE0112
:10521000379694E0DF011D929A95E9F7811109C054
:105220004AE0BE016F5F7F4F80E19EEF0E94162D26
:105230000FC0813069F4BE016F5F7F4F8AE0FB01D0
:1052400011928A95E9F74AE080E19EEF0E94162DBF
:1052500080E02A960FB6F894DEBF0FBECDBFDF9177
:10526000CF9108950F931F93CF93DF93CDB7DEB700
:105270002A970FB6F894DEBF0FBECDBF8E010F5F29
:105280001F4F8AE0F80111928A95E9F74AE0B801C8
:1052900080E19EEF0E94B42C6CEF70E0C8010E9488
:1052A0004737892B11F481E001C080E02A960FB6C0
:1052B000F894DEBF0FBECDBFDF91CF911F910F914C
:1052C000089546E0BC018AE19EEF0E94162D80E021
:1052D0000895FF920F931F93CF93DF938C0181E08A
:1052E0008093CB01F12C19C0CF2DD0E0CE01880FD7
:1052F000991FC80FD91FC00FD11F8E858093CA0177
:105300006AEC71E08C859D850E94EE2E41E06E85F1
:105310008C859D850E94092FF39482E08F1520F7DC
:10532000EAECF1E0118281E08283C0E013C0EC2F4F
:10533000F0E0CF01880F991FE80FF91FE00FF11F70
:1053400082818093CA016AEC71E0808191810E9420
:10535000EE2ECF5FC43058F3DF91CF911F910F91A4
:10536000FF900895CF92DF92EF92FF920F931F93D9
:10537000CF93DF93EC01C12C4DC00C2D10E0F80150
:10538000EE0FFF1FE00FF11FEC0FFD1F40E06685E1
:10539000848595850E94092FD12C2AC0ED2CF12CF3
:1053A000F701EE0FFF1FEE0DFF1DEC0FFD1F6281D9
:1053B000808191810E94012F811119C0C801880F3D
:1053C000991F800F911FC80FD91F41E06E858C85F2
:1053D0009D850E94092FC701880F991F8E0D9F1D63
:1053E00080539F4FFC01E00FF11F808118C0D394C0
:1053F00083E08D1598F6F801EE0FFF1F0E0F1F1FAB
:10540000FE01E00FF11F41E06685848595850E94CD
:10541000092FC39482E08C1508F0AFCF80E0DF91B4
:10542000CF911F910F91FF90EF90DF90CF90089553
:10543000CF93DF93CCEDD0E041E068858E819F81F2
:105440000E94092F85E08A95F1F7000040E0688509
:105450008E819F810E94092F8FE39FE10197F1F7D1
:1054600000C00000DF91CF9108950F931F93CF9359
:10547000C82F83E090E023C08C010F5F1F4F41E0F5
:1054800050E0002E02C0440F551F0A94E2F72C2F63
:1054900030E042235323002E02C0559547950A94CD
:1054A000E2F7FC01EE0FFF1F8E0F9F1FFC01E4527D
:1054B000FF4F6281808191810E94092FC80187304E
:1054C0009105D4F20E94182A03E010E021C0C8011F
:1054D000039741E050E0082E02C0440F551F0A9484
:1054E000E2F72C2F30E04223532302C05595479515
:1054F0008A95E2F7F801EE0FFF1FE00FF11FE4526B
:10550000FF4F6281808191810E94092F0F5F1F4FA1
:1055100007301105E4F20E94182ACF911F910F91D4
:1055200008951F93CF93DF93182FCCEDD0E041E087
:105530006A81888199810E94092F40E06D818B8169
:105540009C810E94092F812F0E94352A80E0DF91E3
:10555000CF911F9108951F93CF93DF93182FCCED18
:10556000D0E040E06A81888199810E94092F40E063
:105570006D818B819C810E94092F812F0E94352A89
:1055800080E0DF91CF911F910895CF93DF93EC01DD
:1055900003C021960E94912A88818111FACFDF9160
:1055A000CF910895CF93DF9300D0CDB7DEB790E8C9
:1055B000998390EC9A83E82FF0E0319781E090E0B6
:1055C0008C0F9D1FE80FF91F8081860F81500E946C
:1055D000AB2A80E00F900F90DF91CF9108951F9339
:1055E000CF93DF93142F0E94D22ACCEDD0E041E07C
:1055F0006A81888199810E94092F40E06D818B81A9
:105600009C810E94092F812F0E94352A80E0DF9122
:10561000CF911F9108950F931F93CF93DF9300D0E5
:105620001F92CDB7DEB72FEF89EF90E02150804079
:105630009040E1F700C0000081E08A831B8200E017
:1056400010E012C0F801EE0FFF1FE00FF11FE4524F
:10565000FF4F82818983BE016F5F7F4F808191817F
:105660000E94EE2E0F5F1F4F073011055CF383E39E
:105670000E94AB2A82E30E94AB2A88E20E94AB2AF6
:105680008CE00E94AB2A81E00E94AB2A80E00F9060
:105690000F900F90DF91CF911F910F910895CF93AD
:1056A000DF93EA010E94D22A03C021960E94912A28
:1056B00088818111FACFDF91CF910895EF92FF9207
:1056C0000F931F93CF93DF93CDB7DEB7EDB6FEB642
:1056D0002DB73EB7261B31090FB6F8943EBF0FBE5B
:1056E0002DBF0DB71EB70F5F1F4F4AE050E0B80146
:1056F0000E945037C8010E94C52A80E00FB6F89476
:10570000FEBE0FBEEDBEDF91CF911F910F91FF90B6
:10571000EF900895EF92FF920F931F93CF93DF9333
:10572000C82FD0E07E01EE0CFF1C87010C0F1D1F5F
:10573000000F111F09581E4F40E0F801648180815D
:1057400091810E94092FE80140E06D818A819B814F
:105750000E94092FDF91CF911F910F91FF90EF9041
:105760000895EF92FF920F931F93CF93DF93C82F6B
:10577000D0E07E01EE0CFF1C87010C0F1D1F000FF7
:10578000111F09581E4F41E0F80164818081918109
:105790000E94092FE80140E06D818A819B810E946F
:1057A000092FDF91CF911F910F91FF90EF900895F6
:1057B000EF92FF920F931F93CF93DF93C82FD0E008
:1057C0007E01EE0CFF1C87010C0F1D1F000F111F27
:1057D00009581E4F40E0F8016481808191810E9448
:1057E000092FE80141E06D818A819B810E94092F88
:1057F000DF91CF911F910F91FF90EF9008950F933C
:105800001F93CF93DF9300D01F92CDB7DEB71982DD
:105810001A821B8281E08A8342EF50E060E880E3D5
:1058200090E00E94DE33811118C010E012C004E045
:105830000983BE016F5F7F4F86E390E00E94EE2EEA
:105840000983BE016F5F7F4F86E390E00E94EE2EDA
:105850001F5F123060F380E001C083E00F900F9073
:105860000F90DF91CF911F910F91089582EF90E0FB
:105870000E944E34882311F083E008950895CF9359
:105880009091CD01961305C09091F100981709F4FD
:1058900062C0C62F823071F130F48823E1F181308B
:1058A00009F449C058C08330A1F0843009F053C0D6
:1058B00080E00E948A2B81E00E948A2B84E0809302
:1058C000F1001092CD0162EF70E080E00E9456344A
:1058D00042C080E00E94B12B81E00E94B12B83E0A6
:1058E0008093F100C093CD0162EF70E08C2F0E9495
:1058F000563431C080E00E94D82B81E00E94D82B22
:1059000082E08093F100C093CD0162EF70E08C2FB4
:105910000E94563420C080E00E94D82B81E00E9473
:10592000B12B1092F100C093CD0162EF70E08C2F8B
:105930000E94563410C080E00E94B12B81E00E948A
:10594000D82B81E08093F100C093CD0162EF70E02D
:105950008C2F0E94563480E0CF91089586E990E024
:105960000E94162F80E008958F929F92AF92BF926F
:10597000CF92DF92EF920F931F93CF936115710532
:1059800009F446C0442309F445C0C42F6B01AC019F
:105990005C01AA0CAB2CAA1CBB08B1944C01E89486
:1059A00087F89924C4018C0F911D8138910530F13D
:1059B00080E8E82EE8188B0122E060EA86E990E0B2
:1059C0000E949A2F00E810E0081919098C2F880D01
:1059D0006894EE24E7F8E80E0C0D1D1DA5014F5F3D
:1059E0005F4F5695542F44275795479522E060EA1C
:1059F00086E990E00E949A2F80E00DC0EC2E8B018A
:105A000022E060EA86E990E00E949A2F80E003C0DD
:105A100081E001C081E0CF911F910F91EF90DF9065
:105A2000CF90BF90AF909F908F9008958F929F924C
:105A3000AF92BF92CF92DF92EF920F931F93CF93CB
:105A40006115710509F446C0442309F445C0C42F0B
:105A50006B01AC015C01AA0CAB2CAA1CBB08B19475
:105A60004C01E89487F89924C4018C0F911D81386A
:105A7000910530F180E8E82EE8188B0122E060EA19
:105A800086E990E00E94572F00E810E008191909F4
:105A90008C2F880D6894EE24E7F8E80E0C0D1D1D80
:105AA000A5014F5F5F4F5695542F44275795479553
:105AB00022E060EA86E990E00E94572F80E00DC066
:105AC000EC2E8B0122E060EA86E990E00E94572FDD
:105AD00080E003C081E001C081E0CF911F910F9170
