S01900004E6F6E426C6F636B696E674B65795061642E7372656379
S11300000C942A000C942C040C9453040C947A043D
S11300100C9447000C9447000C9447000C94470040
S11300200C9447000C94D0000C9447000C944700A7
S11300300C9447000C9447000C9447000C94470020
S11300400C9447000C9447000C9447000C94470010
S11300500C94470011241FBECFE5D8E0DEBFCDBF0E
S113006010E0A0E6B0E0ECEAFDE002C005900D92DD
S1130070A03BB107D9F720E0A0EBB0E001C01D928E
S1130080AF3CB207E1F70E9427040C94D4060C9409
S113009000008091B0009091B10001969093B1005E
S11300A08093B0008091BE00813071F48091B300E0
S11300B08F5F8093B300843139F41092BE001092A4
S11300C0B30081E08093C1008091BF00813021F5AD
S11300D08091B2008F5F8093B2008130E9F4109276
S11300E0BF001092B2001092BC001092BB0080912D
S11300F0BA000E94DE01811104C081E08093BF0038
S113010008956AEB70E082EC90E00E944E05811144
S113011003C081E08093BF00089581E790E00E94CE
S1130120FC0086E690E00E94C90489B7846089BF18
S113013086E690E00E94EA0469E470E084E00E94AC
S1130140150586E690E00E94EA0478940E94E50290
S113015066E088EE93E00E94330387EA90E00E9411
S1130160BF022FEF83ED90E3215080409040E1F7F0
S113017000C0000081E00E948C028330D9F308950E
S1130180CF9381E790E00E94AB01C82F81E00E94E9
S11301908C028330D9F38C2F0E946D02CF91089585
S11301A01F920F920FB60F9211242F933F934F93E8
S11301B05F936F937F938F939F93AF93BF93EF93CB
S11301C0FF930E94490080916B0090916C00809590
S11301D090959DBD8CBDFF91EF91BF91AF919F9183
S11301E08F917F916F915F914F913F912F910F90DC
S11301F00FBE0F901F901895FF920F931F93CF93EC
S1130200DF938C0181E08093B500F12C19C0CF2DD0
S1130210D0E0CE01880F991FC80FD91FC00FD11F7E
S11302208E858093B40064EB70E08C859D850E947C
S1130230A10441E06E858C859D850E94BC04F394E5
S113024082E08F1520F7E4EBF0E0118281E08283F5
S1130250C0E013C0EC2FF0E0CF01880F991FE80F26
S1130260F91FE00FF11F82818093B40064EB70E00A
S1130270808191810E94A104CF5FC43058F3DF9143
S1130280CF911F910F91FF900895CF92DF92EF923B
S1130290FF920F931F93CF93DF93EC01C12C4DC0BA
S11302A00C2D10E0F801EE0FFF1FE00FF11FEC0F13
S11302B0FD1F40E06685848595850E94BC04D12C91
S11302C02AC0ED2CF12CF701EE0FFF1FEE0DFF1DE0
S11302D0EC0FFD1F6281808191810E94B404811121
S11302E019C0C801880F991F800F911FC80FD91F0B
S11302F041E06E858C859D850E94BC04C701880FF2
S1130300991F8E0D9F1D8A579F4FFC01E00FF11F0F
S1130310808118C0D39483E08D1598F6F801EE0F10
S1130320FF1F0E0F1F1FFE01E00FF11F41E0668546
S1130330848595850E94BC04C39482E08C1508F0E2
S1130340AFCF80E2DF91CF911F910F91FF90EF909B
S1130350DF90CF9008950E9445018823B9F09091D1
S1130360C000992319F0913041F0089581E0809301
S1130370C0008093BE0080E008959091C100913048
S113038029F41092C0001092C10080E00895CF9328
S1130390DF93C2E9D0E041E068858E819F810E94AD
S11303A0BC0485E08A95F1F7000040E068858E8101
S11303B09F810E94BC04DF91CF9108951F93CF9336
S11303C0DF931091B900113009F45DC020F01230B0
S11303D009F468C07AC08093B80083E090E024C038
S11303E0EC01219641E050E09A010C2E02C0220F4C
S11303F0331F0A94E2F74091B80050E0422353239C
S11304000C2E02C0559547950A94E2F7FC01EE0FB5
S1130410FF1F8E0F9F1FFC01EE56FF4F62818081EC
S113042091810E94BC04CE0187309105CCF20E94D8
S1130430C70182E08093B9001092C40049C09E01B4
S11304402350310941E050E0CA01022E02C0880F56
S1130450991F0A94E2F74091B80050E048235923C9
S113046002C0559547952A95E2F7FE01EE0FFF1F4E
S1130470EC0FFD1FEE56FF4F6281808191810E9437
S1130480BC04219602C0C3E0D0E0C730D105BCF261
S11304900E94C70182E08093B90081E08093C40088
S11304A010E016C01091BB00111111C08091C4005E
S11304B0811105C091E09093B900182F09C08130D3
S11304C039F41092B900182F03C010E001C010E0F5
S11304D0812FDF91CF911F910895CF93DF93809364
S11304E0BA008091BF00813099F0C2E9D0E041E0C8
S11304F06A81888199810E94BC0440E06D818B816E
S11305009C810E94BC0481E08093BF0080E001C014
S113051083E0DF91CF910895CF93DF939091B7005B
S1130520992319F09130E1F022C09091BF009130ED
S113053001F18093BA00C2E9D0E040E06A81888189
S113054099810E94BC0440E06D818B819C810E9452
S1130550BC0481E08093BF008093B70083E00CC0AB
S11305608091BF00811107C01092B70005C080E0E0
S113057003C083E001C083E0DF91CF9108950F931E
S11305801F93CF93DF931F92CDB7DEB78C011982EF
S1130590B80182EC90E00E943105F8018081882343
S11305A019F00F5F1F4FF4CFBE016F5F7F4F82ECD6
S11305B090E00E944E0589810E946D0280E00F90B8
S11305C0DF91CF911F910F9108950F931F93CF93B4
S11305D0DF9300D01F92CDB7DEB72FEF89EF90E005
S11305E0215080409040E1F700C0000081E08A8300
S11305F01B8200E010E012C0F801EE0FFF1FE00FB5
S1130600F11FEE56FF4F82818983BE016F5F7F4FDA
S1130610808191810E94A1040F5F1F4F0730110553
S11306205CF383E30E948C028330D9F382E30E945B
S11306308C028330D9F388E20E948C028330D9F390
S11306408CE00E948C028330D9F381E00E948C02FA
S11306508330D9F380E00F900F900F90DF91CF910A
S11306601F910F910895EF92FF920F931F93CF93D1
S1130670DF93CDB7DEB7EDB6FEB62DB73EB7261B7A
S113068031090FB6F8943EBF0FBE2DBF0DB71EB78C
S11306900F5F1F4F4AE0B8010E949F06C8010E94E5
S11306A0BF0280E00FB6F894FEBE0FBEEDBEDF9130
S11306B0CF911F910F91FF90EF900895CF92DF9209
S11306C0EF92FF92FB01309749F121153105410565
S11306D0510531F1213031054105510561F4208185
S11306E0FC01208380E01FC0FFEFCF1ADF0AEF0A6E
S11306F0FF0AFB0104C0C12CD12C7601C394618193
S113070072816115710581F7C216D306E406F506F8
S113071048F02081FC01208380E005C082E003C012
S113072082E001C083E0FF90EF90DF90CF900895C6
S11307301F93CF93DF936115710591F0EB01182F8F
S113074083E090E00E947E05009761F02881398162
S1130750FC013283218310839983888380E003C062
S113076082E001C081E0DF91CF911F910895CF9283
S1130770DF92EF92FF920F931F93CF93DF93FC01CD
S1130780A081B181892B09F452C06115710509F466
S113079050C0109709F44FC0EB016130710559F452
S11307A011962D913C91129731832083CD010E94A3
S11307B0160680E043C001E010E020E030E003C012
S11307C0DF01970186011196ED91FC9112978181C9
S11307D092810097A9F0680179014FEFC41AD40AF5
S11307E0E40AF40AAE0141505109052E000C660BCF
S11307F0770B041715072607370714F397018601AB
S11308002197AE01DD0F660B770B01501109210909
S11308103109041715072607370779F012969C93B8
S11308208E931197CF010E94160680E007C082E0E4
S113083005C082E003C082E001C083E0DF91CF9174
S11308401F910F91FF90EF90DF90CF9008950E9439
S11308508D000E94C000FDCF1F920F920FB60F9221
S113086011242F933F934F935F936F937F938F93B1
S11308709F93AF93BF93EF93FF93E091C500F091E3
S1130880C6000995FF91EF91BF91AF919F918F9110
S11308907F916F915F914F913F912F910F900FBE78
S11308A00F901F9018951F920F920FB60F9211245C
S11308B02F933F934F935F936F937F938F939F9364
S11308C0AF93BF93EF93FF93E091C900F091CA00F7
S11308D00995FF91EF91BF91AF919F918F917F9176
S11308E06F915F914F913F912F910F900FBE0F9099
S11308F01F9018951F920F920FB60F9211242F93E9
S11309003F934F935F936F937F938F939F93AF9393
S1130910BF93EF93FF93E091C700F091C80009954E
S1130920FF91EF91BF91AF919F918F917F916F91C3
S11309305F914F913F912F910F900FBE0F901F9099
S11309401895FC01DB0111968C911197813029F4E3
S11309508C919181892B81830895DB019C919095E1
S11309608181982391830895FC018081682311F08B
S113097081E0089580E00895442329F0FC01228158
S1130980622B628308956095FC0122816223628355
S113099008950097D9F0FC012185211103C013BEED
S11309A012BE0BC0223019F415BC14BC06C0213091
S11309B079F41FBC1EBC1DBC1CBCFC018581968146
S11309C0809590959DBD8CBD80E0089581E008954B
S11309D082E00895009729F1FC012185211109C0C5
S11309E023B7287F23BF23B78085822B83BF80E072
S11309F00895223051F425B5287F25BD25B5FC0185
S1130A008085822B85BD80E00895213061F42EB568
S1130A10287F2EBD2EB5FC018085822B8EBD80E003
S1130A20089581E0089582E00895672BB1F088303D
S1130A30B1F038F4813078F0833088F0843079F084
S1130A400AC0803261F018F4803149F004C0803467
S1130A5031F0803821F082E0089581E0089580E04B
S1130A6008950097A9F061157105A1F0FB01BC017F
S1130A7080810E94980381110FC08091BC009091E5
S1130A80BD0001969093BD008093BC0080E0089562
S1130A9081E0089581E0089584E00895CF93DF9381
S1130AA0009711F16115710509F1FB01EC016881F1
S1130AB0798121E030E040E050E0CF010E945E0304
S1130AC0811116C061E070E0CE010E94B70381116C
S1130AD011C08091BC009091BD0001979093BD001E
S1130AE08093BC0080E007C081E005C081E003C0C2
S1130AF082E001C082E0DF91CF9108950F931F93AC
S1130B00CF93DF938230910510F482E090E0E0917E
S1130B10CD00F091CE0020E030E0A0E0B0E03097CE
S1130B2019F1408151810281138148175907C8F096
S1130B308417950769F4109731F012960C93129765
S1130B4013961C9327C00093CD001093CE0022C0AF
S1130B502115310519F04217530718F49A01BD0104
S1130B60EF01DF01F801DBCF21153105F9F0281B76
S1130B70390B2430310580F48A819B81611571051C
S1130B8021F0FB019383828304C09093CE00809371
S1130B90CD00FE01329644C0FE01E20FF31F8193A3
S1130BA0919322503109398328833AC02091CB0094
S1130BB03091CC00232B41F42091620030916300EA
S1130BC03093CC002093CB002091600030916100E1
S1130BD02115310541F42DB73EB740916400509181
S1130BE06500241B350BE091CB00F091CC00E2179B
S1130BF0F307A0F42E1B3F0B2817390778F0AC013C
S1130C004E5F5F4F2417350748F04E0F5F1F509318
S1130C10CC004093CB008193919302C0E0E0F0E0DC
S1130C20CF01DF91CF911F910F910895CF93DF935F
S1130C30009709F481C0FC01329713821282A091BB
S1130C40CD00B091CE00109781F420813181820FC4
S1130C50931F2091CB003091CC002817390751F510
S1130C60F093CC00E093CB0067C0ED0120E030E0CE
S1130C70CE17DF0740F44A815B819E01411551057F
S1130C80F1F0EA01F5CFD383C28340815181840F0F
S1130C90951FC817D90759F488819981840F951F26
S1130CA00296918380838A819B8193838283211519
S1130CB0310529F4F093CE00E093CD003DC0E90165
S1130CC0FB83EA8349915991C40FD51FEC17FD07A3
S1130CD061F480819181840F951F0296E9019983C3
S1130CE08883828193819B838A83E0E0F0E012967B
S1130CF08D919C911397009719F0FD01DC01F7CFBA
S1130D008D919C9111979D012E5F3F4F820F931FF0
S1130D102091CB003091CC002817390769F4309723
S1130D2029F41092CE001092CD0002C013821282D8
S1130D30B093CC00A093CB00DF91CF910895BB2753
S1130D404A3031F4992322F4BDE2909581959F4F66
S1130D500C94AB06BB27FB015527AA27880F991FC4
S1130D60AA1FA41710F0A41B83955051B9F7A05DD6
S1130D70AA3308F0A95DA193009779F7B111B19353
S1130D801192CB010C94C406DC01FC01672F719114
S1130D907723E1F7329704C07C916D93708362915D
S10F0DA0AE17BF07C8F30895F894FFCF06
S1130DAC0000CF002000FF1F480000803E06010118
S1130DBC0433001033000833000433000233008082
S1130DCC3300403300203132333435363738392A46
S1130DDC3023390002390004390008390010390075
S1130DEC2039004039008077656C636F6D650000B5
S9030000FC
