:100000000C942A000C9476030C949D030C94C40366
:100010000C9447000C9447000C9447000C94470044
:100020000C9447000C94E4000C9447000C94470097
:100030000C9447000C9447000C9447000C94470024
:100040000C9447000C9447000C9447000C94470014
:100050000C94470011241FBECFE5D8E0DEBFCDBF12
:1000600010E0A0E6B0E0E4E6F0E102C005900D92F9
:10007000A03BB107D9F720E0A0EBB0E001C01D9292
:10008000A03DB207E1F70E9471030C9430080C9474
:1000900000008091B900813071F48091B2008F5FCF
:1000A0008093B200843139F41092B9001092B200FA
:1000B00081E08093BC008091BA008130C1F58091CD
:1000C000B1008F5F8093B100813089F51092BA0042
:1000D0001092B1001092B8008091B00081110DC053
:1000E00064EC70E08091C1009091C2000E946505AF
:1000F000882319F081E08093B0008091C4000E94B1
:10010000F301811104C081E08093BA00089564EC8A
:1001100070E08091C1009091C2000E946505882323
:1001200021F081E08093BA0008951092B000089504
:1001300081E790E00E94100186E690E00E9413049F
:1001400089B7846089BF86E690E00E94340469E440
:1001500070E084E00E945F0464E170E080E090E081
:100160000E947B049093C2008093C10086E690E0D9
:100170000E94340478940E94FF028FE196E00E946E
:10018000530387EA90E00E94E0022FEF83ED90E3B3
:10019000215080409040E1F700C0000081E00E94C3
:1001A000AD028330D9F30895CF9381E790E00E94A8
:1001B000C001C82F81E00E94AD028330D9F38C2F9B
:1001C0000E948202CF9108951F920F920FB60F9254
:1001D00011242F933F934F935F936F937F938F934C
:1001E0009F93AF93BF93EF93FF930E944900809139
:1001F0006B0090916C00809590959DBD8CBDFF919A
:10020000EF91BF91AF919F918F917F916F915F918E
:100210004F913F912F910F900FBE0F901F90189507
:10022000FF920F931F93CF93DF938C0181E0809314
:10023000B400F12C19C0CF2DD0E0CE01880F991F4A
:10024000C80FD91FC00FD11F8E858093B30063EBF9
:1002500070E08C859D850E94EB0341E06E858C8566
:100260009D850E940604F39482E08F1520F7E3EB4E
:10027000F0E0118281E08283C0E013C0EC2FF0E057
:10028000CF01880F991FE80FF91FE00FF11F82813E
:100290008093B30063EB70E0808191810E94EB0357
:1002A000CF5FC43058F380E0DF91CF911F910F9161
:1002B000FF900895CF92DF92EF92FF920F931F93DA
:1002C000CF93DF93EC01C12C4DC00C2D10E0F80151
:1002D000EE0FFF1FE00FF11FEC0FFD1F40E06685E2
:1002E000848595850E940604D12C2AC0ED2CF12C22
:1002F000F701EE0FFF1FEE0DFF1DEC0FFD1F6281DA
:10030000808191810E94FE03811119C0C801880F6C
:10031000991F800F911FC80FD91F41E06E858C85F2
:100320009D850E940604C701880F991F8E0D9F1D91
:100330008A579F4FFC01E00FF11F808118C0D394B2
:1003400083E08D1598F6F801EE0FFF1F0E0F1F1FAB
:10035000FE01E00FF11F41E06685848595850E94CE
:100360000604C39482E08C1508F0AFCF80E2DF91E1
:10037000CF911F910F91FF90EF90DF90CF90089554
:100380000E945A018823B9F09091BB00992319F07B
:10039000913041F0089581E08093BB008093B900D3
:1003A00080E008959091BC00913029F41092BB0038
:1003B0001092BC0080E00895CF93DF93C2E9D0E0B3
:1003C00041E068858E819F810E94060485E08A95C0
:1003D000F1F7000040E068858E819F810E9406044D
:1003E000DF91CF9108951F93CF93DF931091C500B4
:1003F000113009F45DC020F0123009F468C07AC0F1
:100400008093B70083E090E024C0EC01219641E0A6
:1004100050E09A010C2E02C0220F331F0A94E2F71B
:100420004091B70050E0422353230C2E02C0559553
:1004300047950A94E2F7FC01EE0FFF1F8E0F9F1FF6
:10044000FC01EE56FF4F6281808191810E9406047B
:10045000CE0187309105CCF20E94DC0182E08093CE
:10046000C5001092C30049C09E012350310941E0EC
:1004700050E0CA01022E02C0880F991F0A94E2F7C9
:100480004091B70050E04823592302C05595479545
:100490002A95E2F7FE01EE0FFF1FEC0FFD1FEE564F
:1004A000FF4F6281808191810E940604219602C0E3
:1004B000C3E0D0E0C730D105BCF20E94DC0182E08D
:1004C0008093C50081E08093C30010E016C01091B6
:1004D000B800111111C08091C300811105C091E0D5
:1004E0009093C500182F09C0813039F41092C500CF
:1004F000182F03C010E001C010E0812FDF91CF91D1
:100500001F9108950F931F93CF93DF931F92CDB741
:10051000DEB78983BE016F5F7F4F8091C1009091EC
:10052000C2000E94AF0402E910E041E0F8016281DC
:10053000808191810E94060440E0F80165818381F9
:1005400094810E94060481E08093BA0080E00F90BD
:10055000DF91CF911F910F910895CF93DF939091E9
:10056000B600992319F09130E1F022C09091BA00C1
:10057000913001F18093C400C2E9D0E040E06A818B
:10058000888199810E94060440E06D818B819C8165
:100590000E94060481E08093BA008093B60083E055
:1005A0000CC08091BA00811107C01092B60005C03E
:1005B00080E003C083E001C083E0DF91CF91089524
:1005C000CF93DF93EC01BE018091C1009091C200F6
:1005D0000E94AF048881882311F02196F4CF80E037
:1005E0000E94820280E0DF91CF9108956093BD0068
:1005F0007093BE008093BF009093C00008950F9346
:100600001F93CF93DF9300D01F92CDB7DEB72FEFAC
:1006100089EF90E0215080409040E1F700C0000059
:1006200064E170E080E090E00E94F60281E08A835D
:100630001B8200E010E012C0F801EE0FFF1FE00F78
:10064000F11FEE56FF4F82818983BE016F5F7F4F9E
:10065000808191810E94EB030F5F1F4F07301105CE
:100660005CF383E30E94AD028330D9F382E30E94FE
:10067000AD028330D9F388E20E94AD028330D9F312
:100680008CE00E94AD028330D9F381E00E94AD027C
:100690008330D9F380E00F900F900F90DF91CF91CE
:1006A0001F910F910895CF93DF93CDB7DEB72A97AF
:1006B0000FB6F894DEBF0FBECDBF4AE0BE016F5F3C
:1006C0007F4F0E94C407CE0101960E94E00280E0A5
:1006D0002A960FB6F894DEBF0FBECDBFDF91CF9143
:1006E00008950E9498000E94D400FDCF1F920F929F
:1006F0000FB60F9211242F933F934F935F936F93F5
:100700007F938F939F93AF93BF93EF93FF93E0916A
:10071000C600F091C7000995FF91EF91BF91AF918D
:100720009F918F917F916F915F914F913F912F9109
:100730000F900FBE0F901F9018951F920F920FB63B
:100740000F9211242F933F934F935F936F937F9357
:100750008F939F93AF93BF93EF93FF93E091CA0062
:10076000F091CB000995FF91EF91BF91AF919F91CF
:100770008F917F916F915F914F913F912F910F904A
:100780000FBE0F901F9018951F920F920FB60F92E9
:1007900011242F933F934F935F936F937F938F9386
:1007A0009F93AF93BF93EF93FF93E091C800F091B5
:1007B000C9000995FF91EF91BF91AF919F918F91E2
:1007C0007F916F915F914F913F912F910F900FBE4D
:1007D0000F901F901895FC01DB0111968C911197D9
:1007E000813029F48C919181892B81830895DB01DB
:1007F0009C9190958181982391830895FC0180813B
:10080000682311F081E0089580E00895442329F0E1
:10081000FC012281622B628308956095FC01228194
:100820006223628308950097D9F0FC01218521118C
:1008300003C013BE12BE0BC0223019F415BC14BC89
:1008400006C0213079F41FBC1EBC1DBC1CBCFC01C1
:1008500085819681809590959DBD8CBD80E00895A1
:1008600081E0089582E00895009729F1FC01218537
:10087000211109C023B7287F23BF23B78085822B8E
:1008800083BF80E00895223051F425B5287F25BD2F
:1008900025B5FC018085822B85BD80E0089521303F
:1008A00061F42EB5287F2EBD2EB5FC018085822BEC
:1008B0008EBD80E0089581E0089582E00895672B61
:1008C000B1F08830B1F038F4813078F0833088F0BE
:1008D000843079F00AC0803261F018F4803149F038
:1008E00004C0803431F0803821F082E0089581E046
:1008F000089580E00895CF92DF92EF92FF92CF9318
:10090000DF936B017C018EE090E00E94D405EC0146
:10091000892BC9F0C6010E94D40599838883892B4D
:10092000A9F0CA86DB86EC86FD868FEF9FEFDC019F
:100930008E839F83A887B9878A839B83AC83BD837B
:100940008C2F9D2F05C080E090E002C080E090E0F9
:10095000DF91CF91FF90EF90DF90CF9008954F926D
:100960005F926F927F928F929F92AF92BF92CF923F
:10097000DF92EF92FF920F931F93CF93DF93EC01DF
:100980008B01CA84DB84EC84FD84892B09F489C043
:100990008E819F81A885B9858F3F2FEF9207A2078F
:1009A000B20779F41A821B821C821D821E821F826A
:1009B00018861986E881F981DB018C91808381E0BA
:1009C00073C0BC01CD016F5F7F4F8F4F9F4FA70159
:1009D00096010E94B2054B015C016E837F8388877C
:1009E0009987A70196010E94B2054A805B806C80BE
:1009F0007D80641575058605970509F048C0C70117
:100A0000B601660F771F881F991F6A877B878C87BF
:100A10009D87888199810E94F50699838883892B17
:100A200009F441C08A819B81AC81BD8111C02881BC
:100A30003981FC01EC0DFD1DAF01420F531F280F42
:100A4000391FF9012081FA0120830196A11DB11DF2
:100A50004A815B816C817D814C0D5D1D6E1D7F1D0A
:100A600084179507A607B70710F34A835B836C8347
:100A70007D83288139818E819F81A885B985F9017F
:100A8000E80FF91FD8012C91208381E00DC08881E7
:100A90009981FC01E80DF91DD8018C91808381E0DA
:100AA00003C080E001C080E0DF91CF911F910F91E2
:100AB000FF90EF90DF90CF90BF90AF909F908F907E
:100AC0007F906F905F904F9008950F931F93CF93F7
:100AD000DF93EC01892BF1F18A819B81AC81BD818F
:100AE0008F3F2FEF9207A207B207B1F1288139811A
:100AF000F901E80FF91F8081FB0180838A819B81C6
:100B0000AC81BD810E811F812885398580179107B1
:100B1000A207B30791F0BC01CD016F5F7F4F8F4FEC
:100B20009F4F2A853B854C855D850E94B2056A836F
:100B30007B838C839D8381E010C08FEF9FEFDC016E
:100B40008E839F83A887B9878A839B83AC83BD8369
:100B500080E003C080E001C080E0DF91CF911F9171
:100B60000F910895A1E21A2EAA1BBB1BFD010DC017
:100B7000AA1FBB1FEE1FFF1FA217B307E407F5074D
:100B800020F0A21BB30BE40BF50B661F771F881F29
:100B9000991F1A9469F760957095809590959B01BF
:100BA000AC01BD01CF0108950F931F93CF93DF9345
:100BB0008230910510F482E090E0E091CE00F09157
:100BC000CF0020E030E0A0E0B0E0309719F14081A4
:100BD00051810281138148175907C8F0841795077E
:100BE00069F4109731F012960C93129713961C9398
:100BF00027C00093CE001093CF0022C021153105ED
:100C000019F04217530718F49A01BD01EF01DF01F3
:100C1000F801DBCF21153105F9F0281B390B243001
:100C2000310580F48A819B816115710521F0FB01FA
:100C30009383828304C09093CF008093CE00FE0103
:100C4000329644C0FE01E20FF31F8193919322502C
:100C50003109398328833AC02091CC003091CD00EE
:100C6000232B41F420916200309163003093CD003A
:100C70002093CC0020916000309161002115310556
:100C800041F42DB73EB74091640050916500241B9C
:100C9000350BE091CC00F091CD00E217F307A0F402
:100CA0002E1B3F0B2817390778F0AC014E5F5F4FC2
:100CB0002417350748F04E0F5F1F5093CD00409327
:100CC000CC008193919302C0E0E0F0E0CF01DF918E
:100CD000CF911F910F910895CF93DF93009709F45F
:100CE00081C0FC01329713821282A091CE00B09194
:100CF000CF00109781F420813181820F931F2091C2
:100D0000CC003091CD002817390751F5F093CD0074
:100D1000E093CC0067C0ED0120E030E0CE17DF07A4
:100D200040F44A815B819E0141155105F1F0EA01D1
:100D3000F5CFD383C28340815181840F951FC8179B
:100D4000D90759F488819981840F951F0296918360
:100D500080838A819B81938382832115310529F4C5
:100D6000F093CF00E093CE003DC0E901FB83EA831E
:100D700049915991C40FD51FEC17FD0761F480818B
:100D80009181840F951F0296E9019983888382815E
:100D900093819B838A83E0E0F0E012968D919C9191
:100DA0001397009719F0FD01DC01F7CF8D919C910D
:100DB00011979D012E5F3F4F820F931F2091CC0012
:100DC0003091CD002817390769F4309729F4109233
:100DD000CF001092CE0002C013821282B093CD00D9
:100DE000A093CC00DF91CF910895A0E0B0E0EBEFAD
:100DF000F6E00C94FD07EC01009721F4CB010E9472
:100E0000D405B4C0FC01E60FF71F9C012250310944
:100E1000E217F30708F4A8C0D9010D911C911197AE
:100E200006171707B0F00530110508F49BC0C8017C
:100E300004978617970708F495C002501109061BFE
:100E4000170B019311936D937C93CF010E946C0655
:100E500089C05B01A01AB10A4C01800E911EA091BD
:100E6000CE00B091CF00612C712CE12CF12C1097A9
:100E700009F446C08D919C911197A815B905B1F55B
:100E80006C0142E0C40ED11CCA14DB0478F14C01A1
:100E90008A189B08640142E0C40ED11C1296BC90D3
:100EA00012971396AC91B5E0CB16D10440F0B28204
:100EB000A38391828082D9016D937C9309C00E5FD8
:100EC0001F4F800F911FF90191838083EB2DFA2F23
:100ED000E114F10431F0D7011396FC93EE931297CD
:100EE00041C0F093CF00E093CE003CC06816790675
:100EF00008F43C017D0112960D90BC91A02DB7CF56
:100F00008091CC009091CD0088169906E1F4661688
:100F10007706C8F48091600090916100009741F4D9
:100F20008DB79EB74091640050916500841B950B6E
:100F3000E817F907C8F4F093CD00E093CC00F9016D
:100F4000718360830FC0CB010E94D4057C010097A0
:100F500059F0A801BE010E94BB07CE010E946C0699
:100F6000C70104C0CE0102C080E090E0CDB7DEB77B
:100F7000EEE00C941908FB01DC0102C001900D9217
:100F800041505040D8F70895BB274A3031F4992397
:100F900022F4BDE2909581959F4F0C94D007BB271A
:100FA000FB015527AA27880F991FAA1FA41710F025
:100FB000A41B83955051B9F7A05DAA3308F0A95D31
:100FC000A193009779F7B111B1931192CB010C94D1
:100FD000E907DC01FC01672F71917723E1F7329774
:100FE00004C07C916D9370836291AE17BF07C8F304
:100FF00008952F923F924F925F926F927F928F92BD
:101000009F92AF92BF92CF92DF92EF92FF920F9397
:101010001F93CF93DF93CDB7DEB7CA1BDB0B0FB6A1
:10102000F894DEBF0FBECDBF09942A88398848885E
:101030005F846E847D848C849B84AA84B984C884F4
:10104000DF80EE80FD800C811B81AA81B981CE0FEB
:10105000D11D0FB6F894DEBF0FBECDBFED010895D0
:04106000F894FFCF32
:101064000000D0002000FF1F480000803E06010160
:1010740004330010330008330004330002330080CB
:101084003300403300203132333435363738392A8F
:1010940030233900023900043900083900103900BE
:1010A4002039004039008077656C636F6D650000FE
:00000001FF
